:020000040800F2
:10000000000003205D060008F5210008F721000824
:10001000F9210008FB210008FD2100080000000074
:10002000000000000000000000000000C195000872
:10003000FF2100080000000051960008E58E00082E
:10004000AD060008AD060008AD060008AD060008C4
:10005000AD060008AD060008AD060008AD060008B4
:10006000AD060008AD060008AD060008AD060008A4
:10007000AD060008AD060008AD060008AD06000894
:10008000AD060008AD060008AD060008AD06000884
:10009000AD060008AD060008AD060008AD06000874
:1000A000AD060008AD060008AD060008AD06000864
:1000B000AD060008AD060008AD060008AD06000854
:1000C000AD060008AD060008AD060008AD06000844
:1000D000AD060008AD060008AD060008AD06000834
:1000E000AD060008AD060008AD060008AD06000824
:1000F000AD060008AD060008AD060008AD06000814
:10010000AD060008AD060008AD060008AD06000803
:10011000AD060008AD06000801220008AD06000883
:10012000AD060008AD060008AD060008AD060008E3
:10013000AD060008AD060008AD060008AD060008D3
:10014000AD060008AD060008AD060008AD060008C3
:10015000AD060008AD060008AD060008AD060008B3
:10016000AD060008AD060008AD060008AD060008A3
:10017000AD060008AD060008AD060008000000004E
:10018000AD060008AD060008AD060008AD06000883
:10019000AD060008AD060008AD060008AD06000873
:0C01A0000D220008AD060008192200081E
:1001B00010B5054C237833B9044B13B10448AFF3A1
:1001C00000800123237010BD800300200000000088
:1001D0006460020808B5034B1BB103490348AFF341
:1001E000008008BD00000000840300206460020855
:1001F00001F0FF01102A2BDB10F0070F08D010F8D8
:10020000013B013A8B422DD010F0070F42B3F6D1DB
:10021000F0B441EA012141EA014122F007047FF0F4
:1002200000070023F0E80256083C85EA010586EA4B
:10023000010685FA47F5A3FA87F586FA47F6A5FA87
:1002400087F68EB9EED1F0BC01F0FF0102F0070293
:1002500032B110F8013B013A83EA010313B1F8D13E
:100260000020704701387047002D06BF354603381F
:10027000073815F0010F07D1013015F4807F02BF58
:10028000013015F4C03F0130F0BC0138704700BFA9
:100290007BB972B90029BEBF00204FF0004106E0D3
:1002A00008BF00281CBF6FF000414FF0FF3000F086
:1002B000D3B9ADF1080C6DE904CE002909DB002BA0
:1002C0001ADB00F04DF8DDF804E0DDE9022304B0AC
:1002D0007047404261EB4101002B1BDB00F040F80E
:1002E000DDF804E0DDE9022304B0404261EB4101A6
:1002F000524263EB43037047524263EB430300F007
:100300002FF8DDF804E0DDE9022304B0404261EBA0
:1003100041017047524263EB430300F021F8DDF8DE
:1003200004E0DDE9022304B0524263EB430370476B
:1003300053B94AB9002908BF00281CBF4FF0FF314C
:100340004FF0FF3000F088B9ADF1080C6DE904CE34
:1003500000F006F8DDF804E0DDE9022304B07047A0
:100360002DE9F047089D8E4604468846002B4AD169
:100370008A42174662D9B2FA82F64EB1C6F120031C
:1003800001FA06F820FA03F3B74043EA0808B4403C
:100390004FEA174E1FFA87FCB8FBFEF1230C0EFB49
:1003A000118843EA084301FB0CF29A4209D9FB1871
:1003B00001F1FF3080F0EA809A4240F2E780023992
:1003C0003B449A1AA3B2B2FBFEF00EFB102243EAA2
:1003D000024300FB0CFC9C4509D9FB1800F1FF32DD
:1003E00080F0D6809C4540F2D3803B44023840EAFE
:1003F0000140A3EB0C0300211DB1F3400022C5E92D
:100400000032BDE8F0878B4205D90DB1C5E9000186
:1004100000210846F5E7B3FA83F1002946D1734578
:1004200002D3824200F20581841A6EEB030201209E
:100430009046002DE5D0C5E90048E2E7002A00F02B
:100440009080B2FA82F6002E40F0A4808A1A030C43
:100450004FEA174E80B2BCB20121B2FBFEFC0EFB8C
:100460001C2243EA024304FB0CF29A4207D9FB1810
:100470000CF1FF3802D29A4200F2E080C4469B1A87
:10048000B3FBFEF20EFB123340EA034302FB04F41B
:100490009C4207D9FB1802F1FF3002D29C4200F2C5
:1004A000CA8002461B1B42EA0C40A5E7C1F12006A8
:1004B0008B4022FA06F71F430EFA01F420FA06F3E6
:1004C0002EFA06FE4FEA1749234300FA01F81FFAF5
:1004D00087FCBEFBF9F01C0C09FB10EE44EA0E444D
:1004E00000FB0CFEA64502FA01F209D93C1900F105
:1004F000FF3A80F09C80A64540F2998002383C4447
:10050000A4EB0E041FFA83FEB4FBF9F309FB1344BA
:100510004EEA044403FB0CFCA44508D93C1903F142
:10052000FF3E80F08280A4457FD9023B3C4443EAF1
:100530000040A4EB0C04A0FB02EC64457346E146CA
:1005400062D35FD05DB1B8EB030264EB090404FA37
:1005500006F622FA01F31E43CC40C5E900640021EF
:100560004FE7B1FBF2FC010C41EA0E4180B240EAD8
:1005700001423B4638463C46B846BE462026B1FBC3
:10058000F7F1A2EB080241EA0C4166E7014618E7E1
:1005900010462CE7C6F120022EFA02F3B740B14014
:1005A00020FA02F24FEA174E0A43B3FBFEF8BCB240
:1005B0000EFB1833110C41EA034108FB04F9B0406B
:1005C00089454FEA104380B23ED9791808F1FF3CC3
:1005D00001D289451FD8A1EB0901B1FBFEF909FB46
:1005E00004F80EFB191192B242EA0142424529D2A7
:1005F000BA1809F1FF31C4D24245C2D2A9F10201B1
:100600003A44BEE7F0459DD2BEEB02036CEB070C0B
:100610000138E14696E7A7EB09094944A8F1020C25
:10062000B1FBFEF909FB04F8DBE773467FE75046B0
:1006300066E70846FDE63B44023A33E7ACF1020CBC
:100640003B441CE749469CE7A1EB0901C446B1FBCA
:10065000FEF909FB04F8C4E7704700BFDFF834D0A7
:10066000002103E00C4B5B58435004310B480C4B0A
:1006700042189A42F6D30B4A02E0002342F8043BA8
:10068000094B9A42F9D306F0AFF924F075FF01F057
:1006900061F87047000003208095030800000020E7
:1006A0006801002080030020B8420120FEE7704767
:1006B00008B500F0B9FDBDE8084000F03DBD00F010
:1006C000B5BD704710B50421044623F0CFFC204689
:1006D00010BD000038B50C4B0C4C18800C4B822020
:1006E00019806368984740F6110398420AD1094D72
:1006F00023682C60822098472B688220DB6898470B
:10070000002038BD0120FCE7A60300205000002097
:10071000A4030020A80300204FF4A071F020FFF7ED
:10072000D9BF0000F7B5394D2B6804461B698220FC
:100730009847208000284ED02B680DF106025B6997
:1007400001A982209847324B1B78002B4BD0BDF873
:10075000062040F674639A423FD9ADF80630BDF8E2
:1007600006209B1A9BB20A2B42D90B22B3FBF2F351
:10077000284A1288934201D9013A93B2BDF8042065
:10078000254840F6B8318A4234D8C2F571620E323B
:10079000016892B20F25B2FBF5F2204D2D88AA42D6
:1007A00084BF05F1FF35AAB28A4215468EB22AD916
:1007B000921B91B21A4E3768BB42BAB28CBF9A1ADA
:1007C000D21A92B211440529C4BF05603360036890
:1007D00063803368A38003B0F0BDB32A9CBFB4220A
:1007E000ADF80620BBE7BDF80630A3F5B473B9E752
:1007F0000023C3E7C2F56D62083292B20E2A016887
:10080000C8D800252A46891A89B2D3E7A803002050
:1008100068240020A4030020A0030020A6030020D9
:100820009C03002037B568460D461446FFF77AFF53
:10083000BDF8000030B1BDF802302B60BDF80430C7
:100840002360012003B030BD032821D8DFE800F089
:10085000020B12190F4B1A68B2FA82F252090421E4
:100860000D4806F055BB0B4B5A68B2FA82F252099A
:100870000821F5E7074B9A68B2FA82F25209102173
:10088000EEE7044BDA68B2FA82F252092021E7E778
:10089000704700BFAC03002000100240032821D89D
:1008A000DFE800F0020B12190F4B1A68003A18BF6C
:1008B000012204210D4806F02BBB0B4B5A68003A6D
:1008C00018BF01220821F5E7074B9A68003A18BFC4
:1008D00001221021EEE7044BDA68003A18BF01222A
:1008E0002021E7E7704700BFAC0300200010024062
:1008F00003280DD8DFE800F00206080A04210548A5
:1009000006F00BBB0821FAE71021F8E72021F6E7F3
:10091000704700BF0010024008B5032811D8DFE877
:1009200000F0020A0C0E0421074806F0EBFA431E01
:100930005842584108BD0821F6E71021F4E720216C
:10094000F2E70020F3E700BF0010024070B5084D49
:1009500000240126E0B2FFF7DFFF18B12B68012B5E
:1009600018BF2E600134052C05F10405F2D170BDCD
:10097000AC030020012380F8781080F879307047AC
:100980007047002070470000034B4164003918BFD6
:1009900001211970704700BF773501207047002092
:1009A0007047836B0BB10846184770474FF6FF70CE
:1009B0007047406803689B691847704770477047E5
:1009C0007047704710B5044600F046FD23680349A0
:1009D000D3F890302046BDE810401847000000D002
:1009E00008B503680446D3F8843098472368204646
:1009F000DB6F984700F0ECF8236820465B6F984760
:100A0000292001F017F900F0E3F8236820465B6F16
:100A10009847F8E710B504460BF0C8FB236820465A
:100A2000D3F8BC30BDE81040184700F0F9BC00F026
:100A3000FDBC00F02FBD00F0CFBC00F03FBD00F0CA
:100A400047BD00F0D3BC0AF0DFBD10B584210446D9
:100A500023F00CFB204610BD10B590F8341090F830
:100A600078400C4B8C421A7809D03AB90A4A0B49A3
:100A70001488088810800C8001221A7010BD002A8A
:100A8000FCD0054A05491488088810800C80002293
:100A9000F3E700BF703501206C3501206E35012071
:100AA00070B50D46194635B9094B0A4A0A4840F255
:100AB000FF2124F017FAC0E90F52084B003A18BF83
:100AC00001221A700368BDE87040D3F890301847CF
:100AD00094610208CC6102081A620208763501208E
:100AE00008B5094B1B888B4203D8084B1B889342DF
:100AF00005D9074B074A0848A32124F0F3F9074B0F
:100B00001980074B1A8008BD6C3501206E35012015
:100B10005F620208C26202081A620208723501208E
:100B200074350120034690F87A0018B158680368BC
:100B30001B68184770470000012108B500220846CD
:100B400008F05AFA0A4B186028B90A4B0A4A2821B9
:100B50000A4824F0C7F900220421012008F0EBFA2A
:100B6000074B186018B9074B034A2C21F0E708BD62
:100B7000C0030020056302084E6302087D6302087B
:100B8000BC030020CE630208024B4FF0FF3118680F
:100B900008F07CBAC0030020014B186808F0A2BA24
:100BA000C0030020024B0021186808F06FBA00BF94
:100BB000C0030020FFF7F0BF03480449006800238A
:100BC0001A4608F0F3BA00BFBC030020040000205E
:100BD00013B5084C00231A4601A9206808F017FB3A
:100BE00020684FF0FF33002201A908F010FB02B08B
:100BF00010BD00BFBC03002003685B6C18470120D8
:100C0000704703689B6A1847FEE740F2EF30704771
:100C1000054B0360054B4FF08062C3F88820BFF39B
:100C20004F8FBFF36F8F70473C73020800E100E005
:100C300010B504464FF45A61FFF7EAFF204623F04F
:100C400015FA204610BD000082B0002301930E4B20
:100C50001A6B42F400021A631A6B02F4000201924A
:100C6000019A1A6942F400021A611A6922F4000218
:100C70001A61064B064A1A61064A5A61064B4FF042
:100C800080629A6002B0704700380240FC25002064
:100C9000E90E0008090C000800E100E008B50A2888
:100CA00009D8DFE800F006100E0808080810101038
:100CB0001000022008BD054B054A0648902124F08B
:100CC00011F90020F6E70120F4E700BF10640208E4
:100CD0002B6402087664020838B50C46887FFFF75B
:100CE000DDFFA58AE28A164B2169586342EA054274
:100CF0005A64628BD963521B1A642568082D0ED181
:100D00009A611A615862207F0E4A42EA0062DA61F3
:100D1000E2681A620C4A5961D9601A6038BD002233
:100D2000D8611A61E1680A0A480902F4784200F4BD
:100D3000FC600243C1F3C4010A439A63034AECE72F
:100D400000B002400900010001230200012303005A
:100D500008B50B280BD8DFE800F00612100A0A0AC3
:100D60000A0808080808022008BD0520FCE7054B12
:100D7000054A06486F2124F0B5F80020F4E7012069
:100D8000F2E700BF10640208C56402087664020836
:100D90002DE9F04191F81D800C464046FFF7D8FF41
:100DA000A77F05463846FFF7D3FF06463846FFF7CC
:100DB00075FFA18A628B444B521A1A649A61228B86
:100DC000521A1A61E28A586342EA01425A6421695E
:100DD0006268D963DA602068802828D0227F0FD823
:100DE000202867D0402865D004281AD0364B45EA21
:100DF000026545F40035B845DD6161D0334A44E011
:100E0000B0F5807F04D0B0F5007FEFD1304800E02E
:100E1000304840EA0262DA61E2681A625E62596151
:100E200032E045EA026242F40032DA61F6E7A06895
:100E3000021DDA62227F45EA026545F40035DD6174
:100E40005E625961017841B1012921D0224B234AC8
:100E500023484FF48D7124F045F8DA69418822F473
:100E60007F42013922F0100242EA0122DA610121B7
:100E7000154BDA6942F02002DA61DA699206FCD495
:100E800010229A600029B9D0164A1A60BDE8F08194
:100E9000B2F1FF01DA69408822F47F4200F1FF30AD
:100EA00022F0100242EA002242F0100218BF012193
:100EB000DA61DDE745EA0262034B42F40032B4E74F
:100EC00042F20132E1E700BF00B00240012301001D
:100ED000090002000A0002000F65020829650208E5
:100EE0007664020801230200024B1B6858680368FD
:100EF0005B6918477835012070B5044625460A4BD2
:100F00000C30002660602672667245F8203B602235
:100F100029460BF0A1FA04F55A63EE6024359D4290
:100F2000FBD1204670BD00BF3C730208034B1A681A
:100F3000D207FCD423229A60704700BF00B0024061
:100F40007047000030B50F4C2568ED07FCD4232511
:100F50000904A56041F001010225FF2B656361646E
:100F6000E0630AD00849656241EA0363E361074B25
:100F700022626061E060236030BDE561039BA36392
:100F8000034BF8E700B00240090001000100020035
:100F90000100030030B50E4C2568ED07FCD4232575
:100FA0001204A56042F001020225FF2B6563626412
:100FB000E063E16008D01B0643F00213E361054BD8
:100FC00065626061236030BD034BE3610123F9E793
:100FD00000B0024001000200020002FF30B50B4CDD
:100FE0002568ED07FCD4232512041B06A56043F4F5
:100FF0000033022542F0010265636264E063E16050
:10100000E361034B65626061236030BD00B0024064
:1010100001000200012070474020704700EB811062
:101020000830704700EB811008307047012070478E
:1010300040F62870704740F6287303FB0100083023
:10104000704740F6287303FB010008307047012009
:1010500070471020704700EB01100830704700EB1C
:10106000011008307047084601F00ABE10B5034B66
:10107000036004460AF01FF8204610BDF47302080E
:1010800010B50446FFF7F2FF2046482122F0EEFF9C
:10109000204610BD10B5034B036004460AF00BF860
:1010A000204610BDC073020810B50446FFF7F2FFDA
:1010B00020464FF4736122F0D9FF204610BD000096
:1010C00010B5034B0360044609F0F5FF204610BD40
:1010D0008C73020810B50446FFF7F2FF2046182172
:1010E00022F0C4FF204610BD10B5084B0360044633
:1010F00000F65C70FFF7BAFF04F12C00FFF7CAFF9F
:1011000004F11400FFF7DCFF204610BD287402082C
:1011100008B50248FFF7E8FF08BD00BF9C12002099
:1011200010B50446FFF7E0FF204641F2041122F01B
:101130009DFF204610BD00002DE9F34101F09AFA11
:10114000054601F09BFA0024014623462846224624
:10115000009413F0D9FE274B274A1A60204603F06B
:1011600033FE264D264B274A27489A6013F034FE5B
:101170002B68BFF35B8FDB0735D4284622F078FF5E
:1011800088B3224C224B236004F6A87604F11400A5
:1011900004F12C0804F65C776060C4F80880E7600E
:1011A000266109F089FF1B4B6361404609F084FF0B
:1011B000194BE362384609F07FFF184BC4F85C3FD7
:1011C00004F6A47004F041FC224604F6A4713046F3
:1011D00004F04EF8304601F053FD114823F0A0FE14
:1011E000284622F051FF0F4802B0BDE8F041FFF75A
:1011F000E9BB00BFDC350120480400209812002024
:10120000680400204C040020080000209C120020EC
:10121000287402088C730208C0730208F473020871
:1012200011110008C4030020704700000148FFF7B7
:10123000D7BB00BFC403002070B5264E264C274DF7
:10124000274B23603046FFF757FE284618F062FF11
:10125000244811F029FB244B2448DC6000224FF481
:101260008071C3E9121222491A86C3E91A12214970
:1012700083F85820C3E91E011F49C3F880101F4995
:101280001F480B60F021C3E90422C3E90622C3E929
:101290000822C3E90A22C3E90E22C3E91022C3E9E6
:1012A0001422C3E917225A6683F870205A67C3E9EB
:1012B000016501801348018013484FF4A07101803B
:1012C0001248018012490A70012283F83420114A21
:1012D0001A6070BDF40400209412002068040020FD
:1012E000846102084C040020C403002000000101B6
:1012F00001000001000450001A001400783501209C
:101300006C350120723501206E35012074350120C5
:1013100070350120507202080148FFF779BC00BF08
:10132000F40400200020704781807047C18070471E
:10133000018170474181704770477047704770471F
:10134000704710B4C4880368121B84885B6D091B46
:1013500012B25DF8044B09B218474FF6FF73838150
:101360004FF0FF3303621368C361106070470020C1
:1013700070478B88838001207047704780F8261063
:10138000704790F82600704710B50022B1F9084068
:10139000B1F90A10028042808480C18010BD002211
:1013A000028042808280C28070470177704780ED62
:1013B000080A704780F82410704780F8251070479D
:1013C00001207047983070478C30704784307047E8
:1013D0007047704770470000034B902283F85A23F0
:1013E00083F85823704700BF00E100E0094A0A492A
:1013F000D3680A48C3F30A03013B9BB20B8011690F
:10140000C1F30A01013901801364536B43F00103F6
:101410005363704700680140A2230020A0230020EE
:10142000014BD3F8AC00704700680140024B012229
:10143000C3F8AC105A6270470068014010B52C2107
:10144000044622F013FE204610BD10B5BC21044610
:1014500022F00CFE204610BD70B504460AF029F9B2
:1014600023689D6E0FF090FF01462046A847236831
:10147000054AD3F88C502046AC460023BDE87040A6
:10148000A2F51631604700BF00B004D00AF0F8B8EA
:101490000AF002B90AF0BEB80AF02DBA90F8252079
:1014A00012B103685B691847704790F825201AB19C
:1014B00090F8242002B1186070470000034B4FF0F1
:1014C00080629A604FF080729A60704700E100E09D
:1014D000084B4FF08062C3F88820BFF34F8FBFF3F3
:1014E0006F8F4FF08072C3F88820BFF34F8FBFF328
:1014F0006F8F704700E100E070B50023124E8380CB
:10150000124B0360336893F8582005460AB1D86C33
:1015100000B998680368DB6A98473368B0FA80F4CA
:10152000D86C640930B10368DB6A9847002808BFAB
:1015300044F001042CB9064B064A07482C2123F03D
:10154000D1FC284670BD00BF783501203C740208EC
:1015500067650208C5650208FE65020870B5254E7C
:101560003568BFF35B8F15F0010540D1304622F09E
:101570007FFD00283BD0204C204B256104F1340036
:10158000C4E90035C4E90255E584A562A58511F0DA
:1015900070FC04F158000CF013FC194BA3652046B5
:1015A000184B40F8843BFFF7A7FF174BC4F8843073
:1015B0002433C4F88C304FF4C803C4E92835002321
:1015C000C4F8AC30C4F8B030C4F8B430C4F8B830A3
:1015D0000E480F4BC4F89050C4F89C50C4F8A85063
:1015E000C4F8983023F09CFC304622F04DFD0248B0
:1015F00070BD00BFA4230020A8230020048202089D
:101600005C740208D4740208B8810208D51300087B
:101610009881020838B5184C23685BB3174B184AF9
:101620001B6C11888B4216D1164B198806F078FA7C
:10163000236893F86A200025013283F86A2083F832
:101640007C50FFF7B9FA20680AF0B0FD2846BDE8E3
:101650003840FFF7F9B806F063FA2468236820469B
:101660001B6A9847012384F87C300020BDE838408D
:10167000FFF714B938BD00BF78350120006801407C
:10168000A2230020A023002007B5064BADF80600DA
:101690001B68054801220DF1060106F0E1FF03B0C9
:1016A0005DF804FB0C000020A824002008B564208D
:1016B00007F096FCFBE7000030B595B01022002142
:1016C0000AA823F082FE1422002103A823F07DFE45
:1016D00000241E4B01941A6C42F080521A641B6C59
:1016E00003F080530193019B194B02941A6842F452
:1016F00040421A601B6803F4404302930122029B9C
:101700004FF48033CDE9082302254FF480030821EC
:10171000CDE90E534FF4B473CDE9101308A8042398
:101720001393129506F054FA06F018FA0F23CDE938
:1017300003354FF4A0504FF48053CDE90603052143
:1017400003A8059406F020FC15B030BD0038024017
:101750000070004080B59AB005F054F9FFF7ACFF77
:10176000142200210DA823F030FE0024C74B009462
:101770001A6BC748C74DDFF8588342F010021A634E
:101780001A6B02F010020092009A01941A6B42F058
:1017900020021A631A6B02F020020192019A02944D
:1017A0001A6B42F080021A631A6B02F080020292F6
:1017B000029A03941A6B42F004021A631A6B02F045
:1017C00004020392039A04941A6B42F001021A6312
:1017D0001A6B02F001020492049A05941A6B42F00B
:1017E00002021A631A6B02F002020592059A06942D
:1017F0001A6B42F040021A631A6B02F04002069222
:10180000069A07941A6B42F008021A631B6B03F0E6
:101810000803224607933C21079B05F079FB9E486D
:101820000122022105F074FB22469B48042105F0A9
:101830006FFB224699484FF4405105F069FB0126A1
:101840003C23CDE90D3692480F9403230DA90227BE
:10185000109305F073FA90480DA9CDE90D76CDE906
:101860000F4405F06BFA04238B480DA9CDE90D3622
:10187000CDE90F4705F062FA0DA94FF440538748B0
:10188000CDE90D36CDE90F4705F058FA8448854B70
:10189000036005F049F9DFF83CE2834B2C62C5E9AF
:1018A00000E328464FF48043C5E90434C5E9024407
:1018B000C5E9064405F03AFD1021284605F07EFFF3
:1018C00021462846794D05F098FF4FF48273C5E90B
:1018D00000834FF400791823C5E9069328460A23AC
:1018E000C5E90244C5E90444C5E90844AC62EB62B9
:1018F00006F05AFE8F232246394667488DF8243079
:101900008DF8344005F004FB32464FF47A7309A990
:10191000284606F0A5FE4FF47A7332460DA92846F4
:1019200007F04AF8324639465B48614D05F0F0FA57
:101930009DF83430D32B04BF5E4B1E705E4B0126E6
:10194000C5E90036102240230024C5E904234FF4E2
:10195000C073C5E906344FF40063C5E908344FF499
:10196000005302274FF00409AB624FF0030A07232C
:101970000DA92846CDE90D73CDE90F934FF0080866
:10198000C5E90249CDE911A7139706F0F1FC4FF61E
:10199000FF7209A92846CDE90A86089409960C9495
:1019A00006F006FD304605F059F84FF6FF7209A91A
:1019B0002846CDE90978CDE90B6406F0F9FC4FF62D
:1019C000FF7209A92846CDE909A8CDE90B9406F0D4
:1019D000EFFC4FF40C730893089B0C934FF6FF72C7
:1019E00009A92846CDE909980B9606F0E1FC40F2DA
:1019F0006A51284606F0FAFC34220DEB020021461B
:101A000023F0E3FC2D4D2E4B2C61C5E90034092356
:101A1000C5E905361D23C5E9073A40F20D1140F22C
:101A20004313C5E9091340F2171040F24713C5E903
:101A30000B032846C5E90244AC8685F8364005F01C
:101A400077FFFF214FF4806CF022CDE912140521BD
:101A5000CDE914C14FF4A0730DA9CDE90E24CDE951
:101A6000164228462246174D1893CDE910370D949B
:101A7000ADF864408DF8664006F025F8124B2B60F7
:101A80001B6898472B68114DDB6825E00038024041
:101A900000100240A825002000080240000C02406F
:101AA0003C26002000300240A0860100A82400202F
:101AB0007424002068240020400100A0002500209C
:101AC000006801406424002018000020FC2500204C
:101AD00000500140005C00409847134B2846C5E980
:101AE0000034C5E90274C5E90A47C5E90C4405F0AC
:101AF0002BF83146284605F0DDF8FEF7D9FDFEF754
:101B0000D6FD07F0FDF9094A0948214607F024FAF5
:101B1000084B094A18602146084807F01DFA084B8F
:101B2000186007F0FFF9FEE700B002403C750208BC
:101B3000AD1600087024002018750208BF060008C2
:101B40006C240020704770477FB5094B8DF8172033
:101B50001B6802930DF117020123009201930A46BC
:101B60000146044805F08AFC07B05DF804FB00BF9D
:101B700010000020A82500207FB500238DF8173025
:101B8000084B1B6802930A4601230DF117010091CF
:101B900001930146044805F001FD9DF8170007B0C8
:101BA0005DF804FB10000020A82500201FB5084C9C
:101BB00024680092CDE901340A4601230146054814
:101BC00005F0ECFC003818BF012004B010BD00BFC8
:101BD00010000020A825002004F040BF10B5064CDE
:101BE00000222046042105F093F920460122BDE899
:101BF0001040042105F08CB90008024038B50B4DA7
:101C0000044601220A484FF4005105F081F90022F0
:101C10000421284605F07CF92046FFF735FD2846CB
:101C20000122BDE83840042105F072B900080240E5
:101C3000000C024038B50B4D044600220A484FF410
:101C4000005105F065F900220421284605F060F9ED
:101C50002046FFF719FD28460122BDE8384004213F
:101C600005F056B900080240000C0240F7B5144ECA
:101C7000144F05460C4630460022042105F048F971
:101C800000224FF40051384605F042F92846FFF78C
:101C9000FBFC0D4B0D481B68224601A906F08CFE8B
:101CA000384601224FF40051019C05F031F93046CD
:101CB0000122042105F02CF9204603B0F0BD00BF3D
:101CC00000080240000C02400C000020A824002064
:101CD00004F0C4BE0268034B9A4201D104F0ACBECA
:101CE000704700BF001000407047000082B00E4BEC
:101CF00000220092596C41F480415964596C01F4FE
:101D00008041009100990192196C41F08051196451
:101D10001B6C03F080530193019B0F216FF00100B6
:101D200002B004F0C1BE00BF003802400268094B97
:101D30009A4282B00BD100230193074B1A6B42F4F5
:101D400080521A631B6B03F480530193019B02B012
:101D5000704700BF003002400038024007B50F4B0B
:101D600002689A4216D10022A3F5F0430192196B42
:101D700041F4000119631B6B03F400030193052177
:101D80005A20019B04F090FE5A2003B05DF804EB4A
:101D900004F0BCBE03B05DF804FB00BF00B002401D
:101DA0002DE9F043044689B01422002103A823F052
:101DB0000CFB2268244B9A4243D1244C2448002532
:101DC0000095236B43F004032363236B03F00403A8
:101DD0000093009B0195236B43F001032363236B66
:101DE00003F001030193019B4FF012094FF40073BC
:101DF0004FF001080327042603A9CDE90339CDE9F3
:101E00000587079604F09AFF4FF4807311480796F0
:101E100003A9CDE90339CDE9058704F08FFF0295C9
:101E2000236C43F400032364236C03F40003029344
:101E3000029B236A43F400032362236A23F4000312
:101E4000236209B0BDE8F083005C00400038024026
:101E50000008024000000240F0B599B00446142288
:101E6000002107A823F0B1FA30220DEB0200002177
:101E700023F0ABFA22685E4B9A4240F0B780082309
:101E80000C93C0231093042312930CA84FF4003337
:101E9000159306F041F908B1FFF726FF554B564858
:101EA000002400945A6C42F080625A645A6C02F02A
:101EB00080620092009A01941A6B42F020021A6329
:101EC0001A6B02F020020192019A02941A6B42F0FE
:101ED00001021A631A6B02F001020292029A039441
:101EE0001A6B42F002021A631A6B02F002020392AA
:101EF000039A04941A6B42F040021A631A6B02F0C0
:101F000040020492049A05941A6B42F004021A6388
:101F10001A6B02F004020592059A06941A6B42F0BD
:101F200008021A631B6B03F00803069302250E26B2
:101F3000069B0B964FF4806307A9CDE90735CDE9E1
:101F4000094504F0FBFE41F658032C480B9607A9FF
:101F5000CDE907350927CDE9094504F0EFFE032354
:101F600027480B9707A9CDE90735CDE9094504F0C6
:101F7000E5FE4FF4706322480B9607A9CDE90735BB
:101F8000CDE9094504F0DAFE4FF40C631D480B96C9
:101F900007A9CDE90735CDE9094504F0CFFEC023F7
:101FA00019480B9607A9CDE90735CDE9094504F095
:101FB000C5FE082315480B9607A9CDE90735CDE9DD
:101FC000094504F0BBFE4FF4A0530E480B9707A938
:101FD000CDE90735CDE9094504F0B0FE5820224689
:101FE000052104F061FD582004F090FD19B0F0BD0A
:101FF0000068014000380240001402400000024026
:10200000000402400018024000080240000C024098
:1020100010B5044688B01422002103A823F0D5F996
:102020002268144B9A4223D103F5684300210191A1
:102030005A6C114842F480125A645A6C02F48012AD
:102040000192019A02911A6B42F020021A631B6BF3
:1020500003F020030293029B4FF4607202230321DA
:10206000CDE903230523CDE9061303A904F066FE99
:1020700008B010BD00500140001402402DE9F041AD
:1020800086B0002303932B4B1C68002C4FD14FF0DC
:102090000108C3F80080284B00949A6B274842EA55
:1020A00008029A639B6B03EA080300930227032646
:1020B0000C25009B01A94FF63F03CDE90137CDE97F
:1020C000046504F03BFE1E48059501A9CDE9018792
:1020D000CDE9034604F032FE48F233131948059562
:1020E00001A9CDE90137CDE9034604F027FE4FF6FB
:1020F00083731548059501A9CDE90137CDE903465C
:1021000004F01CFE4CF203731048059501A9CDE9BB
:102110000137CDE9034604F011FE60230C48059514
:1021200001A9CDE90137CDE9034604F007FE06B069
:10213000BDE8F0814426002000380240001402402F
:10214000000802400018024000100240000C02404B
:102150000004024070B588B000230293204B1A6C33
:1021600042F010021A641B6C03F010030293054640
:1021700001A903A8029B05F0B1FF069B4BBB05F02C
:102180009DFF184E184B336040F2E733F360174B56
:10219000B0FBF3F3013B7360304600233361B3605F
:1021A000B36106F0D9FD044680B9304606F0AAFCBA
:1021B000044658B9362004F0A9FC0F2D0DD822464C
:1021C0002946362004F070FC094B1D60204608B0FB
:1021D00070BD05F073FF4000D3E70124F6E700BFB0
:1021E00000380240482600200010004040420F0006
:1021F000800000207047FEE7FEE7FEE7FEE770473D
:10220000014806F0BDBC00BF48260020014805F08B
:10221000FDBB00BF00250020014804F0C1BC00BF89
:10222000FC2500200120704708B523F09FF91623F4
:1022300003604FF0FF3008BD08B523F097F916236F
:102240000360FEE770B50D4614460E46731B9C42B4
:1022500001DC204670BDAFF3008006F8010BF5E706
:1022600070B50D4614460E46731B9C4201DC204699
:1022700070BD16F8010BAFF30080F5E74FF0FF30AB
:1022800070474FF400534B600020704701207047A7
:10229000002070470A4A116808B5034609B9094980
:1022A00011601068694603448B4206D923F05EF939
:1022B0000C2303604FF0FF3008BD1360FCE700BF44
:1022C00090260020B8420120704708B5072921D880
:1022D000DFE801F004080C0C1014181C02F052FF87
:1022E000006808BD02F04EFF4068FAE702F04AFFBE
:1022F0008068F6E702F046FFC068F2E702F042FFAE
:102300000069EEE702F03EFF4069EAE702F03AFFBB
:102310008069E6E70020E4E710B50421044621F0D7
:10232000A5FE204610BD806A7047704730B503682F
:1023300085B06D460181D3F88430014604462846B5
:10234000984795E807003C3484E8070005B030BDA5
:1023500030B5036885B06D464181D3F884300146BD
:1023600004462846984795E807003C3484E807006F
:1023700005B030BD0022028042808280C28070475A
:1023800080F83610704770B5036804461B6B15461D
:1023900098472368294620465B6EBDE87040184781
:1023A00000207047806C704770477047704710B5C9
:1023B0000821044621F05AFE204610BD10B54C21DC
:1023C000044621F053FE204610BD10B54FF4807135
:1023D000044621F04BFE204610BD08B5FFF75EF81D
:1023E00008BD0000036870B55E6B124B1B680446A5
:1023F0008DB22BB9104B114A6C21114822F072FD9D
:102400001049828D0988914203D80F4B0B4A6D21E8
:10241000F3E713F812200D4B1B6853F822000368F2
:102420001B6B9847291A3346204609B2BDE8704015
:10243000184700BFD035012075660208B76602084C
:10244000F2660208D435012039670208D835012028
:1024500000224FF0FF31C0E9002182607047000088
:10246000074A02600022C0E90122C0E90322C0E954
:102470000522C0E907224FF480728284704700BFB2
:102480007085020870B5036804461B6B15469847B3
:102490002368294620465B6BBDE870401847000062
:1024A00010B526220446002122F08FFF2046FFF7B8
:1024B000D7FF0A4B23600A4BA3624FF6FF73A38535
:1024C0004FF47F020023C4E90C3223874FF0FF3220
:1024D000C4E91023E363204610BD00BF388302081F
:1024E0007C7502082DE9F047044686B02646002593
:1024F000FFF7B6FF524BA56246F82C3B2946262231
:10250000304622F062FF3046FFF7AAFF4D4BE362F0
:1025100004F15808FF2384F8523004F1A0076565E0
:102520004046FFF7BDFF3846FFF7BAFF464BC4F8F9
:10253000A030464BA3602A4629463046C4F8E850EE
:10254000FFF7A0FF30462D21FEF7F2FE30461E2198
:10255000FEF7F0FE4FF0FF3363653146204608F08A
:10256000BDFD6E462A46092140464FF07F4AFFF7DF
:1025700089FFA4F88C5041463046C4F888A00BF07F
:10258000C7FD96E8070004F1940383E80700DFF82D
:10259000E090CDF81090092304A94046ADF814301E
:1025A0000CF05EF84146204608F098FD11220B2100
:1025B0003846FFF767FFD4F8A030A4F8D450D3F81A
:1025C0008430C4F8D0A039463046984796E80700D2
:1025D00004F1DC0383E807001D4B1B6804F1EC05E4
:1025E0002BB91C4B1C4A60211C4822F07BFC1C4B65
:1025F0001B880B2B03D81B4B174A6121F4E71A4B9E
:102600000B21186802F01CFC184A03460A212846D0
:1026100012F0D5FB3846C4F8E8500CF001F8082356
:1026200004A93846ADF81430CDF810900CF018F825
:102630002046394608F052FD204606B0BDE8F08736
:102640001C760208C88302088C7502082D001E0043
:10265000D03501207566020877670208F266020825
:10266000D435012039670208DC350120C267020831
:102670007C75020800487047A8760208022070475F
:1026800013B5002451B1036801948DF8034001AAE9
:102690009C680DF10303A04702B010BD0846FBE79C
:1026A000C0897047008A7047C0887047808870472B
:1026B000807A00F07F007047807AC0097047002060
:1026C000704700009FED010A704700BF0000000046
:1026D0007047704700F598730868496803C37047EE
:1026E000704770474160704770477047064BC0F8AD
:1026F0004C310023C0F8503100F5A273C0F84801F6
:10270000C0F84031704700BFA932000801230372AE
:102710007047704770477047704770477047704701
:1027200038B5054640680368DB699847044604B934
:1027300038BDA188AB89C91A236820461B6B09B232
:102740009847A469F3E710B4C2684168541003467F
:1027500001EB6200D20748BF0A599B685DF8044B41
:1027600048BFD35818470346406830B19A681AB931
:10277000D86800F0010070470120704710B514219F
:10278000044621F073FC204610BD10B50C21044610
:1027900021F06CFC204610BD10B51021044621F03C
:1027A00065FC204610BD10B51021044621F05EFCEA
:1027B000204610BD10B54FF4AE71044621F056FC12
:1027C000204610BD10B54021044621F04FFC2046A4
:1027D00010BD10B50EF0D8FD0368BDE81040DB6BEE
:1027E000184710B50EF0D0FD0368BDE810405B6BD4
:1027F0001847000070B50446B2B01E49C02202A8B6
:1028000022F0E1FE237C2F2B03D90123237232B067
:1028100070BD33B9184B1B781BB10EF0B5FD0EF02F
:10282000B9FD0225237C302BF1D832AA02EB8303B9
:10283000E68953F8C03C608993FBF6F206FB12333D
:1028400013FB00F3ADF804006068A189ADF8003017
:102850000368ADF8061012FB01F21B69ADF8022007
:1028600069469847237C012D03F101032374CED0E0
:102870000125D7E77C6002087635012037B505468B
:10288000807A6B7A0130C0B29842A87205D90123D0
:102890002B720023AB7203B030BDB5F90C20B5F933
:1028A0000E40002110F04EFFC30707D500284FF659
:1028B000FF73C8BF012313FA80F000B2AB7AE8813E
:1028C000041B012BA4B206D1174B1B781BB10EF0D1
:1028D0005BFD0EF05FFD154A00231288ADF8023053
:1028E000EB891A445B42ADF80430114BADF800207F
:1028F0001B88ADF806300EF047FD036802AA12E906
:1029000006001B6C984768680368DB6998470546B2
:10291000002DC0D0A9882B68214428461B6B09B222
:102920009847AD69F4E700BF763501206C3501208A
:102930006E350120054B1B7801462BB1406818B15C
:1029400003680C315B6E1847704700BF7735012074
:10295000037A70B50546BBB940680368DB699847E0
:1029600004463CB96868036805F10C011B6EBDE8BC
:1029700070401847A1886B8FC91A236820461B6BCB
:1029800009B29847A469ECE770BD10B50446D0F8C9
:10299000400158B10368DB68984738B1D4F840016A
:1029A00003689B6898470023C4F8403110BD70B598
:1029B000044690F8390094F838300130C0B298429B
:1029C00084F8390005D901232372002384F83930B3
:1029D00070BDB4F93A20002110F0B4FEC30706D54B
:1029E00000284FF6FF73C8BF0123184400B2238AA2
:1029F000C01AA08760680368DB69984705462DB94F
:102A000060680368BDE870405B691847A988A38FB8
:102A100019442B6828461B6B09B29847AD69EEE74D
:102A20002DE9F14FD0E9556A0746B06803681B6A83
:102A30009847B0F5D87F05D2564B574AA32157483F
:102A400022F050FA706803681B6A98470F2803D871
:102A5000534B514AA421F2E7F06803681B6A984778
:102A60003F2803D84F4B4C4AA521E8E70EF08CFCD9
:102A7000DFF8449104300EF0D4FCD9F8000010B116
:102A80000368DB689847D9F8000010B103681B6839
:102A90009847DFF82881D8F8000010B103685B6917
:102AA0009847D7F83C0110B103685B689847D8F89D
:102AB000000010B103681B689847D7F83C0110B1BB
:102AC00003689B689847F068036800215B6A984731
:102AD00005460023344A4360037245F80C2B044634
:102AE00028460BF015FA14222287304A1278002368
:102AF000A387002A35D101232372B068036800211F
:102B00005B6A9847054602F0EDFB70680368002198
:102B10005B6A98472946064602F0C2FB331DC7F898
:102B20003C61C9F80040C8F80050CAF800302B6872
:102B3000C6F808A02846DB68EE639847336830463D
:102B40001B6898472146284610F0F6FD236820466A
:102B50001B69984723685B69204601B0BDE8F04FC8
:102B600018471349134AB1F900B0E16823612846B8
:102B70008B6BB2F900109847E3685946DB6B284627
:102B8000984728460BF03FF90A4A13885B4263874F
:102B9000B3E700BFC5670208536802084669020828
:102BA0008D690208306A0208B07702087735012083
:102BB0006E3501206C350120C0350120BC35012067
:102BC000044B1B6893F858200AB1D86C00B9986878
:102BD000704700BF78350120F8B5174604460E4609
:102BE0000EF0BCFC124B1C60124B2360124B0025F4
:102BF000C4E95135114BC4E95355186803680121E4
:102C00009B68C4E94F55C4E955769847284602F0B9
:102C1000DBF8FFF7D5FF19F026F9FFF7D1FF19F020
:102C20009DF9FFF7CDFF19F0A5F92046F8BD00BFCB
:102C3000CC350120F0760208D876020878350120DC
:102C4000064BC0F84C310023C0F8503100F5A27398
:102C5000C0F84801C0F84031704700BF692E000835
:102C6000064BC0F84C310023C0F8503100F5A27378
:102C7000C0F84801C0F84031704700BF212A000861
:102C8000064BC0F84C310023C0F8503100F5A27358
:102C9000C0F84801C0F84031704700BFA9320008B1
:102CA000064BC0F84C310023C0F8503100F5A27338
:102CB000C0F84801C0F84031704700BF313100080A
:102CC000064BC0F84C310023C0F8503100F5A27318
:102CD000C0F84801C0F84031704700BFD52F000848
:102CE000064BC0F84C310023C0F8503100F5A273F8
:102CF000C0F84801C0F84031704700BF092D0008F6
:102D000003685B6A184700002DE9F14FD0E9556A66
:102D10000746B06803681B6A984740F67B239842D1
:102D200005D8484B484AA321484822F0DBF8706890
:102D300003681B6A98470F2803D8454B424AA421D1
:102D4000F2E7F06803681B6A98470F2803D8414BE5
:102D50003D4AA521E8E70EF017FBDFF804910430A7
:102D60000EF05FFBD9F8000010B10368DB689847EC
:102D7000D9F8000010B103681B689847DFF8E480B9
:102D8000D8F8000010B103685B699847D7F83C0198
:102D900010B103685B689847D8F8000010B1036869
:102DA0001B689847D7F83C0110B103689B689847A7
:102DB000F0680021FFF7A4FF274B03604FF4A053F6
:102DC0000381264B1B884FF0000B80F80AB05B4252
:102DD0000446C0F804B0A0F80EB08381B068036860
:102DE00059465B6A9847054602F0A0FE7068036882
:102DF00059465B6A98472946064602F075FE331D20
:102E0000C7F83C61C9F80040C8F80050CAF8003063
:102E10002B68C6F808A02846DB68EE63984733683D
:102E200030461B6898472146284610F085FC2368E9
:102E300020461B69984723685B69204601B0BDE8BE
:102E4000F04F1847C5670208D36A020846690208AE
:102E50008D690208306A02088C7702086C350120FF
:102E6000C0350120BC3501202DE9F14FD0E9556A6C
:102E70000746B06803681B6A984740F62773984274
:102E800005D8484B484AA321484822F02BF87068DF
:102E900003681B6A98470F2803D8454B424AA42170
:102EA000F2E7F06803681B6A98470F2803D8414B84
:102EB0003D4AA521E8E70EF067FADFF804910430F7
:102EC0000EF0AFFAD9F8000010B10368DB6898473C
:102ED000D9F8000010B103681B689847DFF8E48058
:102EE000D8F8000010B103685B699847D7F83C0137
:102EF00010B103685B689847D8F8000010B1036808
:102F00001B689847D7F83C0110B103689B68984745
:102F1000F0680021FFF7F4FE274B03604FF4A05345
:102F20000381264B1B884FF0000B80F80AB05B42F0
:102F30000446C0F804B0A0F80EB08381B0680368FE
:102F400059465B6A9847054602F016FA70680368AE
:102F500059465B6A98472946064602F0DDF9331D5B
:102F6000C7F83C61C9F80040C8F80050CAF8003002
:102F70002B68C6F808A02846DB68EE6398473368DC
:102F800030461B6898472146284610F0D5FB236839
:102F900020461B69984723685B69204601B0BDE85D
:102FA000F04F1847C5670208BC6B02084669020863
:102FB0008D690208306A02088C7702086C3501209E
:102FC000C0350120BC35012003685B6A18470368DF
:102FD0005B6A18472DE9F14FD0E9556A0746B0689A
:102FE00003681B6A9847B0F54C7F05D2474B484AA7
:102FF000A321484821F076FF706803681B6A984750
:103000000F2803D8444B424AA421F2E7F068036832
:103010001B6A98470F2803D8404B3D4AA521E8E793
:103020000EF0B2F9DFF8009104300EF0FAF9D9F899
:10303000000010B10368DB689847D9F8000010B1B0
:1030400003681B689847DFF8E480D8F8000010B1E7
:1030500003685B699847D7F83C0110B103685B6867
:103060009847D8F8000010B103681B689847D7F854
:103070003C0110B103689B689847F0680021FFF796
:103080003FFE274B03604FF4A0530381254B1B8861
:103090004FF0000B5B4280F80AB00446838159462A
:1030A000C0F804B0A0F80EB0B068FFF78DFF054679
:1030B00003F0E2F859467068FFF789FF2946064693
:1030C00003F0B8F8331DC7F83C61C9F80040C8F8F0
:1030D0000050CAF800302B68C6F808A02846DB6804
:1030E000EE639847336830461B6898472146284668
:1030F00010F022FB236820461B69984723685B6910
:10310000204601B0BDE8F04F184700BFC567020870
:10311000A76C0208466902088D690208306A020835
:103120008C7702086C350120C0350120BC350120A8
:103130002DE9F047D0E955690546B06803681B6A78
:103140009847B0F54C7F05D24D4B4E4AA3214E48CF
:1031500021F0C8FE706803681B6A98470F2803D8DF
:103160004A4B484AA421F2E7F06803681B6A984773
:10317000132803D8464B434AA521E8E70EF004F98B
:10318000DFF8208104300EF04CF9D8F8000010B1BF
:103190000368DB689847D8F8000010B103681B6823
:1031A00098473C4F386810B103685B699847D5F879
:1031B0003C0110B103685B689847386810B1036838
:1031C0001B689847D5F83C0110B103689B68984785
:1031D000F068036800215B6A98470023436003722C
:1031E00003742D4B2D4A02601A882D4B1B889A427E
:1031F00004463DD9073206210533D208B3FBF1F36B
:1032000008219BB26281A381E181B0680021FFF7B0
:10321000DBFE824603F030F870680021FFF7D7FE2E
:103220005146064603F006F8331DC5F83C61C8F860
:103230000040C7F800A0C9F80030DAF80030C6F83E
:1032400008905046DB68CAF83C60984733683046BF
:103250001B6898472146504610F06EFA23682046B6
:103260001B699847236820465B69BDE8F04718470B
:10327000073305320621DB08B2FBF1F292B2C1E757
:10328000C5670208A26D0208466902088D69020836
:10329000306A0208BC3501206C35012068770208CD
:1032A0006E350120C03501202DE9F14FD0E9556A76
:1032B0000746B06803681B6A9847B0F54C7F05D293
:1032C000434B444AA321444821F00CFE7068036834
:1032D0001B6A98470F2803D8404B3E4AA421F2E7C7
:1032E000F06803681B6A98470B2803D83C4B394A9F
:1032F000A521E8E70EF048F8DFF8EC9004300EF076
:1033000090F8D9F8000010B10368DB689847D9F845
:10331000000010B103681B689847DFF8D080D8F828
:10332000000010B103685B699847D7F83C0110B101
:1033300003685B689847D8F8000010B103681B6801
:103340009847D7F83C0110B103689B689847F0682C
:10335000036800215B6A98474FF0000B214B036024
:1033600004465946C0F804B080F808B0B068FFF7CA
:103370002BFE054602F080FF59467068FFF727FED6
:103380002946064602F056FF331DC7F83C61C9F8CE
:103390000040C8F80050CAF800302B68C6F808A0F2
:1033A0002846DB68EE639847336830461B689847C9
:1033B0002146284610F0C0F9236820461B6998472B
:1033C00023685B69204601B0BDE8F04F184700BF95
:1033D000C56702088D6E0208466902088D690208F9
:1033E000306A020844770208C0350120BC3501204C
:1033F0007047704770477047704770477047704715
:10340000704790F82C304BB100F16C021268C26525
:103410003BB100F174031B680366704700F168025A
:10342000F4E700F17003F6E730B4C2684468551061
:10343000034604EB6200D20748BF62599B6830BC68
:1034400048BFD35818470346406830B19A681AB944
:10345000D86800F0010070470120704790F82D30C7
:1034600080F85A30704710B57821044620F0FEFDF0
:10347000204610BD10B51021044620F0F7FD20466F
:1034800010BD10B54FF4D871044620F0EFFD204672
:1034900010BD10B50446006B50B10368DB68984757
:1034A00030B1206B036821469B68BDE81040184787
:1034B00010BD0B7970B590F82C6004460D460BB921
:1034C00016B170BD002EFCD0B3FA83F35B0984F80B
:1034D0002C3023682046D3F88C3098472368204648
:1034E0005B699847002EECD02B79012BE9D123683A
:1034F0002046D3F88830BDE870401847E030884255
:1035000008B505D10DF040FFBDE80840FFF7C8BB86
:1035100008BD70B504461D46BDF91060FEF7B2FF48
:103520002368294620469B6B9847236831462046EE
:10353000DB6BBDE87040184710B526220446002119
:1035400021F043FF2046FEF78BFF044B2360FF234F
:1035500084F826300023A362204610BDC8830208E9
:103560002DE9F04F04468BB0264600250FF038FFBA
:10357000734BE56346F8403B04F16C0B304604F1B5
:103580009809FFF7D9FF5846FFF7D6FF04F1E00A84
:103590004846FEF785FF5046FEF762FF4FF47F4333
:1035A000A4F80C31012384F80431664BC4F8E030F0
:1035B00004F58A73C4F80851C4F8105118460393EF
:1035C000FFF7BAFF604BC4F814312A460398C4F8D9
:1035D00040512946C4E95255C4E95455A4F8445110
:1035E000FEF750FF04F5AC780399504607F076FDDE
:1035F0004046FEF755FF554BC4E96834544BC4E9C7
:103600006A354FF4A0732A46009329463046F023CA
:10361000FFF77FFF271D4FF07F43A36631463846F3
:1036200007F05CFD4FF4A0732A46009329465846E4
:10363000F023FFF76EFF474BC4F8943059463846E5
:1036400007F04CFD722248462621FEF71BFF04AE10
:103650004FF07F43C4F8C83049463046A4F8CC50F8
:103660000AF056FD96E8070004F1D40383E807004A
:10367000DFF8E8B0CDF820B00E2308A94846ADF831
:1036800024300AF0EDFF494638464FF0320907F082
:1036900025FD2A4629460398CDF800906E23FFF7B2
:1036A00038FF0523A4F844312B4BC4F8483103F507
:1036B0004C533333C4F84C31A3F5CC43663BC4F8C8
:1036C000503103F1331303F54C53C4F854315046D1
:1036D000FFF797FE04F5D073C4F81031A6226E23CD
:1036E0005046CDF800904121FFF713FF5146384670
:1036F00007F0F4FCB32240465421FEF7C3FE4FF01E
:103700007F43C4F8883141463046A4F88C510AF012
:10371000FFFC96E8070004F5CA7383E8070008A9D0
:103720004046CDF820B0ADF824500AF099FF384655
:10373000414607F0D3FC20460BB0BDE8F08F00BF38
:1037400088780208D477020830840208707802086A
:10375000FD3400083E54B0FF996600FF7C750208F6
:10376000406A7047806A704770478A880B8810B536
:10377000D20A4C88C1699BB251F8220043EA044343
:10378000184410BD10B50446BAB1107B68B1537B24
:10379000D27A1B0203F4E0631A43236A03EB820329
:1037A0001A888A4202D193F9020010BD05D8013867
:1037B00080B204330028F3D1F7E70020F5E710B515
:1037C0002C21044620F052FC204610BD30B58BB0B1
:1037D0000446BDF860500895BDF85C5007959DF80B
:1037E000505006959DF84C5005959DF8485004950D
:1037F0009DF8445003959DF8405002959DF83C502B
:103800000195BDF8385000950FF0F0FB064B236092
:10381000159BE361169B2362199B63621A9BA3624B
:1038200020460BB030BD00BFBC780208704770471F
:1038300030B4C26844685510034604EB6200D207F6
:1038400048BF62599B6830BC48BFD35818470346ED
:10385000406830B19A681AB9D86800F00100704722
:103860000120704710B51021044620F0FFFB2046D0
:1038700010BD10B5044600F5947002F086FD04F505
:10388000F07002F082FD04F5267002F07EFD04F572
:10389000547002F07AFD04F5816002F076FD04F5C3
:1038A000986002F072FD04F5AF6002F06EFD04F561
:1038B000C66002F06AFD04F5DD6002F066FD04F505
:1038C000F46002F062FD04F6580002F05EFD04F5BB
:1038D000116002F05AFD04F6C81002F056FD04F51E
:1038E000286002F052FD04F6383002F04EFD04F577
:1038F0003F6002F04AFD04F6A84002F0DDF804F64D
:10390000BC50BDE8104001F095BC00F1E0028A42D5
:1039100008B508D10368DB6A98470DF035FDBDE8AE
:103920000840FFF79DB908BDF8B5194B018F1B88FA
:103930008B4206462AD9174B1B682BB9164B174AE0
:1039400017486C2121F0CEFA13F81120154B1B6893
:1039500053F82250144B186801F072FA2B6807468E
:103960009B6B284698472B6804469B6C3946284633
:1039700098472B6814FB00F45B6A39462846984741
:10398000A4B223181BB2A6F84630F8BD0023FAE70C
:10399000D4350120D035012075660208B7660208CB
:1039A000F2660208D8350120DC35012010B5034B42
:1039B0000360044601F01AFB204610BD5C7F02083C
:1039C000294B10B50360294BC0F8BC3D044600F6F6
:1039D000BC50FEF7EAFC264BC4F8A83C04F6A8400D
:1039E00000F034FA04F53F60FFF7E0FF04F63830EA
:1039F000FFF7DCFF04F52860FFF7D8FF04F6C810D6
:103A0000FFF7D4FF04F51160FFF7D0FF04F658006C
:103A1000FFF7CCFF04F5F460FFF7C8FF04F5DD60A5
:103A2000FFF7C4FF04F5C660FFF7C0FF04F5AF6001
:103A3000FFF7BCFF04F59860FFF7B8FF04F581605D
:103A4000FFF7B4FF04F55470FFF7B0FF04F52670DC
:103A5000FFF7ACFF04F5F070FFF7A8FF04F59470D2
:103A6000FFF7A4FF204610BD3C790208687C0208DD
:103A70000C7E020810B50446FFF7A2FF20464FF463
:103A80006E6120F0F3FA204610BD10B50446FFF732
:103A90008DFF2046B82120F0E9FA204610BD000035
:103AA0002DE9F04F04469DB0A04600260FF098FC8B
:103AB000DC4BE66348F8403B04F16C0A4046FFF7F4
:103AC0003BFD5046FFF738FD4FF48073A4F8BC303F
:103AD000D54BC4F89830D54BC4F8C0304FF6FF73BF
:103AE00004F1E007A4F8C4304FF0FF324FF47F0335
:103AF000C4F8CC30C4E93626C4E92766C4E929668F
:103B0000C4E92B66C4E92D66C4F8C860A4F8D06087
:103B1000C4F8D46038460BF08BF804F59472104664
:103B2000039202F0B5FB04F5F0721046049202F025
:103B3000AFFB04F526721046059202F0A9FB04F5CE
:103B400054721046069202F0A3FB04F581621046FF
:103B5000079202F09DFB04F598621046089202F06D
:103B600097FB04F5AF621046099202F091FB04F551
:103B7000C66210460A9202F08BFB04F5DD62104625
:103B80000B9202F085FB04F5F46210460C9202F0F1
:103B90007FFB04F6580210460D9202F079FB04F503
:103BA000116210460E9202F073FB04F6C812104622
:103BB0000F9202F06DFB04F528621046109202F09D
:103BC00067FB04F638321046119202F061FB04F5EF
:103BD0003F621046129202F05BFB04F6A84204F624
:103BE000BC5B1046139201F04BFF584601F006FBF8
:103BF0008F4BC4F8D03E8F4BC4F8D83E4FF4A0731F
:103C00003246C4F8D44EC4F8DC6E314600934046C8
:103C1000F023251DFFF77DFC4FF07F43A36641464F
:103C2000284607F05BFAF0230093502231465046B5
:103C3000FFF76FFC804BC4F8943004F198095146AB
:103C4000284607F04BFA062248460D21FEF71AFCDB
:103C50007A4BC4F8C8300DF150080523A4F8CC30D5
:103C6000494640460AF054FA98E8070004F1D403A4
:103C700083E807006D4B1A931AA913234846ADF841
:103C80006C300AF0EDFC4946284607F027FA384622
:103C900025220D21FEF7F6FB1AAA19A901233846A1
:103CA000ADF86830ADF864600AF037FD1223A4F86F
:103CB00018313846FFF738FE614A4FF0FF33C4E948
:103CC000472304F56D63C4F808313946284607F0E8
:103CD00005FA039850223146FEF7D4FB0399284693
:103CE00007F0FCF9049850223C21FEF7CBFB049925
:103CF000284607F0F3F9059850227821FEF7C2FB19
:103D00000599284607F0EAF906985022B421FEF7F3
:103D1000B9FB0699284607F0E1F907988C2231464D
:103D2000FEF7B0FB0799284607F0D8F908988C22CF
:103D30003C21FEF7A7FB0899284607F0CFF9099820
:103D40008C227821FEF79EFB0999284607F0C6F9D8
:103D50000A988C22B421FEF795FB0A99284607F0B1
:103D6000BDF90B98C8223146FEF78CFB0B9928460B
:103D700007F0B4F90C98C8223C21FEF783FB0C999C
:103D8000284607F0ABF90D98C8227821FEF77AFB98
:103D90000D99284607F0A2F90E98C822B421FEF723
:103DA00071FB0E99284607F099F90F984FF482722B
:103DB0003146FEF767FB0F99284607F08FF91098F8
:103DC0004FF482723C21FEF75DFB1099284607F004
:103DD00085F911984FF482727821FEF753FB1199FF
:103DE000284607F07BF912984FF48272B421FEF74F
:103DF00049FB1299284607F071F91398062287218A
:103E0000FEF740FB1399284607F068F9062258464A
:103E1000B421FEF737FB2846594607F05FF92046E4
:103E200010E000BF3C790208388302087C75020864
:103E3000247902080B390008656E77FF1B6EE3FFDB
:103E40006767B5FF1DB0BDE8F08F00BF70477047D2
:103E500010B54FF48071044620F008F9204610BDDB
:103E60002DE9F047044686B026460025FEF7F8FA0D
:103E7000524BA56246F82C3B29462622304621F0BB
:103E8000A4FA3046FEF7ECFA4D4BE36204F1580811
:103E9000FF2384F8523004F1A00765654046FEF721
:103EA000FFFA3846FEF7FCFA464BC4F8A030464B02
:103EB000A3602A4629463046C4F8E850FEF7E2FAE5
:103EC00030462D21FDF734FA30461E21FDF732FA37
:103ED0004FF0FF3363653146204607F0FFF86E462A
:103EE0002A46062140464FF07F4AFEF7CBFAA4F857
:103EF0008C5041463046C4F888A00AF009F996E88B
:103F0000070004F1940383E80700DFF8E090CDF8A0
:103F100010900D2304A94046ADF814300AF0A0FB20
:103F20004146204607F0DAF812220B213846FEF708
:103F3000A9FAD4F8A030A4F8D450D3F88430C4F847
:103F4000D0A039463046984796E8070004F1DC03D4
:103F500083E807001D4B1B6804F1EC052BB91C4BD3
:103F60001C4A60211C4820F0BDFF1C4B1B880C2BF9
:103F700003D81B4B174A6121F4E71A4B0C21186830
:103F800000F05EFF184A03460A21284610F017FF8A
:103F90003846C4F8E8500AF043FB0A2304A938461F
:103FA000ADF81430CDF810900AF05AFB204639468F
:103FB00007F094F8204606B0BDE8F087747902084F
:103FC000C88302088C7502082D001E00D035012020
:103FD0007566020877670208F2660208D435012088
:103FE00039670208DC350120C26702087C750208C7
:103FF000704730B4C26844685510034604EB620051
:10400000D20748BF62599B6830BC48BFD358184795
:104010000346406830B19A681AB9D86800F00100C8
:1040200070470120704710B51021044620F01EF89B
:10403000204610BD10B50446E43001F03DFD04F506
:10404000FC7001F0F7F804F5727002F024FA04F540
:10405000906002F020FA04F5A76002F01CFA04F563
:10406000BE6002F018FA04F5D56002F014FA04F507
:10407000EC6002F010FA04F6180002F00CFA04F5F5
:104080000D6002F008FA04F68810BDE8104002F056
:1040900002BA6C30884208B505D10DF075F9BDE85B
:1040A0000840FEF70DBE08BD10B5034B0360044683
:1040B00000F0D4FE204610BDF07F02081B4B10B567
:1040C0000446036000F68810FFF7EEFF04F50D606C
:1040D000FFF7EAFF04F61800FFF7E6FF04F5EC60CF
:1040E000FFF7E2FF04F5D560FFF7DEFF04F5BE60E1
:1040F000FFF7DAFF04F5A760FFF7D6FF04F590603D
:10410000FFF7D2FF04F57270FFF7CEFF084BC4F83B
:10411000F83104F5FC70FEF748F92046054B40F8ED
:10412000E43FFFF793FE204610BD00BF207A02084F
:10413000687C02080C7E020810B50446FFF7BEFF3B
:1041400020464FF425611FF091FF204610BD10B5A9
:104150000446FFF7A9FF2046B8211FF087FF20463D
:1041600010BD00002DE9F04F044695B0A146002592
:104170000FF036F9C94BE56349F8403B04F16C0890
:104180004846FFF7D9F94046FEF76AF94FF47F43F6
:10419000A4F898304FF0010304F1A00A84F890309D
:1041A000BF4BE366C4F89450C4F89C505046FFF7E8
:1041B000C3F9BC4BC4F8A0302A4629465046C4E98E
:1041C0003555C4E93755C4F8CC50A4F8D050FEF7A3
:1041D00059F95146404606F081FF04F1E4031846C0
:1041E000029301F04DFC04F5FC731846039301F0B3
:1041F00005F804F5437304F54E77184604F5607B23
:104200000493FFF799F93846FEF74AF95846FEF746
:1042100047F904F572731846059302F0BFF804F5E8
:1042200090631846069302F0B9F804F5A7631846A0
:10423000079302F0B3F804F5BE631846089302F042
:10424000ADF804F5D5631846099302F0A7F804F514
:10425000EC6318460A9302F0A1F804F61803184616
:104260000B9302F09BF804F50D6318460C9302F0D3
:1042700095F804F6881318460D9302F08FF88A4BD0
:10428000C4F8403A894BC4F8483A4FF4A0732A4620
:10429000C4F8444AC4F84C5A294600934846F023CF
:1042A000261DFFF736F94FF07F43A3664946304697
:1042B0004FF0230906F012FF2A462946CDF8009058
:1042C00050464123FFF725F9794BC4F8D43003F564
:1042D0004C533333C4F8D830A3F5CC43663BC4F811
:1042E000DC3003F133134FF0050A03F54C53A4F807
:1042F000D0A0C4F8E0304046FFF783F804F524630B
:10430000C4F89C302A224123CDF800904046582121
:10431000FFF7FFF84146304606F0E0FE029806221D
:104320008721FEF7AFF80299304606F0D7FE0398D2
:104330000622B421FEF7A6F84FF0F00803993046A4
:1043400006F0CCFE0498CDF8008043465022294662
:10435000FFF7DFF8574BC4F834330499304606F0C2
:10436000BDFE062238460821FEF78CF80DF138090B
:10437000514BC4F86833A4F86CA33946484609F099
:10438000C7FE99E8070004F55D7383E80700DFF8CE
:104390002CA1CDF848A0032312A93846ADF84C3023
:1043A0000AF05EF93946304606F098FE3622584645
:1043B0006821FEF767F84FF07F43C4F8B0335946E1
:1043C0004846A4F8B45309F0A3FE99E8070004F5A1
:1043D0006F7383E807004FF0010312A95846ADF848
:1043E0004C30CDF848A00AF03BF95946304606F06B
:1043F00075FE059850222946FEF744F80599304687
:1044000006F06CFE502211460698FEF73BF806991E
:10441000304606F063FE07985022A021FEF732F8DE
:104420000799304606F05AFE0898A0222946FEF762
:1044300029F80899304606F051FE42460998294667
:10444000FEF720F80999304606F048FE0A98A022A7
:104450005021FEF717F80A99304606F03FFE424613
:104460000B985021FEF70EF80B99304606F036FEF9
:10447000A02211460C98FEF705F80C99304606F07C
:104480002DFE0D984246A021FDF7FCFF30460D9908
:1044900006F024FE204615B0BDE8F08F207A020811
:1044A000D477020830840208087A02089340000892
:1044B000996600FF656E77FF1B6EE3FF7C7502084F
:1044C0007047704770477047704790F82C304BB179
:1044D00000F16C021268C2653BB100F174031B6805
:1044E0000366704700F16802F4E700F17003F6E735
:1044F00030B4C26844685510034604EB6200D2072A
:1045000048BF62599B6830BC48BFD3581847034620
:10451000406830B19A681AB9D86800F00100704755
:104520000120704790F82D3080F85A30704710B550
:10453000782104461FF09AFD204610BD10B51021C9
:1045400004461FF093FD204610BD10B54FF44C718A
:1045500004461FF08BFD204610BD70B50D7990F814
:104560002C3004463DB93BB123682046D3F888304F
:10457000BDE8704018477BB1B5FA85F35B0984F854
:104580002C3023682046D3F88C3098472368204687
:104590005B699847002DE7D070BD00F19803994200
:1045A00070B504460D4603D10CF0EEFEFEF798FB05
:1045B00004F5C4739D4203D10CF0E6FEFEF740FB08
:1045C00004F588739D4205D123682046DB6ABDE867
:1045D0007040184770BD036880F82D10D3F89030F4
:1045E0001847000070B50446FDF73AFF4FF47F43CB
:1045F0002646A3850123002584F824300D4BA562AF
:10460000256346F8343B3046FEF796FF0A4B63635A
:104610002A4629463046C4E91A55C4E91C55256680
:10462000A4F86450FDF72EFF2046314606F056FDF3
:10463000204670BDD4770208308402082DE9F04F7F
:1046400004468FB0A04600250EF0CAFEC74BE563B6
:1046500048F8403B04F16C0A404604F19807FEF725
:104660006BFF5046FEF768FF3846FDF7F9FE4FF442
:104670007F43A4F8C430012304F1CC0984F8BC3092
:10468000BB4BC4F89830C4F8C050C4F8C850484672
:10469000FEF752FFB74BC4F8CC302A4629464846AD
:1046A000C4E94055C4E94255C4F8F850A4F8FC5098
:1046B000FDF7E8FE4946384606F010FD04F588731C
:1046C00018460293FFF78EFF04F5C4731846039350
:1046D000FFF788FF04F5007318460493FDF7E0FE2A
:1046E00004F5127318460593FDF7DAFE04F52473FA
:1046F00018460693FDF7D4FE04F536731846079363
:10470000FDF7CEFE9C4BC4E9C8349C4B4FF4A07B14
:10471000C4E9CA352A46CDF800B029464046F02300
:10472000261DFEF7F6FE4FF07F43A3664146304656
:1047300006F0D4FC2A46CDF800B029465046F023B6
:10474000FEF7E7FE4FF0FF334FF02F08C4F8943028
:104750005146304606F0C2FCCDF800802A46294674
:1047600048463023FEF7D5FEDFF820B2844B854A59
:1047700085494FF0050AC4E94032C4E9421B384676
:10478000A4F8FCA0FFF7A1FE04F548793846BB2148
:10479000FFF721FFC4F8C8903023CDF800804522F0
:1047A00038466021FEF7B5FE3946304606F096FCE5
:1047B0003023CDF800802A46294604F5A270FEF782
:1047C000A8FE6F4F6F4A70490298A4F874A1C4E91B
:1047D0005E72C4E9601BFEF714FE0298BB21FFF76E
:1047E000FAFE0298C4F840913023CDF80080CE2222
:1047F0006021FEF78EFE0299304606F06FFC3023F2
:10480000CDF800802A46294604F5DE70FEF781FEC9
:104810005C4A5D490398C4F8F071C4E97D21A4F8AD
:10482000ECA1C4F8FCB1FEF7ECFD0398BB21FFF747
:10483000D2FE30230398C4F8B8918922CDF80080C5
:104840006021FEF766FE0399DFF84481304606F0EA
:1048500045FC0498E0226E21FDF714FE08AF4FF0EE
:104860007F430499C4F830323846A4F8345209F032
:104870004FFC97E8070004F50F7383E807000498DE
:10488000CDF830800CA9ADF834A009F0E9FE049908
:10489000304606F023FC059857226E21FDF7F2FD05
:1048A0004FF07F430599C4F878323846A4F87C521B
:1048B00009F02EFC97E8070004F5217383E8070050
:1048C00006230598ADF834300CA9CDF8308009F0F6
:1048D000C7FE0599304606F001FC06989B226E2122
:1048E000FDF7D0FD4FF07F430699C4F8C03238463B
:1048F000A4F8C45209F00CFC97E8070004F53373E0
:1049000083E8070007230698ADF834300CA9CDF8EA
:10491000308009F0A5FE0699304606F0DFFB0798C7
:1049200017225021FDF7AEFD4FF07F430799C4F8E1
:1049300008333846A4F80C5309F0EAFB97E807005F
:1049400004F5457383E8070004230798ADF8343075
:104950000CA9CDF8308009F083FE3046079906F0A7
:10496000BDFB20460FB0BDE8F08F00BF087B0208FA
:10497000547A020830840208F07A02089B45000845
:10498000996600FFCC9900FF663300FF996633FFFC
:104990007C7502087047000030B5164D2C6814F085
:1049A00001048FB0BFF35B8F21D128461FF060FB5D
:1049B000E8B13F230993104B0893104B104911485D
:1049C0000A94CDE9064301220423CDE903320A23E8
:1049D00000930C22CDE90B44CDE901440594FEF788
:1049E000F5FE094820F09CFA28461FF04DFB0548CB
:1049F0000FB030BD942600205CA3020878A3020803
:104A0000709F020898260020954900087047000012
:104A100030B5164D2C6814F001048FB0BFF35B8FD6
:104A200021D128461FF024FBE8B13F230993104B06
:104A30000893104B104911480A94CDE9064301220E
:104A40000423CDE903320A2300931B22CDE90B4452
:104A5000CDE901440594FEF7B9FE094820F060FA5B
:104A600028461FF011FB05480FB030BDC4260020BA
:104A700060A302087CA3020818A00208C826002030
:104A80000D4A00087047000030B5164D2C6814F030
:104A900001048FB0BFF35B8F21D128461FF0E8FAE5
:104AA000E8B13F230993104B0893104B104911486C
:104AB0000A94CDE9064301220423CDE903320B23F6
:104AC00000930522CDE90B44CDE901440594FEF79E
:104AD0007DFE094820F024FA28461FF0D5FA054843
:104AE0000FB030BDF426002064A3020880A30208A2
:104AF00094A10208F8260020854A000870470000AB
:104B000030B5164D2C6814F001048FB0BFF35B8FE5
:104B100021D128461FF0ACFAE8B13F230993104B8E
:104B20000893104B104911480A94CDE9064301221D
:104B30000423CDE90332182300930522CDE90B4469
:104B4000CDE901440594FEF741FE094820F0E8F95B
:104B500028461FF099FA05480FB030BD24270020E1
:104B600068A3020884A30208DCA102082827002009
:104B7000FD4A00087047000030B5164D2C6814F04F
:104B800001048FB0BFF35B8F21D128461FF070FA6C
:104B9000E8B13F230993104B0893104B104911487B
:104BA0000A94CDE9064301220423CDE903321923F7
:104BB00000931022CDE90B44CDE901440594FEF7A2
:104BC00005FE094820F0ACF928461FF05DFA0548BB
:104BD0000FB030BD542700206CA3020888A3020840
:104BE00024A2020858270020754B000870470000D7
:104BF00030B5164D2C6814F001048FB0BFF35B8FF5
:104C000021D128461FF034FAE8B13F230993104B15
:104C10000893104B104911480A94CDE9064301222C
:104C20000423CDE903321A2300930522CDE90B4476
:104C3000CDE901440594FEF7C9FD094820F070F95B
:104C400028461FF021FA05480FB030BD8427002008
:104C500070A302088CA3020804A30208882700207E
:104C6000ED4B00087047000030B5164D2C6814F06D
:104C700001048FB0BFF35B8F20D128461FF0F8F9F5
:104C8000E0B13F230993104B0893104B1049114892
:104C90000A940122CDE906430423CDE90332082317
:104CA0000093CDE90B44CDE901440594FEF78EFD58
:104CB000094820F035F928461FF0E6F905480FB0FD
:104CC00030BD00BFB427002074A3020890A30208DF
:104CD0004CA30208B8270020654C0008002070474C
:104CE000002070470EB403B503AB002153F8042B2A
:104CF00001930DF0F9FB02B05DF804EB03B07047CF
:104D00000CB407B504AB53F8042B01930DF0ECFB86
:104D100003B05DF804EB02B070470000436C10B5BF
:104D2000044673B3038F2BB9184B194AC521194890
:104D300020F0D8F8C38E00EB43035B8C0BB30FF06D
:104D400086FA238F012B03D8134B144ACB21EEE7AD
:104D5000E28E531C9BB2092B194688BFA3F10A01AE
:104D600004EB410140F63F10498C814209D10A2BE6
:104D700004EB420228BF002304EB4303508C588409
:104D800051842046BDE810400FF064B9756F0208E9
:104D90007E6F020829700208737002088170020891
:104DA0000FF01FB910B586B002AC84E806001A46B1
:104DB0000AAB05930193099B00932146089B0BF0D6
:104DC00081FE06B010BD000038B518BB124B134869
:104DD0001C681349B4B1226822440260626822440C
:104DE0000A60A26814440F4B00221A8000F0CAF92E
:104DF000054600F0C5F90C4B1C600C4B1D600C4BBC
:104E0000188007E00B4B03600B4B0B600B4B1C68CF
:104E1000002CE8D138BD00BFF0270020E827002093
:104E2000E4270020EC270020D0350120D8350120D0
:104E3000D4350120E4A3020894A3020870A4020858
:104E4000044B1B6853F82100034B1B6803EB400025
:104E5000704700BFE4270020E82700207047704714
:104E600010B5B82104461FF001F9204610BD00001E
:104E70002DE9F041044688B027460025FDF7F0FAF9
:104E80004D4BA56247F82C3B29462622384620F098
:104E90009CFA3846FDF7E4FAFF2304F1600684F833
:104EA0005230464BE362294626226565A565A4F883
:104EB0005C50304620F089FA3046FDF7D1FA4FF6C3
:104EC000FF73A4F88C304FF47F03C4F894303C4B4C
:104ED00023664FF0FF33C4E928354FF05013A36029
:104EE000DFF80481C4F8905050232A46A4F8985063
:104EF000C4F89C50C4F8A8502946C4F888803846A5
:104F00000093FEF706FB2F4B6365A3F5BA03A3F6E8
:104F1000D823A3650323A4F85C303946204606F065
:104F2000DDF81B232122194600933046FEF7F1FAE3
:104F30004FF07F43C4F89030236EA4F8945002AD34
:104F40002846D3F884303146984795E8070004F1A5
:104F50009C0383E807001C4B1B6804F1AC052BB9CC
:104F60001A4B1B4A60211B481FF0BCFF1A4B1B88C1
:104F7000112B03D8194B164A6121F4E7184B112164
:104F80001868FFF75DFF174A0346052128460FF012
:104F900016FF022306A93046C4F8A850ADF81C300D
:104FA000CDF8188009F05CFB2046314606F096F8F3
:104FB000204608B0BDE8F081407B0208308402083A
:104FC0008C7502083D79D4FFD03501207566020842
:104FD00077670208F2660208D435012039670208B3
:104FE000DC350120C26702087C75020870477047F3
:104FF00010B5B82104461FF039F8204610BD000056
:105000002DE9F041044688B027460025FDF728FA2F
:105010004E4BA56247F82C3B29462622384620F005
:10502000D4F93846FDF71CFAFF2304F1600684F832
:105030005230474BE362294626226565A565A4F8F0
:105040005C50304620F0C1F93046FDF709FA4FF6C2
:10505000FF73A4F88C304FF47F03C4F894303D4BB9
:1050600023664FF0FF33C4E928354FF03C13A360AB
:10507000DFF80881C4F890503C232A46A4F89850E1
:10508000C4F89C50C4F8A85029463846C4F8888013
:105090000093FEF73EFA304B6365A3F5BA03A3F61F
:1050A000D823A36503233946A4F85C302046112792
:1050B00006F014F816221723132130460097FEF746
:1050C00028FA4FF07F43C4F89030236EA4F8945030
:1050D00002AD2846D3F884303146984795E807005A
:1050E00004F19C0383E807001C4B1B6804F1AC052A
:1050F0002BB91B4B1B4A60211B481FF0F3FE1B4BB7
:105100001B88112B03D81A4B164A6121F4E7194B5F
:1051100039461868FFF794FE174A034605212846CA
:105120000FF04DFE102306A93046C4F8A850ADF884
:105130001C30CDF8188009F093FA2046314605F06E
:10514000CDFF204608B0BDE8F08100BFD47B020847
:10515000308402088C7502083D79D4FFD0350120D7
:105160007566020877670208F2660208D4350120E6
:1051700039670208DC350120C26702087C75020825
:105180001420704700487047F427002010B5FFF73F
:105190003FFC0A4C2060FFF7EFFC6060FFF7FCFB70
:1051A000A060FFF725FDE060FFF75EFD2061FFF7DF
:1051B0006BFC6061FFF7A4FCA06110BDF427002028
:1051C00010B5002404600C6014601C6010BD000069
:1051D00010B5034B03600446FDF7E7F8204610BD09
:1051E000687C020810B50446FFF7F2FF20464FF432
:1051F0008A711EF03BFF204610BD000010B504462A
:10520000FDF770F9014B2360204610BD687C020851
:1052100010B50B460446064A142100F580700FF0C5
:10522000CEFD04F1A000BDE810400DF087BA00BF2C
:105230005371020810B50446FDF7B8F804F5807301
:10524000C4F8E83010BD704710B54FF4AE71044695
:105250001EF00CFF204610BD10B50446D0F85801D2
:1052600000F0F6FB2046BDE810400CF037B9000016
:1052700010B50446FDF7B0FC014B2360204610BD7D
:10528000FC7C0208704704387047704710B5102145
:1052900004461EF0EBFE204610BDA0F10400F5E729
:1052A00000228260024A026018324260C160704788
:1052B000507D02087047000010B5034B03600446A0
:1052C000FEF79DF8204610BD787D020810B5044613
:1052D000FFF7F2FF20464FF4D8711EF0C7FE2046BC
:1052E00010BD000010B50446FEF73AF9014B2360EB
:1052F000204610BD787D0208FEF782B8704704385A
:105300007047704710B5102104461EF0AFFE2046CE
:1053100010BDA0F10400F5E700228260024A02609D
:1053200018324260C1607047AC7D020870470000CF
:1053300010B5034B03600446FEF742FB204610BD48
:10534000D47D020810B50446FFF7F2FF204640F670
:1053500028711EF08BFE204610BD0000034B04494F
:105360001A68044801FB020018607047140000200E
:105370000D6619005FF36E3C10B50446FEF790FB16
:10538000244B23600023C4F8203FC4F8243F04F5D5
:105390009473C4F8E03E04F5F073C4F8E43E04F5F9
:1053A0002673C4F8E83E04F55473C4F8EC3E04F5E3
:1053B0008163C4F8F03E04F59863C4F8F43E04F544
:1053C000AF63C4F8F83E04F5C663C4F8FC3E04F5C8
:1053D000DD63C4F8003F04F5F463C4F8043F04F649
:1053E0005803C4F8083F04F51163C4F80C3F04F6F1
:1053F000C813C4F8103F04F52863C4F8143F04F63A
:105400003833C4F8183F04F53F63C4F81C3F204606
:1054100010BD00BFD47D020810B50446D0F8201F8F
:1054200000F6A84000F036FBD4F8241F04F6BC5068
:10543000BDE81040FFF7ECBE2DE9F04F044689B0FF
:1054400000F56E6A0027102200210DEB02001FF00C
:10545000BCFFBB000293D1464FF0010859F8040F7E
:1054600000F088FFD0B14E46C34656F8040D00F058
:1054700081FF5D4601900BF1FF3BE0B9D6E900509A
:1054800000F078FF0146284600F00CFF019A706892
:10549000114600F007FFBBF1000FE6D108F101084B
:1054A000B8F1040FDAD10137042F0AF1100ACAD17A
:1054B00009B0BDE8F08F029B6E1EF31804EB830B5E
:1054C000DBF8E00E00F056FF029B01901D4404EB58
:1054D0008505D5F8E00E00F04DFF019B8342DDD13C
:1054E00008AB03EB860656F8102C002AD6D1DBF861
:1054F000E00E039200F03EFF400083B21946DBF855
:10550000E00E019300F0CEFE039AD5F8E00E1146AE
:1055100000F0C8FE0123019A46F8103CD4F8203F61
:105520001344D4F8242FC4F8203F934288BFC4F812
:10553000243F2046FFF770FFB0E72DE9F04F044607
:1055400089B000F6EC6A0027102200210DEB020062
:105550001FF03BFFBB000293D1464FF0020859F801
:10556000040D00F007FFE0B14E46C3467068039695
:1055700000F000FF5D4601900BF1010BE0B90399CB
:105580007568086800F0F6FE0146284600F08AFEBD
:10559000019A56F8040B114600F084FEBBF1030F8C
:1055A000E4D1B8F10108DAD20137042F0AF1100A68
:1055B000CAD109B0BDE8F08F029B6E1CF31804EB52
:1055C000830BDBF8E00E00F0D5FE029B01901D443A
:1055D00004EB8505D5F8E00E00F0CCFE019B83427C
:1055E000DFD108AB03EB860656F8102C002AD8D181
:1055F000DBF8E00E039200F0BDFE400083B21946D6
:10560000DBF8E00E019300F04DFE039AD5F8E00EB2
:10561000114600F047FE0123019A46F8103CD4F8E9
:10562000203F1344D4F8242FC4F8203F934288BF6E
:10563000C4F8243F2046FFF7EFFEB2E72DE9F04F14
:10564000044687B000271022002102A81FF0BDFEEB
:1056500004EB87084FF00109D8F8F00E00F08AFE3D
:1056600008F11008D8B145464E46D5F8D00E00F0E6
:1056700081FEB2468346013EE0B9D5F8E00ED5F88A
:10568000D0AE00F077FE0146504600F00BFED5F894
:10569000E00E594600F006FE103D002EE5D109F15E
:1056A0000109B9F1040FD7D10137042FCBD107B0CD
:1056B000BDE8F08F0AF1FF36B50007EB860604EB74
:1056C0008606D6F8E00E00F055FE07EB8A0304EBE1
:1056D000830A8346DAF8E00E00F04CFE8345DED103
:1056E00005F118030DEB030B5BF8103C002BD6D132
:1056F000D6F8E00E019300F03DFE41008DB2D6F8E1
:10570000E00E294600F0CEFD019BDAF8E00E1946C6
:1057100000F0C8FD01234BF8103CD4F8203FD4F82A
:10572000242F2B449342C4F8203F88BFC4F8243F61
:105730002046FFF771FEB2E72DE9F04F044687B02F
:1057400000271022002102A81FF03FFE04EB87096A
:105750004FF00208D9F8000F00F00CFEE8B109F193
:1057600020054646D5F8F00E00F004FEB24683460A
:105770000136F8B9D5F8E00ED5F8F0AE00F0FAFD34
:105780000146504600F08EFDD5F8E00E594600F077
:1057900089FD032E05F11005E4D108F1FF38B8F1B9
:1057A000FF3FA9F11009D5D10137042FC9D107B0A6
:1057B000BDE8F08F0AF10106B50007EB860604EBA1
:1057C0008606D6F8E00E00F0D5FD07EB8A0304EB61
:1057D000830A8346DAF8E00E00F0CCFD8345DCD185
:1057E00005F118030DEB030B5BF8103C002BD4D133
:1057F000D6F8E00E019300F0BDFD41008DB2D6F861
:10580000E00E294600F04EFD019BDAF8E00E194645
:1058100000F048FD01234BF8103CD4F8203FD4F8A9
:10582000242F2B449342C4F8203F88BFC4F8243F60
:105830002046FFF7F1FDB0E708B50BF0A5FDBDE888
:105840000840FDF70DBA2DE9F041044600F6EC667C
:1058500000F62C77A6F1100555F8040F00F08AFD2C
:1058600010B3B542F8D105F11006BE42F2D104F5ED
:105870006E6400272646002556F8040B00F07AFDDA
:10588000032D80460BD1032F11D10135042DF3D107
:105890000137042F04F11004ECD1012005E0306839
:1058A00000F068FD8045EED10020BDE8F081F06891
:1058B00000F060FD8045E8D1F6E72DE9F0430026D1
:1058C000A1B0044600F6DC683546C146002759F809
:1058D000040F00F04FFD28B920AB03EBC50343E9EB
:1058E000206701350137042FF1D10136042E08F16C
:1058F0001008EAD1002D20DDFFF730FD20AAB0FB13
:10590000F5F303FB150302EBC30353E92065FFF72F
:1059100025FD05EB86050A2305F56E75B0FBF3F250
:1059200002FB1300002854F8250014BF02210421B3
:1059300021B0BDE8F04300F0B5BC2046FFF783FF7F
:1059400028B1204621B0BDE8F043FFF775BF21B074
:10595000BDE8F0830B7910B50446A3B9B1F9063060
:10596000002B0DDDFFF7E9FD2046FFF7A6FF2046DF
:10597000FFF769FF98B12046BDE81040FFF75CBF14
:10598000FFF75AFDF0E7012BF1D1B1F90630002BFA
:1059900002DDFFF7D1FEE7E7FFF750FEE4E710BDB9
:1059A000323910B5044606290AD8DFE801F0180993
:1059B000040912091500FFF73FFD2046FFF77DFFA0
:1059C0002046FFF740FF68B12046BDE81040FFF7D2
:1059D00033BFFFF7B2FDF0E7FFF730FEEDE7FFF76B
:1059E000ABFEEAE710BDF8B500210446C0F8201F61
:1059F000C0F8241F00F6A84000F04CF8D4F8241F8B
:105A000004F6BC50FFF704FC2046FFF705FD04F642
:105A1000DC6504F61C7705F1100655F8040F00212B
:105A200000F040FCB542F8D1AF42F4D1D4F8E00E1A
:105A3000022100F037FCD4F8E40E022100F032FC21
:105A40002046BDE8F840FDF714BF00220260704711
:105A50007047000010B5034B03600446FEF7F6F9EB
:105A6000204610BD0C7E020810B50446FFF7F2FF79
:105A700020464FF48A711EF0F9FA204610BD00004E
:105A800010B50446FEF7ECF9014B2360204610BD2B
:105A90000C7E020810B50B460446064A142100F598
:105AA00080700FF08CF904F1A000BDE810400CF0FC
:105AB00045BE00BF5371020810B50446FEF7C7F992
:105AC00004F58073C4F8E83010BD7047043870479F
:105AD000704710B5102104461EF0C8FA204610BDCC
