:020000040800F2
:10000000000003205D0600080D2200080F220008F2
:100010001122000813220008152200080000000029
:10002000000000000000000000000000F196000841
:1000300017220008000000008197000815900008B2
:10004000AD060008AD060008AD060008AD060008C4
:10005000AD060008AD060008AD060008AD060008B4
:10006000AD060008AD060008AD060008AD060008A4
:10007000AD060008AD060008AD060008AD06000894
:10008000AD060008AD060008AD060008AD06000884
:10009000AD060008AD060008AD060008AD06000874
:1000A000AD060008AD060008AD060008AD06000864
:1000B000AD060008AD060008AD060008AD06000854
:1000C000AD060008AD060008AD060008AD06000844
:1000D000AD060008AD060008AD060008AD06000834
:1000E000AD060008AD060008AD060008AD06000824
:1000F000AD060008AD060008AD060008AD06000814
:10010000AD060008AD060008AD060008AD06000803
:10011000AD060008AD06000819220008AD0600086B
:10012000AD060008AD060008AD060008AD060008E3
:10013000AD060008AD060008AD060008AD060008D3
:10014000AD060008AD060008AD060008AD060008C3
:10015000AD060008AD060008AD060008AD060008B3
:10016000AD060008AD060008AD060008AD060008A3
:10017000AD060008AD060008AD060008000000004E
:10018000AD060008AD060008AD060008AD06000883
:10019000AD060008AD060008AD060008AD06000873
:0C01A00025220008AD06000831220008EE
:1001B00010B5054C237833B9044B13B10448AFF3A1
:1001C00000800123237010BD800300200000000088
:1001D000B861020808B5034B1BB103490348AFF3EC
:1001E000008008BD0000000084030020B861020800
:1001F00001F0FF01102A2BDB10F0070F08D010F8D8
:10020000013B013A8B422DD010F0070F42B3F6D1DB
:10021000F0B441EA012141EA014122F007047FF0F4
:1002200000070023F0E80256083C85EA010586EA4B
:10023000010685FA47F5A3FA87F586FA47F6A5FA87
:1002400087F68EB9EED1F0BC01F0FF0102F0070293
:1002500032B110F8013B013A83EA010313B1F8D13E
:100260000020704701387047002D06BF354603381F
:10027000073815F0010F07D1013015F4807F02BF58
:10028000013015F4C03F0130F0BC0138704700BFA9
:100290007BB972B90029BEBF00204FF0004106E0D3
:1002A00008BF00281CBF6FF000414FF0FF3000F086
:1002B000D3B9ADF1080C6DE904CE002909DB002BA0
:1002C0001ADB00F04DF8DDF804E0DDE9022304B0AC
:1002D0007047404261EB4101002B1BDB00F040F80E
:1002E000DDF804E0DDE9022304B0404261EB4101A6
:1002F000524263EB43037047524263EB430300F007
:100300002FF8DDF804E0DDE9022304B0404261EBA0
:1003100041017047524263EB430300F021F8DDF8DE
:1003200004E0DDE9022304B0524263EB430370476B
:1003300053B94AB9002908BF00281CBF4FF0FF314C
:100340004FF0FF3000F088B9ADF1080C6DE904CE34
:1003500000F006F8DDF804E0DDE9022304B07047A0
:100360002DE9F047089D8E4604468846002B4AD169
:100370008A42174662D9B2FA82F64EB1C6F120031C
:1003800001FA06F820FA03F3B74043EA0808B4403C
:100390004FEA174E1FFA87FCB8FBFEF1230C0EFB49
:1003A000118843EA084301FB0CF29A4209D9FB1871
:1003B00001F1FF3080F0EA809A4240F2E780023992
:1003C0003B449A1AA3B2B2FBFEF00EFB102243EAA2
:1003D000024300FB0CFC9C4509D9FB1800F1FF32DD
:1003E00080F0D6809C4540F2D3803B44023840EAFE
:1003F0000140A3EB0C0300211DB1F3400022C5E92D
:100400000032BDE8F0878B4205D90DB1C5E9000186
:1004100000210846F5E7B3FA83F1002946D1734578
:1004200002D3824200F20581841A6EEB030201209E
:100430009046002DE5D0C5E90048E2E7002A00F02B
:100440009080B2FA82F6002E40F0A4808A1A030C43
:100450004FEA174E80B2BCB20121B2FBFEFC0EFB8C
:100460001C2243EA024304FB0CF29A4207D9FB1810
:100470000CF1FF3802D29A4200F2E080C4469B1A87
:10048000B3FBFEF20EFB123340EA034302FB04F41B
:100490009C4207D9FB1802F1FF3002D29C4200F2C5
:1004A000CA8002461B1B42EA0C40A5E7C1F12006A8
:1004B0008B4022FA06F71F430EFA01F420FA06F3E6
:1004C0002EFA06FE4FEA1749234300FA01F81FFAF5
:1004D00087FCBEFBF9F01C0C09FB10EE44EA0E444D
:1004E00000FB0CFEA64502FA01F209D93C1900F105
:1004F000FF3A80F09C80A64540F2998002383C4447
:10050000A4EB0E041FFA83FEB4FBF9F309FB1344BA
:100510004EEA044403FB0CFCA44508D93C1903F142
:10052000FF3E80F08280A4457FD9023B3C4443EAF1
:100530000040A4EB0C04A0FB02EC64457346E146CA
:1005400062D35FD05DB1B8EB030264EB090404FA37
:1005500006F622FA01F31E43CC40C5E900640021EF
:100560004FE7B1FBF2FC010C41EA0E4180B240EAD8
:1005700001423B4638463C46B846BE462026B1FBC3
:10058000F7F1A2EB080241EA0C4166E7014618E7E1
:1005900010462CE7C6F120022EFA02F3B740B14014
:1005A00020FA02F24FEA174E0A43B3FBFEF8BCB240
:1005B0000EFB1833110C41EA034108FB04F9B0406B
:1005C00089454FEA104380B23ED9791808F1FF3CC3
:1005D00001D289451FD8A1EB0901B1FBFEF909FB46
:1005E00004F80EFB191192B242EA0142424529D2A7
:1005F000BA1809F1FF31C4D24245C2D2A9F10201B1
:100600003A44BEE7F0459DD2BEEB02036CEB070C0B
:100610000138E14696E7A7EB09094944A8F1020C25
:10062000B1FBFEF909FB04F8DBE773467FE75046B0
:1006300066E70846FDE63B44023A33E7ACF1020CBC
:100640003B441CE749469CE7A1EB0901C446B1FBCA
:10065000FEF909FB04F8C4E7704700BFDFF834D0A7
:10066000002103E00C4B5B58435004310B480C4B0A
:1006700042189A42F6D30B4A02E0002342F8043BA8
:10068000094B9A42F9D306F047FA25F01FF801F01A
:1006900061F8704700000320F8960308000000206E
:1006A0006801002080030020C0420120FEE770475F
:1006B00008B500F0B9FDBDE8084000F03DBD00F010
:1006C000B5BD704710B50421044623F067FD2046F0
:1006D00010BD000038B50C4B0C4C18800C4B822020
:1006E00019806368984740F6110398420AD1094D72
:1006F00023682C60822098472B688220DB6898470B
:10070000002038BD0120FCE7A60300205000002097
:10071000A4030020A80300204FF4A071F020FFF7ED
:10072000D9BF0000F7B5394D2B6804461B698220FC
:100730009847208000284ED02B680DF106025B6997
:1007400001A982209847324B1B78002B4BD0BDF873
:10075000062040F674639A423FD9ADF80630BDF8E2
:1007600006209B1A9BB20A2B42D90B22B3FBF2F351
:10077000284A1288934201D9013A93B2BDF8042065
:10078000254840F6B8318A4234D8C2F571620E323B
:10079000016892B20F25B2FBF5F2204D2D88AA42D6
:1007A00084BF05F1FF35AAB28A4215468EB22AD916
:1007B000921B91B21A4E3768BB42BAB28CBF9A1ADA
:1007C000D21A92B211440529C4BF05603360036890
:1007D00063803368A38003B0F0BDB32A9CBFB4220A
:1007E000ADF80620BBE7BDF80630A3F5B473B9E752
:1007F0000023C3E7C2F56D62083292B20E2A016887
:10080000C8D800252A46891A89B2D3E7A803002050
:1008100068240020A4030020A0030020A6030020D9
:100820009C03002037B568460D461446FFF77AFF53
:10083000BDF8000030B1BDF802302B60BDF80430C7
:100840002360012003B030BD032821D8DFE800F089
:10085000020B12190F4B1A68B2FA82F252090421E4
:100860000D4806F0EDBB0B4B5A68B2FA82F2520902
:100870000821F5E7074B9A68B2FA82F25209102173
:10088000EEE7044BDA68B2FA82F252092021E7E778
:10089000704700BFAC03002000100240032821D89D
:1008A000DFE800F0020B12190F4B1A68003A18BF6C
:1008B000012204210D4806F0C3BB0B4B5A68003AD5
:1008C00018BF01220821F5E7074B9A68003A18BFC4
:1008D00001221021EEE7044BDA68003A18BF01222A
:1008E0002021E7E7704700BFAC0300200010024062
:1008F00003280DD8DFE800F00206080A04210548A5
:1009000006F0A3BB0821FAE71021F8E72021F6E75B
:10091000704700BF0010024008B5032811D8DFE877
:1009200000F0020A0C0E0421074806F083FB431E68
:100930005842584108BD0821F6E71021F4E720216C
:10094000F2E70020F3E700BF0010024070B5084D49
:1009500000240126E0B2FFF7DFFF18B12B68012B5E
:1009600018BF2E600134052C05F10405F2D170BDCD
:10097000AC030020012380F8781080F879307047AC
:100980007047002070470000034B4164003918BFD6
:1009900001211970704700BF7F350120704700208A
:1009A0007047836B0BB10846184770474FF6FF70CE
:1009B0007047406803689B691847704770477047E5
:1009C0007047704710B5044600F046FD23680349A0
:1009D000D3F890302046BDE810401847000000D002
:1009E00008B503680446D3F8843098472368204646
:1009F000DB6F984700F0ECF8236820465B6F984760
:100A0000292001F023F900F0E3F8236820465B6F0A
:100A10009847F8E710B504460BF060FC23682046C1
:100A2000D3F8BC30BDE81040184700F0F9BC00F026
:100A3000FDBC00F02FBD00F0CFBC00F03FBD00F0CA
:100A400047BD00F0D3BC0AF077BE10B58421044640
:100A500023F0A4FB204610BD10B590F8341090F898
:100A600078400C4B8C421A7809D03AB90A4A0B49A3
:100A70001488088810800C8001221A7010BD002A8A
:100A8000FCD0054A05491488088810800C80002293
:100A9000F3E700BF78350120743501207635012059
:100AA00070B50D46194635B9094B0A4A0A4840F255
:100AB000FF2124F0AFFAC0E90F52084B003A18BFEB
:100AC00001221A700368BDE87040D3F890301847CF
:100AD000E8620208206302086E6302087E35012086
:100AE00008B5094B1B888B4203D8084B1B889342DF
:100AF00005D9074B074A0848A32124F08BFA074B76
:100B00001980074B1A8008BD743501207635012005
:100B1000B3630208166402086E6302087A35012086
:100B20007C350120034690F87A0018B158680368B4
:100B30001B68184770470000012108B500220846CD
:100B400008F0F2FA0A4B186028B90A4B0A4A282121
:100B50000A4824F05FFA00220421012008F083FBF8
:100B6000074B186018B9074B034A2C21F0E708BD62
:100B7000C003002059640208A2640208D16402087C
:100B8000BC03002022650208024B4FF0FF311868B9
:100B900008F014BBC0030020014B186808F03ABBF2
:100BA000C0030020024B0021186808F007BB00BFFB
:100BB000C0030020FFF7F0BF03480449006800238A
:100BC0001A4608F08BBB00BFBC03002004000020C5
:100BD00013B5084C00231A4601A9206808F0AFFBA2
:100BE00020684FF0FF33002201A908F0A8FB02B0F3
:100BF00010BD00BFBC03002003685B6C18470120D8
:100C0000704703689B6A1847FEE740F2EF30704771
:100C1000054B0360054B4FF08062C3F88820BFF39B
:100C20004F8FBFF36F8F7047B474020800E100E08C
:100C300010B504464FF45A61FFF7EAFF204623F04F
:100C4000ADFA204610BD000082B0002301930E4B88
:100C50001A6B42F400021A631A6B02F4000201924A
:100C6000019A1A6942F400021A611A6922F4000218
:100C70001A61064B064A1A61064A5A61064B4FF042
:100C800080629A6002B0704700380240FC25002064
:100C9000E90E0008090C000800E100E008B50A2888
:100CA00009D8DFE800F006100E0808080810101038
:100CB0001000022008BD054B054A0648902124F08B
:100CC000A9F90020F6E70120F4E700BF64650208F7
:100CD0007F650208CA65020838B50C46887FFFF7B1
:100CE000DDFFA58AE28A164B2169586342EA054274
:100CF0005A64628BD963521B1A642568082D0ED181
:100D00009A611A615862207F0E4A42EA0062DA61F3
:100D1000E2681A620C4A5961D9601A6038BD002233
:100D2000D8611A61E1680A0A480902F4784200F4BD
:100D3000FC600243C1F3C4010A439A63034AECE72F
:100D400000B002400900010001230200012303005A
:100D500008B50B280BD8DFE800F00612100A0A0AC3
:100D60000A0808080808022008BD0520FCE7054B12
:100D7000054A06486F2124F04DF90020F4E70120D0
:100D8000F2E700BF6465020819660208CA65020836
:100D90002DE9F04191F81D800C464046FFF7D8FF41
:100DA000A77F05463846FFF7D3FF06463846FFF7CC
:100DB00075FFA18A628B444B521A1A649A61228B86
:100DC000521A1A61E28A586342EA01425A6421695E
:100DD0006268D963DA602068802828D0227F0FD823
:100DE000202867D0402865D004281AD0364B45EA21
:100DF000026545F40035B845DD6161D0334A44E011
:100E0000B0F5807F04D0B0F5007FEFD1304800E02E
:100E1000304840EA0262DA61E2681A625E62596151
:100E200032E045EA026242F40032DA61F6E7A06895
:100E3000021DDA62227F45EA026545F40035DD6174
:100E40005E625961017841B1012921D0224B234AC8
:100E500023484FF48D7124F0DDF8DA69418822F4DB
:100E60007F42013922F0100242EA0122DA610121B7
:100E7000154BDA6942F02002DA61DA699206FCD495
:100E800010229A600029B9D0164A1A60BDE8F08194
:100E9000B2F1FF01DA69408822F47F4200F1FF30AD
:100EA00022F0100242EA002242F0100218BF012193
:100EB000DA61DDE745EA0262034B42F40032B4E74F
:100EC00042F20132E1E700BF00B00240012301001D
:100ED000090002000A000200636602087D6602083B
:100EE000CA65020801230200024B1B6858680368A8
:100EF0005B6918478035012070B5044625460A4BCA
:100F00000C30002660602672667245F8203B602235
:100F100029460BF039FB04F55A63EE6024359D42F7
:100F2000FBD1204670BD00BFB4740208034B1A68A1
:100F3000D207FCD423229A60704700BF00B0024061
:100F40007047000030B50F4C2568ED07FCD4232511
:100F50000904A56041F001010225FF2B656361646E
:100F6000E0630AD00849656241EA0363E361074B25
:100F700022626061E060236030BDE561039BA36392
:100F8000034BF8E700B00240090001000100020035
:100F90000100030030B50E4C2568ED07FCD4232575
:100FA0001204A56042F001020225FF2B6563626412
:100FB000E063E16008D01B0643F00213E361054BD8
:100FC00065626061236030BD034BE3610123F9E793
:100FD00000B0024001000200020002FF30B50B4CDD
:100FE0002568ED07FCD4232512041B06A56043F4F5
:100FF0000033022542F0010265636264E063E16050
:10100000E361034B65626061236030BD00B0024064
:1010100001000200012070474020704700EB811062
:101020000830704700EB811008307047012070478E
:1010300040F62870704740F6287303FB0100083023
:10104000704740F6287303FB010008307047012009
:1010500070471020704700EB01100830704700EB1C
:10106000011008307047084601F016BE10B5034B5A
:10107000036004460AF0B7F8204610BD6C750208FC
:1010800010B50446FFF7F2FF2046482123F086F80A
:10109000204610BD10B5034B036004460AF0A3F8C8
:1010A000204610BD3875020810B50446FFF7F2FF60
:1010B00020464FF4736123F071F8204610BD000004
:1010C00010B5034B036004460AF08DF8204610BDAE
:1010D0000475020810B50446FFF7F2FF20461821F8
:1010E00023F05CF8204610BD10B5084B03600446A1
:1010F00000F65C70FFF7BAFF04F12C00FFF7CAFF9F
:1011000004F11400FFF7DCFF204610BDA0750208B3
:1011100008B50248FFF7E8FF08BD00BF9C12002099
:1011200010B50446FFF7E0FF204641F2041123F01A
:1011300035F8204610BD00002DE9F34101F0A6FA74
:10114000054601F0A7FA0024014623462846224618
:10115000009413F071FF274B274A1A60204603F0D2
:101160003FFE264D264B274A27489A6013F0CCFEB7
:101170002B68BFF35B8FDB0735D4284623F010F8CC
:1011800088B3224C224B236004F6A87604F11400A5
:1011900004F12C0804F65C776060C4F80880E7600E
:1011A00026610AF021F81B4B636140460AF01CF8E7
:1011B000194BE36238460AF017F8184BC4F85C3F45
:1011C00004F6A47004F0DAFC224604F6A47130465A
:1011D00004F05AF8304601F05FFD114823F038FF63
:1011E000284622F0E9FF0F4802B0BDE8F041FFF7C2
:1011F000E9BB00BFE435012048040020981200201C
:10120000680400204C040020080000209C120020EC
:10121000A075020804750208387502086C7502088A
:1012200011110008C4030020704700000148FFF7B7
:10123000D7BB00BFC403002070B5264E264C274DF7
:10124000274B23603046FFF757FE284618F0FAFF79
:10125000244811F0C1FB244B2448DC6000224FF4E9
:101260008071C3E9121222491A86C3E91A12214970
:1012700083F85820C3E91E011F49C3F880101F4995
:101280001F480B60F021C3E90422C3E90622C3E929
:101290000822C3E90A22C3E90E22C3E91022C3E9E6
:1012A0001422C3E917225A6683F870205A67C3E9EB
:1012B000016501801348018013484FF4A07101803B
:1012C0001248018012490A70012283F83420114A21
:1012D0001A6070BDF40400209412002068040020FD
:1012E000D86202084C040020C40300200000010161
:1012F00001000001000450001A0014008035012094
:10130000743501207A350120763501207C350120A5
:1013100078350120C87302080148FFF779BC00BF87
:10132000F40400200020704781807047C18070471E
:10133000018170474181704770477047704770471F
:10134000704710B4C4880368121B84885B6D091B46
:1013500012B25DF8044B09B218474FF6FF73838150
:101360004FF0FF3303621368C361106070470020C1
:1013700070478B88838001207047704780F8261063
:10138000704790F82600704710B50022B1F9084068
:10139000B1F90A10028042808480C18010BD002211
:1013A000028042808280C28070470177704780ED62
:1013B000080A704780F82410704780F8251070479D
:1013C00001207047983070478C30704784307047E8
:1013D0007047704770470000034B902283F85A23F0
:1013E00083F85823704700BF00E100E0094A0A492A
:1013F000D3680A48C3F30A03013B9BB20B8011690F
:10140000C1F30A01013901801364536B43F00103F6
:101410005363704700680140A2230020A0230020EE
:10142000014BD3F8AC00704700680140024B012229
:10143000C3F8AC105A6270470068014010B52C2107
:10144000044622F0ABFE204610BD10B5BC21044678
:1014500022F0A4FE204610BD70B504460AF0C1F982
:1014600023689D6E10F028F801462046A84723689F
:10147000054AD3F88C502046AC460023BDE87040A6
:10148000A2F51631604700BF00B004D00AF090B951
:101490000AF09AB90AF056B90AF0C5BA90F82520B0
:1014A00012B103685B691847704790F825201AB19C
:1014B00090F8242002B1186070470000034B4FF0F1
:1014C00080629A604FF080729A60704700E100E09D
:1014D000084B4FF08062C3F88820BFF34F8FBFF3F3
:1014E0006F8F4FF08072C3F88820BFF34F8FBFF328
:1014F0006F8F704700E100E070B50023124E8380CB
:10150000124B0360336893F8582005460AB1D86C33
:1015100000B998680368DB6A98473368B0FA80F4CA
:10152000D86C640930B10368DB6A9847002808BFAB
:1015300044F001042CB9064B064A07482C2123F03D
:1015400069FD284670BD00BF80350120B4750208D2
:10155000BB660208196702085267020870B5254E7B
:101560003568BFF35B8F15F0010540D1304622F09E
:1015700017FE00283BD0204C204B256104F134009D
:10158000C4E90035C4E90255E584A562A58511F0DA
:1015900008FD04F158000CF0ABFC194BA365204684
:1015A000184B40F8843BFFF7A7FF174BC4F8843073
:1015B0002433C4F88C304FF4C803C4E92835002321
:1015C000C4F8AC30C4F8B030C4F8B430C4F8B830A3
:1015D0000E480F4BC4F89050C4F89C50C4F8A85063
:1015E000C4F8983023F034FD304622F0E5FD02487F
:1015F00070BD00BFA4230020A82300207C83020824
:10160000D47502084C76020830830208D51300080E
:101610001083020838B5184C23685BB3174B184A7F
:101620001B6C11888B4216D1164B198806F010FBE3
:10163000236893F86A200025013283F86A2083F832
:101640007C50FFF7B9FA20680AF048FE2846BDE84A
:101650003840FFF7F9B806F0FBFA24682368204603
:101660001B6A9847012384F87C300020BDE838408D
:10167000FFF714B938BD00BF803501200068014074
:10168000A2230020A023002007B5064BADF80600DA
:101690001B68054801220DF1060107F079F803B037
:1016A0005DF804FB0C000020A824002008B564208D
:1016B00007F02EFDFBE7000030B595B010220021A9
:1016C0000AA823F02CFF1422002103A823F027FFEF
:1016D00000241E4B01941A6C42F080521A641B6C59
:1016E00003F080530193019B194B02941A6842F452
:1016F00040421A601B6803F4404302930122029B9C
:101700004FF48033CDE9082302254FF480030821EC
:10171000CDE90E534FF4B473CDE9101308A8042398
:101720001393129506F0ECFA06F0B0FA0F23CDE908
:1017300003354FF4A0504FF48053CDE90603052143
:1017400003A8059406F0B8FC15B030BD003802407F
:101750000070004080B59AB005F0ECF9FFF7ACFFDF
:10176000142200210DA823F0DAFE0024C84B0094B7
:101770001A6BC848C84DDFF8588342F010021A634C
:101780001A6B02F010020092009A01941A6B42F058
:1017900020021A631A6B02F020020192019A02944D
:1017A0001A6B42F080021A631A6B02F080020292F6
:1017B000029A03941A6B42F004021A631A6B02F045
:1017C00004020392039A04941A6B42F001021A6312
:1017D0001A6B02F001020492049A05941A6B42F00B
:1017E00002021A631A6B02F002020592059A06942D
:1017F0001A6B42F040021A631A6B02F04002069222
:10180000069A07941A6B42F008021A631B6B03F0E6
:101810000803224607933C210227079B05F010FC92
:1018200055239E480F970DA9CDE90D3405F01EFBF9
:1018300039469B48012205F003FC224698480421C2
:1018400005F0FEFB224697484FF4405105F0F8FBA7
:1018500001263C23CDE90D368E480F9403230DA9B4
:10186000109305F003FB8E480DA9CDE90D76CDE967
:101870000F4405F0FBFA042389480DA9CDE90D3684
:10188000CDE90F4705F0F2FA0DA94FF44053854812
:10189000CDE90D36CDE90F4705F0E8FA8248834BD4
:1018A000036005F0D9F9DFF82CE2814B2C62C5E921
:1018B00000E328464FF48043C5E90434C5E90244F7
:1018C000C5E9064405F0CAFD1021284606F00EF8C9
:1018D00021462846774D06F028F84FF48273C5E973
:1018E00000834FF400791823C5E9069328460A239C
:1018F000C5E90244C5E90444C5E90844AC62EB62A9
:1019000006F0EAFE8F232246394665488DF82430DA
:101910008DF8344005F094FB32464FF47A7309A9F0
:10192000284606F035FF4FF47A7332460DA9284653
:1019300007F0DAF83246394659485F4D05F080FB2A
:101940009DF83430D32B04BF5C4B1E705C4B0126DA
:10195000C5E90036102240230024C5E904234FF4D2
:10196000C073C5E906344FF40063C5E908344FF489
:10197000005302274FF00409AB624FF0030A07231C
:101980000DA92846CDE90D73CDE90F934FF0080856
:10199000C5E90249CDE911A7139706F081FD4FF67D
:1019A000FF7209A92846CDE90A86089409960C9485
:1019B00006F096FD304605F0E9F84FF6FF7209A9EA
:1019C0002846CDE90978CDE90B6406F089FD4FF68C
:1019D000FF7209A92846CDE909A8CDE90B9406F0C4
:1019E0007FFD4FF40C730893089B0C934FF6FF7226
:1019F00009A92846CDE909980B9606F071FD40F239
:101A00006A51284606F08AFD34220DEB0200214679
:101A100023F085FD2B4D2C4B2C61C5E900340923A7
:101A2000C5E905361D23C5E9073A40F20D1140F21C
:101A30004313C5E9091340F2171040F24713C5E9F3
:101A40000B032846C5E90244AC8685F8364006F00B
:101A500007F8FF214FF4806CF022CDE91214052124
:101A6000CDE914C14FF4A0730DA9CDE90E24CDE941
:101A7000164228462246154D1893CDE910370D948D
:101A8000ADF864408DF8664006F0B5F824E000BF7C
:101A90000038024000100240A8250020000002404B
:101AA00000080240000C02403C26002000300240AA
:101AB000A0860100A82400207424002068240020AF
:101AC000400100A00025002000680140642400209F
:101AD00000500140005C0040174B2B601B6898478A
:101AE0002B68164DDB689847154B2846C5E900342E
:101AF000C5E90274C5E90A47C5E90C4405F0BCF81C
:101B00003146284605F06EF9FEF7D2FDFEF7CFFD0F
:101B100007F08EFA0B4A0C48214607F0B5FA0B4B3A
:101B20000B4A186021460B4807F0AEFA0A4B1860C2
:101B300007F090FAFEE700BF18000020FC25002007
:101B400000B00240B4760208AD16000870240020F0
:101B500090760208BF0600086C240020704770478A
:101B60007FB5094B8DF817201B6802930DF1170202
:101B70000123009201930A460146044805F016FD30
:101B800007B05DF804FB00BF10000020A82500206E
:101B90007FB500238DF81730084B1B6802930A4667
:101BA00001230DF11701009101930146044805F04E
:101BB0008DFD9DF8170007B05DF804FB10000020B4
:101BC000A82500201FB5084C24680092CDE90134F7
:101BD0000A4601230146054805F078FD003818BF84
:101BE000012004B010BD00BF10000020A825002077
:101BF00004F0CCBF10B5064C00222046042105F0AD
:101C00001FFA20460122BDE81040042105F018BA51
:101C10000008024038B50B4D044601220A484FF433
:101C2000005105F00DFA00220421284605F008FABB
:101C30002046FFF729FD28460122BDE8384004214F
:101C400005F0FEB900080240000C024038B50B4D0B
:101C5000044600220A484FF4005105F0F1F9002231
:101C60000421284605F0ECF92046FFF70DFD284633
:101C70000122BDE83840042105F0E2B90008024025
:101C8000000C0240F7B5144E144F05460C46304682
:101C90000022042105F0D4F900224FF40051384607
:101CA00005F0CEF92846FFF7EFFC0D4B0D481B68F9
:101CB000224601A906F018FF384601224FF40051D0
:101CC000019C05F0BDF930460122042105F0B8F968
:101CD000204603B0F0BD00BF00080240000C0240E7
:101CE0000C000020A824002004F050BF0268034B21
:101CF0009A4201D104F038BF704700BF0010004085
:101D00007047000082B00E4B00220092596C41F4E3
:101D100080415964596C01F480410091009901920D
:101D2000196C41F0805119641B6C03F080530193CE
:101D3000019B0F216FF0010002B004F04DBF00BF06
:101D4000003802400268094B9A4282B00BD100234E
:101D50000193074B1A6B42F480521A631B6B03F416
:101D600080530193019B02B0704700BF00300240D6
:101D70000038024007B50F4B02689A4216D1002284
:101D8000A3F5F0430192196B41F4000119631B6B39
:101D900003F40003019305215A20019B04F01CFF6A
:101DA0005A2003B05DF804EB04F048BF03B05DF8BF
:101DB00004FB00BF00B002402DE9F043044689B0A7
:101DC0001422002103A823F0AAFB2268244B9A4284
:101DD00043D1244C244800250095236B43F0040391
:101DE0002363236B03F004030093009B0195236B93
:101DF00043F001032363236B03F001030193019B71
:101E00004FF012094FF400734FF001080327042626
:101E100003A9CDE90339CDE90587079605F026F832
:101E20004FF480731148079603A9CDE90339CDE932
:101E3000058705F01BF80295236C43F40003236427
:101E4000236C03F400030293029B236A43F4000310
:101E50002362236A23F40003236209B0BDE8F08300
:101E6000005C0040003802400008024000000240D0
:101E7000F0B599B004461422002107A823F04FFBC7
:101E800030220DEB0200002123F049FB22685E4B5B
:101E90009A4240F0B78008230C93C0231093042388
:101EA00012930CA84FF40033159306F0CDF908B146
:101EB000FFF726FF554B5648002400945A6C42F019
:101EC00080625A645A6C02F080620092009A019417
:101ED0001A6B42F020021A631A6B02F02002019280
:101EE000019A02941A6B42F001021A631A6B02F013
:101EF00001020292029A03941A6B42F002021A63E0
:101F00001A6B02F002020392039A04941A6B42F0D5
:101F100040021A631A6B02F040020492049A05947C
:101F20001A6B42F004021A631A6B02F00402059263
:101F3000059A06941A6B42F008021A631B6B03F0B1
:101F40000803069302250E26069B0B964FF480632A
:101F500007A9CDE90735CDE9094504F087FF41F62A
:101F600058032C480B9607A9CDE907350927CDE979
:101F7000094504F07BFF032327480B9707A9CDE908
:101F80000735CDE9094504F071FF4FF4706322482D
:101F90000B9607A9CDE90735CDE9094504F066FFA1
:101FA0004FF40C631D480B9607A9CDE90735CDE921
:101FB000094504F05BFFC02319480B9607A9CDE93A
:101FC0000735CDE9094504F051FF082315480B9664
:101FD00007A9CDE90735CDE9094504F047FF4FF4DE
:101FE000A0530E480B9707A9CDE90735CDE9094560
:101FF00004F03CFF58202246052104F0EDFD582056
:1020000004F01CFE19B0F0BD006801400038024029
:102010000014024000000240000402400018024088
:1020200000080240000C024010B5044688B014229B
:10203000002103A823F073FA2268144B9A4223D19B
:1020400003F56843002101915A6C114842F4801253
:102050005A645A6C02F480120192019A02911A6B2E
:1020600042F020021A631B6B03F020030293029BD1
:102070004FF4607202230321CDE903230523CDE948
:10208000061303A904F0F2FE08B010BD0050014091
:10209000001402402DE9F04186B0002303932B4B3E
:1020A0001C68002C4FD14FF00108C3F80080284B6A
:1020B00000949A6B274842EA08029A639B6B03EAF2
:1020C00008030093022703260C25009B01A94FF665
:1020D0003F03CDE90137CDE9046504F0C7FE1E4892
:1020E000059501A9CDE90187CDE9034604F0BEFEBF
:1020F00048F233131948059501A9CDE90137CDE917
:10210000034604F0B3FE4FF683731548059501A905
:10211000CDE90137CDE9034604F0A8FE4CF2037384
:102120001048059501A9CDE90137CDE9034604F032
:102130009DFE60230C48059501A9CDE90137CDE945
:10214000034604F093FE06B0BDE8F081442600206B
:10215000003802400014024000080240001802400B
:1021600000100240000C02400004024070B588B02C
:1021700000230293204B1A6C42F010021A641B6C6D
:1021800003F010030293054601A903A8029B06F081
:102190003DF8069B4BBB06F029F8184E184B3360F0
:1021A00040F2E733F360174BB0FBF3F3013B73608E
:1021B000304600233361B360B36106F065FE044628
:1021C00080B9304606F036FD044658B9362004F092
:1021D00035FD0F2D0DD822462946362004F0FCFC93
:1021E000094B1D60204608B070BD05F0FFFF4000A0
:1021F000D3E70124F6E700BF00380240482600205C
:102200000010004040420F00800000207047FEE7B1
:10221000FEE7FEE7FEE77047014806F049BD00BF54
:1022200048260020014805F089BC00BF0025002099
:10223000014804F04DBD00BFFC250020012070477F
:1022400008B523F03DFA162303604FF0FF3008BDB8
:1022500008B523F035FA16230360FEE770B50D4686
:1022600014460E46731B9C4201DC204670BDAFF342
:10227000008006F8010BF5E770B50D4614460E46D2
:10228000731B9C4201DC204670BD16F8010BAFF3B6
:102290000080F5E74FF0FF3070474FF400534B607C
:1022A0000020704701207047002070470A4A1168DB
:1022B00008B5034609B90949116010686946034425
:1022C0008B4206D923F0FCF90C2303604FF0FF305A
:1022D00008BD1360FCE700BF90260020C04201202B
:1022E000704708B5072921D8DFE801F004080C0C75
:1022F0001014181C02F052FF006808BD02F04EFFD7
:102300004068FAE702F04AFF8068F6E702F046FF0D
:10231000C068F2E702F042FF0069EEE702F03EFF1C
:102320004069EAE702F03AFF8069E6E70020E4E767
:1023300010B50421044621F031FF204610BD806A0B
:102340007047704730B5036885B06D460181D3F89A
:102350008430014604462846984795E807003C34F7
:1023600084E8070005B030BD30B5036885B06D4620
:102370004181D3F88430014604462846984795E8C1
:1023800007003C3484E8070005B030BD002202801D
:1023900042808280C280704780F83610704770B5E6
:1023A000036804461B6B1546984723682946204658
:1023B0005B6EBDE87040184700207047806C704726
:1023C00070477047704710B50821044621F0E6FEBB
:1023D000204610BD10B54C21044621F0DFFE2046FA
:1023E00010BD10B54FF48071044621F0D7FE204691
:1023F00010BD08B5FFF752F808BD0000036870B5BE
:102400005E6B124B1B6804468DB22BB9104B114A00
:102410006C21114822F0FEFD1049828D09889142FD
:1024200003D80F4B0B4A6D21F3E713F812200D4B25
:102430001B6853F8220003681B6B9847291A334620
:10244000204609B2BDE87040184700BFD8350120CA
:10245000C96702080B68020846680208DC350120DB
:102460008D680208E035012000224FF0FF31C0E9FD
:102470000021826070470000074A02600022C0E924
:102480000122C0E90322C0E90522C0E907224FF476
:1024900080728284704700BFE886020870B50368C6
:1024A00004461B6B154698472368294620465B6BFC
:1024B000BDE870401847000010B5262204460021F0
:1024C00023F02DF82046FFF7D7FF0A4B23600A4B75
:1024D000A3624FF6FF73A3854FF47F020023C4E984
:1024E0000C3223874FF0FF32C4E91023E363204608
:1024F00010BD00BFB0840208F47602082DE9F04751
:10250000044686B026460025FFF7B6FF524BA5626B
:1025100046F82C3B29462622304623F000F8304668
:10252000FFF7AAFF4D4BE36204F15808FF2384F83C
:10253000523004F1A00765654046FFF7BDFF3846FD
:10254000FFF7BAFF464BC4F8A030464BA3602A46BB
:1025500029463046C4F8E850FFF7A0FF30462D2149
:10256000FEF7E6FE30461E21FEF7E4FE4FF0FF3395
:1025700063653146204608F049FE6E462A46092129
:1025800040464FF07F4AFFF789FFA4F88C50414640
:102590003046C4F888A00BF053FE96E8070004F11B
:1025A000940383E80700DFF8E090CDF8109009234A
:1025B00004A94046ADF814300CF0EAF84146204634
:1025C00008F024FE11220B213846FFF767FFD4F8EC
:1025D000A030A4F8D450D3F88430C4F8D0A0394641
:1025E0003046984796E8070004F1DC0383E80700CB
:1025F0001D4B1B6804F1EC052BB91C4B1C4A6021D8
:102600001C4822F007FD1C4B1B880B2B03D81B4BCF
:10261000174A6121F4E71A4B0B21186802F01CFCE1
:10262000184A03460A21284612F061FC3846C4F8CD
:10263000E8500CF08DF8082304A93846ADF81430A2
:10264000CDF810900CF0A4F82046394608F0DEFDD5
:10265000204606B0BDE8F08794770208408502085E
:10266000047702082D001E00D8350120C967020832
:10267000CB68020846680208DC3501208D68020834
:10268000E435012016690208F47602080048704714
:10269000207802080220704713B5002451B1036866
:1026A00001948DF8034001AA9C680DF10303A04733
:1026B00002B010BD0846FBE7C0897047008A70472A
:1026C000C088704780887047807A00F07F0070472C
:1026D000807AC00970470020704700009FED010A12
:1026E000704700BF000000007047704700F5987306
:1026F0000868496803C37047704770474160704776
:1027000070477047064BC0F84C310023C0F8503179
:1027100000F5A273C0F84801C0F84031704700BF0F
:10272000C132000801230372704770477047704739
:10273000704770477047704738B505464068036872
:10274000DB699847044604B938BDA188AB89C91A2A
:10275000236820461B6B09B29847A469F3E710B4BD
:10276000C26841685410034601EB6200D20748BFBB
:102770000A599B685DF8044B48BFD3581847034675
:10278000406830B19A681AB9D86800F00100704703
:102790000120704710B51421044621F0FFFC2046AB
:1027A00010BD10B50C21044621F0F8FC204610BDE8
:1027B00010B51021044621F0F1FC204610BD10B5E3
:1027C0001021044621F0EAFC204610BD10B54FF45C
:1027D000AE71044621F0E2FC204610BD10B5402148
:1027E000044621F0DBFC204610BD10B50EF064FE5F
:1027F0000368BDE81040DB6B184710B50EF05CFEB7
:102800000368BDE810405B6B1847000070B50446D4
:10281000B2B01E49C02202A822F07FFF237C2F2BDA
:1028200003D90123237232B070BD33B9184B1B7822
:102830001BB10EF041FE0EF045FE0225237C302B2D
:10284000F1D832AA02EB8303E68953F8C03C6089D1
:1028500093FBF6F206FB123313FB00F3ADF8040012
:102860006068A189ADF800300368ADF8061012FB6E
:1028700001F21B69ADF8022069469847237C012DBF
:1028800003F101032374CED00125D7E7D0610208FC
:102890007E35012037B50546807A6B7A0130C0B2AB
:1028A0009842A87205D901232B720023AB7203B0A2
:1028B00030BDB5F90C20B5F90E40002110F0DAFF5B
:1028C000C30707D500284FF6FF73C8BF012313FACB
:1028D00080F000B2AB7AE881041B012BA4B206D1D0
:1028E000174B1B781BB10EF0E7FD0EF0EBFD154A00
:1028F00000231288ADF80230EB891A445B42ADF830
:102900000430114BADF800201B88ADF806300EF0F6
:10291000D3FD036802AA12E906001B6C9847686899
:102920000368DB6998470546002DC0D0A9882B684D
:10293000214428461B6B09B29847AD69F4E700BFF4
:102940007E3501207435012076350120054B1B783A
:1029500001462BB1406818B103680C315B6E184713
:10296000704700BF7F350120037A70B50546BBB9BB
:1029700040680368DB69984704463CB968680368A7
:1029800005F10C011B6EBDE870401847A1886B8FE4
:10299000C91A236820461B6B09B29847A469ECE763
:1029A00070BD10B50446D0F8400158B10368DB682B
:1029B000984738B1D4F8400103689B6898470023D2
:1029C000C4F8403110BD70B5044690F8390094F851
:1029D00038300130C0B2984284F8390005D901235B
:1029E0002372002384F8393070BDB4F93A200021F5
:1029F00010F040FFC30706D500284FF6FF73C8BF8D
:102A00000123184400B2238AC01AA08760680368B3
:102A1000DB69984705462DB960680368BDE87040DA
:102A20005B691847A988A38F19442B6828461B6B3C
:102A300009B29847AD69EEE72DE9F14FD0E9556A43
:102A40000746B06803681B6A9847B0F5D87F05D27F
:102A5000564B574AA321574822F0DCFA70680368A6
:102A60001B6A98470F2803D8534B514AA421F2E719
:102A7000F06803681B6A98473F2803D84F4B4C4ABD
:102A8000A521E8E70EF018FDDFF8449104300EF0C0
:102A900060FDD9F8000010B10368DB689847D9F8E9
:102AA000000010B103681B689847DFF82881D8F848
:102AB000000010B103685B699847D7F83C0110B17A
:102AC00003685B689847D8F8000010B103681B687A
:102AD0009847D7F83C0110B103689B689847F068A5
:102AE000036800215B6A984705460023344A436027
:102AF000037245F80C2B044628460BF0A1FA142269
:102B00002287304A12780023A387002A35D1012377
:102B10002372B068036800215B6A9847054602F09B
:102B2000EDFB7068036800215B6A984729460646FA
:102B300002F0C2FB331DC7F83C61C9F80040C8F879
:102B40000050CAF800302B68C6F808A02846DB6899
:102B5000EE639847336830461B68984721462846FD
:102B600010F082FE236820461B69984723685B6942
:102B7000204601B0BDE8F04F18471349134AB1F998
:102B800000B0E168236128468B6BB2F900109847CA
:102B9000E3685946DB6B2846984728460BF0CBF98B
:102BA0000A4A13885B426387B3E700BF19690208CA
:102BB000A76902089A6A0208E16A0208846B02089F
:102BC000287902087F3501207635012074350120EF
:102BD000C8350120C4350120044B1B6893F85820E8
:102BE0000AB1D86C00B99868704700BF80350120E1
:102BF000F8B5174604460E460EF048FD124B1C6011
:102C0000124B2360124B0025C4E95135114BC4E926
:102C100053551868036801219B68C4E94F55C4E9FE
:102C200055769847284602F0DBF8FFF7D5FF19F0F4
:102C3000B2F9FFF7D1FF19F029FAFFF7CDFF19F02C
:102C400031FA2046F8BD00BFD4350120687802086B
:102C50005078020880350120064BC0F84C31002323
:102C6000C0F8503100F5A273C0F84801C0F84031F7
:102C7000704700BF812E0008064BC0F84C3100237E
:102C8000C0F8503100F5A273C0F84801C0F84031D7
:102C9000704700BF392A0008064BC0F84C310023AA
:102CA000C0F8503100F5A273C0F84801C0F84031B7
:102CB000704700BFC1320008064BC0F84C310023FA
:102CC000C0F8503100F5A273C0F84801C0F8403197
:102CD000704700BF49310008064BC0F84C31002353
:102CE000C0F8503100F5A273C0F84801C0F8403177
:102CF000704700BFED2F0008064BC0F84C31002391
:102D0000C0F8503100F5A273C0F84801C0F8403156
:102D1000704700BF212D000803685B6A1847000058
:102D20002DE9F14FD0E9556A0746B06803681B6A80
:102D3000984740F67B23984205D8484B484AA32140
:102D4000484822F067F9706803681B6A98470F28A3
:102D500003D8454B424AA421F2E7F06803681B6A96
:102D600098470F2803D8414B3D4AA521E8E70EF0CC
:102D7000A3FBDFF8049104300EF0EBFBD9F8000060
:102D800010B10368DB689847D9F8000010B10368F8
:102D90001B689847DFF8E480D8F8000010B103689A
:102DA0005B699847D7F83C0110B103685B689847A6
:102DB000D8F8000010B103681B689847D7F83C01A9
:102DC00010B103689B689847F0680021FFF7A4FFE3
:102DD000274B03604FF4A0530381264B1B884FF011
:102DE000000B80F80AB05B420446C0F804B0A0F8BB
:102DF0000EB08381B068036859465B6A9847054600
:102E000002F02CFF7068036859465B6A98472946B0
:102E1000064602F001FF331DC7F83C61C9F80040C7
:102E2000C8F80050CAF800302B68C6F808A0284639
:102E3000DB68EE639847336830461B689847214645
:102E4000284610F011FD236820461B699847236827
:102E50005B69204601B0BDE8F04F184719690208C8
:102E6000276C02089A6A0208E16A0208846B020869
:102E70000479020874350120C8350120C4350120C9
:102E80002DE9F14FD0E9556A0746B06803681B6A1F
:102E9000984740F62773984205D8484B484AA321E3
:102EA000484822F0B7F8706803681B6A98470F28F3
:102EB00003D8454B424AA421F2E7F06803681B6A35
:102EC00098470F2803D8414B3D4AA521E8E70EF06B
:102ED000F3FADFF8049104300EF03BFBD9F8000060
:102EE00010B10368DB689847D9F8000010B1036897
:102EF0001B689847DFF8E480D8F8000010B1036839
:102F00005B699847D7F83C0110B103685B68984744
:102F1000D8F8000010B103681B689847D7F83C0147
:102F200010B103689B689847F0680021FFF7F4FE32
:102F3000274B03604FF4A0530381264B1B884FF0AF
:102F4000000B80F80AB05B420446C0F804B0A0F859
:102F50000EB08381B068036859465B6A984705469E
:102F600002F016FA7068036859465B6A984729466A
:102F7000064602F0DDF9331DC7F83C61C9F8004090
:102F8000C8F80050CAF800302B68C6F808A02846D8
:102F9000DB68EE639847336830461B6898472146E4
:102FA000284610F061FC236820461B699847236877
:102FB0005B69204601B0BDE8F04F18471969020867
:102FC000106D02089A6A0208E16A0208846B02081E
:102FD0000479020874350120C8350120C435012068
:102FE00003685B6A184703685B6A18472DE9F14F6D
:102FF000D0E9556A0746B06803681B6A9847B0F580
:103000004C7F05D2474B484AA321484822F002F89A
:10301000706803681B6A98470F2803D8444B424ADC
:10302000A421F2E7F06803681B6A98470F2803D8C9
:10303000404B3D4AA521E8E70EF03EFADFF800914B
:1030400004300EF086FAD9F8000010B10368DB688E
:103050009847D9F8000010B103681B689847DFF85B
:10306000E480D8F8000010B103685B699847D7F88E
:103070003C0110B103685B689847D8F8000010B1B4
:1030800003681B689847D7F83C0110B103689B6838
:103090009847F0680021FFF73FFE274B03604FF48D
:1030A000A0530381254B1B884FF0000B5B4280F837
:1030B0000AB0044683815946C0F804B0A0F80EB0A7
:1030C000B068FFF78DFF054603F06EF9594670684A
:1030D000FFF789FF2946064603F044F9331DC7F878
:1030E0003C61C9F80040C8F80050CAF800302B68AD
:1030F000C6F808A02846DB68EE6398473368304678
:103100001B6898472146284610F0AEFB23682046EE
:103110001B69984723685B69204601B0BDE8F04F02
:10312000184700BF19690208FB6D02089A6A020875
:10313000E16A0208846B02080479020874350120F0
:10314000C8350120C43501202DE9F047D0E9556983
:103150000546B06803681B6A9847B0F54C7F05D2F6
:103160004D4B4E4AA3214E4821F054FF706803682E
:103170001B6A98470F2803D84A4B484AA421F2E714
:10318000F06803681B6A9847132803D8464B434AE4
:10319000A521E8E70EF090F9DFF8208104300EF069
:1031A000D8F9D8F8000010B10368DB689847D8F860
:1031B000000010B103681B6898473C4F386810B195
:1031C00003685B699847D5F83C0110B103685B68F8
:1031D0009847386810B103681B689847D5F83C01D8
:1031E00010B103689B689847F068036800215B6A28
:1031F000984700234360037203742D4B2D4A0260ED
:103200001A882D4B1B889A4204463DD90732062165
:103210000533D208B3FBF1F308219BB26281A3818D
:10322000E181B0680021FFF7DBFE824603F0BCF8C5
:1032300070680021FFF7D7FE5146064603F092F86A
:10324000331DC5F83C61C8F80040C7F800A0C9F8B4
:103250000030DAF80030C6F808905046DB68CAF84B
:103260003C609847336830461B6898472146504673
:1032700010F0FAFA236820461B6998472368204615
:103280005B69BDE8F0471847073305320621DB08C4
:10329000B2FBF1F292B2C1E719690208F66E0208B8
:1032A0009A6A0208E16A0208846B0208C4350120A8
:1032B00074350120E078020876350120C8350120F8
:1032C0002DE9F14FD0E9556A0746B06803681B6ADB
:1032D0009847B0F54C7F05D2434B444AA32144485C
:1032E00021F098FE706803681B6A98470F2803D87E
:1032F000404B3E4AA421F2E7F06803681B6A9847F6
:103300000B2803D83C4B394AA521E8E70EF0D4F846
:10331000DFF8EC9004300EF01CF9D9F8000010B181
:103320000368DB689847D9F8000010B103681B6890
:103330009847DFF8D080D8F8000010B103685B69C7
:103340009847D7F83C0110B103685B689847D8F8F4
:10335000000010B103681B689847D7F83C0110B112
:1033600003689B689847F068036800215B6A984788
:103370004FF0000B214B036004465946C0F804B0DF
:1033800080F808B0B068FFF72BFE054603F00CF894
:1033900059467068FFF727FE2946064602F0E2FF0D
:1033A000331DC7F83C61C9F80040C8F80050CAF89E
:1033B00000302B68C6F808A02846DB68EE63984703
:1033C000336830461B6898472146284610F04CFA6F
:1033D000236820461B69984723685B69204601B033
:1033E000BDE8F04F184700BF19690208E16F0208F5
:1033F0009A6A0208E16A0208846B0208BC78020833
:10340000C8350120C43501207047704770477047A8
:103410007047704770477047704790F82C304BB139
:1034200000F16C021268C2653BB100F174031B68C5
:103430000366704700F16802F4E700F17003F6E7F5
:1034400030B4C26844685510034604EB6200D207EA
:1034500048BF62599B6830BC48BFD35818470346E1
:10346000406830B19A681AB9D86800F00100704716
:103470000120704790F82D3080F85A30704710B511
:103480007821044620F08AFE204610BD10B5102198
:10349000044620F083FE204610BD10B54FF4D871CD
:1034A000044620F07BFE204610BD10B50446006B9C
:1034B00050B10368DB68984730B1206B0368214640
:1034C0009B68BDE81040184710BD0B7970B590F8A7
:1034D0002C6004460D460BB916B170BD002EFCD011
:1034E000B3FA83F35B0984F82C3023682046D3F8C1
:1034F0008C309847236820465B699847002EECD0B3
:103500002B79012BE9D123682046D3F88830BDE818
:1035100070401847E030884208B505D10DF0CCFF67
:10352000BDE80840FFF7C8BB08BD70B504461D469E
:10353000BDF91060FEF7B2FF2368294620469B6B59
:103540009847236831462046DB6BBDE8704018473A
:1035500010B526220446002121F0E1FF2046FEF7A7
:103560008BFF044B2360FF2384F826300023A362E3
:10357000204610BD408502082DE9F04F04468BB06F
:10358000264600250FF0C4FF734BE56346F8403B29
:1035900004F16C0B304604F19809FFF7D9FF584647
:1035A000FFF7D6FF04F1E00A4846FEF785FF5046D4
:1035B000FEF762FF4FF47F43A4F80C31012384F837
:1035C0000431664BC4F8E03004F58A73C4F808513E
:1035D000C4F8105118460393FFF7BAFF604BC4F8C4
:1035E00014312A460398C4F840512946C4E952557B
:1035F000C4E95455A4F84451FEF750FF04F5AC78E3
:103600000399504607F002FE4046FEF755FF554B22
:10361000C4E96834544BC4E96A354FF4A0732A46B0
:10362000009329463046F023FFF77FFF271D4FF018
:103630007F43A3663146384607F0E8FD4FF4A07398
:103640002A46009329465846F023FFF76EFF474B62
:10365000C4F894305946384607F0D8FD72224846DF
:103660002621FEF71BFF04AE4FF07F43C4F8C8309D
:1036700049463046A4F8CC500AF0E2FD96E807002F
:1036800004F1D40383E80700DFF8E8B0CDF820B0F8
:103690000E2308A94846ADF824300BF079F84946C6
:1036A00038464FF0320907F0B1FD2A462946039803
:1036B000CDF800906E23FFF738FF0523A4F84431BE
:1036C0002B4BC4F8483103F54C533333C4F84C3119
:1036D000A3F5CC43663BC4F8503103F1331303F533
:1036E0004C53C4F854315046FFF797FE04F5D0739D
:1036F000C4F81031A6226E235046CDF80090412127
:10370000FFF713FF5146384607F080FDB3224046CD
:103710005421FEF7C3FE4FF07F43C4F88831414681
:103720003046A4F88C510AF08BFD96E8070004F5AA
:10373000CA7383E8070008A94046CDF820B0ADF869
:1037400024500BF025F83846414607F05FFD20462F
:103750000BB0BDE8F08F00BF007A02084C79020878
:10376000A8850208E8790208153500083E54B0FF24
:10377000996600FFF4760208406A7047806A7047D5
:1037800070478A880B8810B5D20A4C88C1699BB2F1
:1037900051F8220043EA0443184410BD10B5044612
:1037A000BAB1107B68B1537BD27A1B0203F4E06399
:1037B0001A43236A03EB82031A888A4202D193F9DF
:1037C000020010BD05D8013880B204330028F3D1BF
:1037D000F7E70020F5E710B52C21044620F0DEFCC9
:1037E000204610BD30B58BB00446BDF8605008953A
:1037F000BDF85C5007959DF8505006959DF84C50CB
:1038000005959DF8485004959DF8445003959DF802
:10381000405002959DF83C500195BDF838500095F8
:103820000FF07CFC064B2360159BE361169B236223
:10383000199B63621A9BA36220460BB030BD00BF88
:10384000347A02087047704730B4C2684468551033
:10385000034604EB6200D20748BF62599B6830BC44
:1038600048BFD35818470346406830B19A681AB920
:10387000D86800F0010070470120704710B5102192
:10388000044620F08BFC204610BD10B5044600F520
:10389000947002F012FE04F5F07002F00EFE04F5D2
:1038A000267002F00AFE04F5547002F006FE04F5DC
:1038B000816002F002FE04F5986002F0FEFD04F55E
:1038C000AF6002F0FAFD04F5C66002F0F6FD04F503
:1038D000DD6002F0F2FD04F5F46002F0EEFD04F6A6
:1038E000580002F0EAFD04F5116002F0E6FD04F66E
:1038F000C81002F0E2FD04F5286002F0DEFD04F6D7
:10390000383002F0DAFD04F53F6002F0D6FD04F62F
:10391000A84002F069F904F6BC50BDE8104001F07F
:1039200095BC00F1E0028A4208B508D10368DB6A61
:1039300098470DF0C1FDBDE80840FFF79DB908BDEF
:10394000F8B5194B018F1B888B4206462AD9174BB5
:103950001B682BB9164B174A17486C2121F05AFBEC
:1039600013F81120154B1B6853F82250144B18689C
:1039700001F072FA2B6807469B6B284698472B6824
:1039800004469B6C3946284698472B6814FB00F484
:103990005B6A394628469847A4B223181BB2A6F89A
:1039A0004630F8BD0023FAE7DC350120D835012088
:1039B000C96702080B68020846680208E035012062
:1039C000E435012010B5034B0360044601F01AFBF7
:1039D000204610BDD4800208294B10B50360294B46
:1039E000C0F8BC3D044600F6BC50FEF7EAFC264B8E
:1039F000C4F8A83C04F6A84000F034FA04F53F608F
:103A0000FFF7E0FF04F63830FFF7DCFF04F528602D
:103A1000FFF7D8FF04F6C810FFF7D4FF04F51160D4
:103A2000FFF7D0FF04F65800FFF7CCFF04F5F46071
:103A3000FFF7C8FF04F5DD60FFF7C4FF04F5C660BB
:103A4000FFF7C0FF04F5AF60FFF7BCFF04F5986017
:103A5000FFF7B8FF04F58160FFF7B4FF04F5547079
:103A6000FFF7B0FF04F52670FFF7ACFF04F5F07028
:103A7000FFF7A8FF04F59470FFF7A4FF204610BDE0
:103A8000B47A0208E07D0208847F020810B504467B
:103A9000FFF7A2FF20464FF46E6120F07FFB204627
:103AA00010BD10B50446FFF78DFF2046B82120F069
:103AB00075FB204610BD00002DE9F04F04469DB077
:103AC000A04600260FF024FDDC4BE66348F8403B9F
:103AD00004F16C0A4046FFF73BFD5046FFF738FD06
:103AE0004FF48073A4F8BC30D54BC4F89830D54B54
:103AF000C4F8C0304FF6FF7304F1E007A4F8C430F7
:103B00004FF0FF324FF47F03C4F8CC30C4E93626BF
:103B1000C4E92766C4E92966C4E92B66C4E92D66B1
:103B2000C4F8C860A4F8D060C4F8D46038460BF07C
:103B300017F904F594721046039202F041FC04F563
:103B4000F0721046049202F03BFC04F52672104617
:103B5000059202F035FC04F554721046069202F00C
:103B60002FFC04F581621046079202F029FC04F54F
:103B700098621046089202F023FC04F5AF621046EA
:103B8000099202F01DFC04F5C66210460A9202F08A
:103B900017FC04F5DD6210460B9202F011FC04F5EF
:103BA000F46210460C9202F00BFC04F65802104628
:103BB0000D9202F005FC04F5116210460E9202F01F
:103BC000FFFB04F6C81210460F9202F0F9FB04F551
:103BD00028621046109202F0F3FB04F638321046C9
:103BE000119202F0EDFB04F53F621046129202F0D2
:103BF000E7FB04F6A84204F6BC5B1046139201F002
:103C0000D7FF584601F006FB8F4BC4F8D03E8F4BD0
:103C1000C4F8D83E4FF4A0733246C4F8D44EC4F86A
:103C2000DC6E314600934046F023251DFFF77DFCF6
:103C30004FF07F43A3664146284607F0E7FAF0239A
:103C40000093502231465046FFF76FFC804BC4F87A
:103C5000943004F198095146284607F0D7FA062215
:103C600048460D21FEF71AFC7A4BC4F8C8300DF116
:103C700050080523A4F8CC30494640460AF0E0FA43
:103C800098E8070004F1D40383E807006D4B1A930A
:103C90001AA913234846ADF86C300AF079FD49465D
:103CA000284607F0B3FA384625220D21FEF7F6FB29
:103CB0001AAA19A901233846ADF86830ADF8646036
:103CC0000AF0C3FD1223A4F818313846FFF738FE76
:103CD000614A4FF0FF33C4E9472304F56D63C4F82C
:103CE00008313946284607F091FA039850223146A8
:103CF000FEF7D4FB0399284607F088FA049850226F
:103D00003C21FEF7CBFB0499284607F07FFA059883
:103D100050227821FEF7C2FB0599284607F076FA73
:103D200006985022B421FEF7B9FB0699284607F001
:103D30006DFA07988C223146FEF7B0FB07992846AA
:103D400007F064FA08988C223C21FEF7A7FB08993B
:103D5000284607F05BFA09988C227821FEF79EFB33
:103D60000999284607F052FA0A988C22B421FEF7E6
:103D700095FB0A99284607F049FA0B98C822314664
:103D8000FEF78CFB0B99284607F040FA0C98C822E6
:103D90003C21FEF783FB0C99284607F037FA0D9873
:103DA000C8227821FEF77AFB0D99284607F02EFAF3
:103DB0000E98C822B421FEF771FB0E99284607F031
:103DC00025FA0F984FF482723146FEF767FB0F9980
:103DD000284607F01BFA10984FF482723C21FEF738
:103DE0005DFB1099284607F011FA11984FF4827282
:103DF0007821FEF753FB1199284607F007FA12982D
:103E00004FF48272B421FEF749FB1299284607F05D
:103E1000FDF9139806228721FEF740FB13992846E7
:103E200007F0F4F906225846B421FEF737FB28467E
:103E3000594607F0EBF9204610E000BFB47A0208BB
:103E4000B0840208F47602089C7A0208233900083C
:103E5000656E77FF1B6EE3FF6767B5FF1DB0BDE8BA
:103E6000F08F00BF7047704710B54FF48071044663
:103E700020F094F9204610BD2DE9F047044686B0A5
:103E800026460025FEF7F8FA524BA56246F82C3B71
:103E900029462622304621F042FB3046FEF7ECFA56
:103EA0004D4BE36204F15808FF2384F8523004F1CB
:103EB000A00765654046FEF7FFFA3846FEF7FCFAB4
:103EC000464BC4F8A030464BA3602A4629463046EC
:103ED000C4F8E850FEF7E2FA30462D21FDF728FA43
:103EE00030461E21FDF726FA4FF0FF336365314659
:103EF000204607F08BF96E462A46062140464FF0D1
:103F00007F4AFEF7CBFAA4F88C5041463046C4F8FD
:103F100088A00AF095F996E8070004F1940383E875
:103F20000700DFF8E090CDF810900D2304A940467B
:103F3000ADF814300AF02CFC4146204607F066F933
:103F400012220B213846FEF7A9FAD4F8A030A4F8C3
:103F5000D450D3F88430C4F8D0A0394630469847BE
:103F600096E8070004F1DC0383E807001D4B1B689B
:103F700004F1EC052BB91C4B1C4A60211C4821F0B4
:103F800049F81C4B1B880C2B03D81B4B174A61218B
:103F9000F4E71A4B0C21186800F05EFF184A03463C
:103FA0000A21284610F0A3FF3846C4F8E8500AF06A
:103FB000CFFB0A2304A93846ADF81430CDF8109091
:103FC0000AF0E6FB2046394607F020F9204606B005
:103FD000BDE8F087EC7A0208408502080477020801
:103FE0002D001E00D8350120C9670208CB680208E1
:103FF00046680208DC3501208D680208E43501209E
:1040000016690208F4760208704730B4C268446842
:104010005510034604EB6200D20748BF62599B6803
:1040200030BC48BFD35818470346406830B19A683F
:104030001AB9D86800F0010070470120704710B528
:104040001021044620F0AAF8204610BD10B5044601
:10405000E43001F0C9FD04F5FC7001F0F7F804F557
:10406000727002F0B0FA04F5906002F0ACFA04F558
:10407000A76002F0A8FA04F5BE6002F0A4FA04F505
:10408000D56002F0A0FA04F5EC6002F09CFA04F6A8
:10409000180002F098FA04F50D6002F094FA04F6A4
:1040A0008810BDE8104002F08EBA6C30884208B526
:1040B00005D10DF001FABDE80840FEF70DBE08BDC0
:1040C00010B5034B0360044600F0D4FE204610BD3B
:1040D000688102081B4B10B50446036000F6881087
:1040E000FFF7EEFF04F50D60FFF7EAFF04F6180096
:1040F000FFF7E6FF04F5EC60FFF7E2FF04F5D5609B
:10410000FFF7DEFF04F5BE60FFF7DAFF04F5A760F6
:10411000FFF7D6FF04F59060FFF7D2FF04F5727049
:10412000FFF7CEFF084BC4F8F83104F5FC70FEF73A
:1041300048F92046054B40F8E43FFFF793FE204640
:1041400010BD00BF987B0208E07D0208847F020852
:1041500010B50446FFF7BEFF20464FF4256120F05E
:104160001DF8204610BD10B50446FFF7A9FF2046F4
:10417000B82120F013F8204610BD00002DE9F04FC3
:10418000044695B0A14600250FF0C2F9C94BE5637E
:1041900049F8403B04F16C084846FFF7D9F940461E
:1041A000FEF76AF94FF47F43A4F898304FF001030B
:1041B00004F1A00A84F89030BF4BE366C4F8945031
:1041C000C4F89C505046FFF7C3F9BC4BC4F8A0306C
:1041D0002A4629465046C4E93555C4E93755C4F83E
:1041E000CC50A4F8D050FEF759F95146404607F09C
:1041F0000DF804F1E4031846029301F0D9FC04F52C
:10420000FC731846039301F005F804F5437304F5B5
:104210004E77184604F5607B0493FFF799F938460A
:10422000FEF74AF95846FEF747F904F57273184647
:10423000059302F04BF904F590631846069302F0DB
:1042400045F904F5A7631846079302F03FF904F512
:10425000BE631846089302F039F904F5D563184691
:10426000099302F033F904F5EC6318460A9302F05F
:104270002DF904F6180318460B9302F027F904F5FC
:104280000D6318460C9302F021F904F688131846C2
:104290000D9302F01BF98A4BC4F8403A894BC4F8DD
:1042A000483A4FF4A0732A46C4F8444AC4F84C5A1A
:1042B000294600934846F023261DFFF736F94FF0B4
:1042C0007F43A366494630464FF0230906F09EFF20
:1042D0002A462946CDF8009050464123FFF725F99C
:1042E000794BC4F8D43003F54C533333C4F8D83089
:1042F000A3F5CC43663BC4F8DC3003F133134FF035
:10430000050A03F54C53A4F8D0A0C4F8E0304046A9
:10431000FFF783F804F52463C4F89C302A22412374
:10432000CDF8009040465821FFF7FFF8414630464F
:1043300006F06CFF029806228721FEF7AFF802997B
:10434000304606F063FF03980622B421FEF7A6F874
:104350004FF0F0080399304606F058FF0498CDF866
:104360000080434650222946FFF7DFF8574BC4F838
:1043700034330499304606F049FF062238460821B6
:10438000FEF78CF80DF13809514BC4F86833A4F8E6
:104390006CA33946484609F053FF99E8070004F535
:1043A0005D7383E80700DFF82CA1CDF848A0032354
:1043B00012A93846ADF84C300AF0EAF939463046D1
:1043C00006F024FF362258466821FEF767F84FF0C2
:1043D0007F43C4F8B03359464846A4F8B45309F0B3
:1043E0002FFF99E8070004F56F7383E807004FF08B
:1043F000010312A95846ADF84C30CDF848A00AF098
:10440000C7F95946304606F001FF05985022294663
:10441000FEF744F80599304606F0F8FE50221146A2
:104420000698FEF73BF80699304606F0EFFE07982F
:104430005022A021FEF732F80799304606F0E6FE3A
:104440000898A0222946FEF729F80899304606F078
:10445000DDFE424609982946FEF720F809993046C4
:1044600006F0D4FE0A98A0225021FEF717F80A9908
:10447000304606F0CBFE42460B985021FEF70EF870
:104480000B99304606F0C2FEA02211460C98FEF7AA
:1044900005F80C99304606F0B9FE0D984246A02169
:1044A000FDF7FCFF30460D9906F0B0FE204615B032
:1044B000BDE8F08F987B02084C790208A8850208B5
:1044C000807B0208AB400008996600FF656E77FFAD
:1044D0001B6EE3FFF4760208704770477047704721
:1044E000704790F82C304BB100F16C021268C26535
:1044F0003BB100F174031B680366704700F168026A
:10450000F4E700F17003F6E730B4C2684468551070
:10451000034604EB6200D20748BF62599B6830BC77
:1045200048BFD35818470346406830B19A681AB953
:10453000D86800F0010070470120704790F82D30D6
:1045400080F85A30704710B5782104461FF026FED7
:10455000204610BD10B5102104461FF01FFE204656
:1045600010BD10B54FF44C7104461FF017FE2046E5
:1045700010BD70B50D7990F82C3004463DB93BB1B3
:1045800023682046D3F88830BDE8704018477BB1D7
:10459000B5FA85F35B0984F82C3023682046D3F8FC
:1045A0008C309847236820465B699847002DE7D0F8
:1045B00070BD00F19803994270B504460D4603D1D1
:1045C0000CF07AFFFEF798FB04F5C4739D4203D10B
:1045D0000CF072FFFEF740FB04F588739D4205D195
:1045E00023682046DB6ABDE87040184770BD036849
:1045F00080F82D10D3F890301847000070B50446AD
:10460000FDF73AFF4FF47F432646A385012300259B
:1046100084F824300D4BA562256346F8343B3046C0
:10462000FEF796FF0A4B63632A4629463046C4E9E3
:104630001A55C4E91C552566A4F86450FDF72EFFF1
:104640002046314606F0E2FD204670BD4C79020856
:10465000A88502082DE9F04F04468FB0A04600253A
:104660000EF056FFC74BE56348F8403B04F16C0A77
:10467000404604F19807FEF76BFF5046FEF768FFCF
:104680003846FDF7F9FE4FF47F43A4F8C430012308
:1046900004F1CC0984F8BC30BB4BC4F89830C4F8A2
:1046A000C050C4F8C8504846FEF752FFB74BC4F894
:1046B000CC302A4629464846C4E94055C4E942550B
:1046C000C4F8F850A4F8FC50FDF7E8FE4946384617
:1046D00006F09CFD04F5887318460293FFF78EFFE1
:1046E00004F5C47318460393FFF788FF04F50073BD
:1046F00018460493FDF7E0FE04F51273184605937F
:10470000FDF7DAFE04F5247318460693FDF7D4FE90
:1047100004F5367318460793FDF7CEFE9C4BC4E9AB
:10472000C8349C4B4FF4A07BC4E9CA352A46CDF867
:1047300000B029464046F023261DFEF7F6FE4FF056
:104740007F43A3664146304606F060FD2A46CDF819
:1047500000B029465046F023FEF7E7FE4FF0FF3346
:104760004FF02F08C4F894305146304606F04EFD05
:10477000CDF800802A46294648463023FEF7D5FE6C
:10478000DFF820B2844B854A85494FF0050AC4E919
:104790004032C4E9421B3846A4F8FCA0FFF7A1FE52
:1047A00004F548793846BB21FFF721FFC4F8C890CB
:1047B0003023CDF80080452238466021FEF7B5FE53
:1047C0003946304606F022FD3023CDF800802A46D7
:1047D000294604F5A270FEF7A8FE6F4F6F4A704994
:1047E0000298A4F874A1C4E95E72C4E9601BFEF7E4
:1047F00014FE0298BB21FFF7FAFE0298C4F840911C
:104800003023CDF80080CE226021FEF78EFE029983
:10481000304606F0FBFC3023CDF800802A462946BE
:1048200004F5DE70FEF781FE5C4A5D490398C4F82A
:10483000F071C4E97D21A4F8ECA1C4F8FCB1FEF745
:10484000ECFD0398BB21FFF7D2FE30230398C4F898
:10485000B8918922CDF800806021FEF766FE0399A9
:10486000DFF84481304606F0D1FC0498E0226E2146
:10487000FDF714FE08AF4FF07F430499C4F83032BF
:104880003846A4F8345209F0DBFC97E8070004F539
:104890000F7383E807000498CDF830800CA9ADF8B9
:1048A00034A009F075FF0499304606F0AFFC059876
:1048B00057226E21FDF7F2FD4FF07F430599C4F8B2
:1048C00078323846A4F87C5209F0BAFC97E8070021
:1048D00004F5217383E8070006230598ADF834300A
:1048E0000CA9CDF8308009F053FF0599304606F049
:1048F0008DFC06989B226E21FDF7D0FD4FF07F4383
:104900000699C4F8C0323846A4F8C45209F098FC9D
:1049100097E8070004F5337383E807000723069838
:10492000ADF834300CA9CDF8308009F031FF06998C
:10493000304606F06BFC079817225021FDF7AEFDBC
:104940004FF07F430799C4F808333846A4F80C5356
:1049500009F076FC97E8070004F5457383E8070043
:1049600004230798ADF834300CA9CDF8308009F055
:104970000FFF3046079906F049FC20460FB0BDE80E
:10498000F08F00BF807C0208CC7B0208A88502085B
:10499000687C0208B3450008996600FFCC9900FFC7
:1049A000663300FF996633FFF47602087047000013
:1049B00030B5164D2C6814F001048FB0BFF35B8F37
:1049C00021D128461FF0ECFBE8B13F230993104B9F
:1049D0000893104B104911480A94CDE9064301226F
:1049E0000423CDE903320A2300930C22CDE90B44C2
:1049F000CDE901440594FEF7F5FE094820F028FBB7
:104A000028461FF0D9FB05480FB030BD9426002082
:104A1000D4A40208F0A40208E8A002089826002006
:104A2000AD4900087047000030B5164D2C6814F0F1
:104A300001048FB0BFF35B8F21D128461FF0B0FB7C
:104A4000E8B13F230993104B0893104B10491148CC
:104A50000A94CDE9064301220423CDE903320A2357
:104A600000931B22CDE90B44CDE901440594FEF7E8
:104A7000B9FE094820F0ECFA28461FF09DFB0548D6
:104A80000FB030BDC4260020D8A40208F4A4020848
:104A900090A10208C8260020254A0008704700009F
:104AA00030B5164D2C6814F001048FB0BFF35B8F46
:104AB00021D128461FF074FBE8B13F230993104B26
:104AC0000893104B104911480A94CDE9064301227E
:104AD0000423CDE903320B2300930522CDE90B44D7
:104AE000CDE901440594FEF77DFE094820F0B0FAB7
:104AF00028461FF061FB05480FB030BDF4260020AA
:104B0000DCA40208F8A402080CA30208F82600207E
:104B10009D4A00087047000030B5164D2C6814F00F
:104B200001048FB0BFF35B8F21D128461FF038FB03
:104B3000E8B13F230993104B0893104B10491148DB
:104B40000A94CDE9064301220423CDE90332182358
:104B500000930522CDE90B44CDE901440594FEF70D
:104B600041FE094820F074FA28461FF025FB05484D
:104B70000FB030BD24270020E0A40208FCA40208E6
:104B800054A3020828270020154B00087047000096
:104B900030B5164D2C6814F001048FB0BFF35B8F55
:104BA00021D128461FF0FCFAE8B13F230993104BAE
:104BB0000893104B104911480A94CDE9064301228D
:104BC0000423CDE90332192300931022CDE90B44CD
:104BD000CDE901440594FEF705FE094820F038FAB6
:104BE00028461FF0E9FA05480FB030BD54270020D1
:104BF000E4A4020800A502089CA30208582700208C
:104C00008D4B00087047000030B5164D2C6814F02D
:104C100001048FB0BFF35B8F21D128461FF0C0FA8B
:104C2000E8B13F230993104B0893104B10491148EA
:104C30000A94CDE9064301220423CDE903321A2365
:104C400000930522CDE90B44CDE901440594FEF71C
:104C5000C9FD094820F0FCF928461FF0ADFA0548C7
:104C60000FB030BD84270020E8A4020804A5020884
:104C70007CA4020888270020054C0008704700002B
:104C800030B5164D2C6814F001048FB0BFF35B8F64
:104C900020D128461FF084FAE0B13F230993104B3E
:104CA0000893104B104911480A940122CDE906439C
:104CB0000423CDE9033208230093CDE90B44CDE969
:104CC00001440594FEF78EFD094820F0C1F92846FD
:104CD0001FF072FA05480FB030BD00BFB4270020A6
:104CE000ECA4020808A50208C4A40208B827002002
:104CF0007D4C000800207047002070470EB403B5BB
:104D000003AB002153F8042B01930DF085FC02B096
:104D10005DF804EB03B070470CB407B504AB53F86F
:104D2000042B01930DF078FC03B05DF804EB02B0A6
:104D300070470000436C10B5044673B3038F2BB962
:104D4000184B194AC521194820F064F9C38E00EBAD
:104D500043035B8C0BB30FF012FB238F012B03D8A3
:104D6000134B144ACB21EEE7E28E531C9BB2092B66
:104D7000194688BFA3F10A0104EB410140F63F1038
:104D8000498C814209D10A2B04EB420228BF00233F
:104D900004EB4303508C588451842046BDE81040F6
:104DA0000FF0F0B9C9700208D27002087D710208D4
:104DB000C7710208D57102080FF0ABB910B586B003
:104DC00002AC84E806001A460AAB05930193099BDE
:104DD00000932146089B0BF00DFF06B010BD0000AC
:104DE00038B518BB124B13481C681349B4B122687C
:104DF00022440260626822440A60A26814440F4B95
:104E000000221A8000F0CAF9054600F0C5F90C4BE3
:104E10001C600C4B1D600C4B188007E00B4B0360B3
:104E20000B4B0B600B4B1C68002CE8D138BD00BF4E
:104E3000F0270020E8270020E4270020EC270020AE
:104E4000D8350120E0350120DC3501205CA50208C1
:104E50000CA50208E8A50208044B1B6853F82100C2
:104E6000034B1B6803EB4000704700BFE4270020A2
:104E7000E82700207047704710B5B82104461FF09E
:104E80008DF9204610BD00002DE9F041044688B0A0
:104E900027460025FDF7F0FA4D4BA56247F82C3B5D
:104EA00029462622384620F03AFB3846FDF7E4FA38
:104EB000FF2304F1600684F85230464BE362294632
:104EC00026226565A565A4F85C50304620F027FBD6
:104ED0003046FDF7D1FA4FF6FF73A4F88C304FF44B
:104EE0007F03C4F894303C4B23664FF0FF33C4E992
:104EF00028354FF05013A360DFF80481C4F89050B8
:104F000050232A46A4F89850C4F89C50C4F8A850DE
:104F10002946C4F8888038460093FEF706FB2F4BDD
:104F20006365A3F5BA03A3F6D823A3650323A4F806
:104F30005C303946204606F069F91B2321221946C8
:104F400000933046FEF7F1FA4FF07F43C4F89030FB
:104F5000236EA4F8945002AD2846D3F8843031462D
:104F6000984795E8070004F19C0383E807001C4B71
:104F70001B6804F1AC052BB91A4B1B4A60211B4876
:104F800020F048F81A4B1B88112B03D8194B164AEE
:104F90006121F4E7184B11211868FFF75DFF174AEC
:104FA0000346052128460FF0A2FF022306A930463A
:104FB000C4F8A850ADF81C30CDF8188009F0E8FB13
:104FC0002046314606F022F9204608B0BDE8F081BF
:104FD000B87C0208A8850208047702083D79D4FF4E
:104FE000D8350120C9670208CB6802084668020864
:104FF000DC3501208D680208E435012016690208BD
:10500000F47602087047704710B5B82104461FF0C7
:10501000C5F8204610BD00002DE9F041044688B0D7
:1050200027460025FDF728FA4E4BA56247F82C3B92
:1050300029462622384620F072FA3846FDF71CFA37
:10504000FF2304F1600684F85230474BE36229469F
:1050500026226565A565A4F85C50304620F05FFA0D
:105060003046FDF709FA4FF6FF73A4F88C304FF481
:105070007F03C4F894303D4B23664FF0FF33C4E9FF
:1050800028354FF03C13A360DFF80881C4F8905036
:105090003C232A46A4F89850C4F89C50C4F8A85061
:1050A00029463846C4F888800093FEF73EFA304B14
:1050B0006365A3F5BA03A3F6D823A3650323394692
:1050C000A4F85C302046112706F0A0F8162217231A
:1050D000132130460097FEF728FA4FF07F43C4F8BB
:1050E0009030236EA4F8945002AD2846D3F8843053
:1050F0003146984795E8070004F19C0383E80700D0
:105100001C4B1B6804F1AC052BB91B4B1B4A6021DF
:105110001B481FF07FFF1B4B1B88112B03D81A4B1A
:10512000164A6121F4E7194B39461868FFF794FED7
:10513000174A0346052128460FF0D9FE102306A979
:105140003046C4F8A850ADF81C30CDF8188009F0EE
:105150001FFB2046314606F059F8204608B0BDE84E
:10516000F08100BF4C7D0208A88502080477020880
:105170003D79D4FFD8350120C9670208CB68020801
:1051800046680208DC3501208D680208E4350120FC
:1051900016690208F4760208142070470048704728
:1051A000F427002010B5FFF73FFC0A4C2060FFF702
:1051B000EFFC6060FFF7FCFBA060FFF725FDE060FF
:1051C000FFF75EFD2061FFF76BFC6061FFF7A4FC59
:1051D000A06110BDF427002010B5002404600C600D
:1051E00014601C6010BD000010B5034B0360044642
:1051F000FDF7E7F8204610BDE07D020810B5044633
:10520000FFF7F2FF20464FF48A711EF0C7FF2046D9
:1052100010BD000010B50446FDF770F9014B236086
:10522000204610BDE07D020810B50B460446064A34
:10523000142100F580700FF05AFE04F1A000BDE8C3
:1052400010400DF013BB00BFA772020810B5044652
:10525000FDF7B8F804F58073C4F8E83010BD704766
:1052600010B54FF4AE7104461EF098FF204610BDF5
:1052700010B50446D0F8580100F083FC2046BDE884
:1052800010400CF0C3B9000010B50446FDF7B0FCA7
:10529000014B2360204610BD747E0208704704381D
:1052A0007047704710B5102104461EF077FF204666
:1052B00010BDA0F10400F5E700228260024A0260FE
:1052C00018324260C1607047C87E02087047000013
:1052D00010B5034B03600446FEF79DF8204610BD51
:1052E000F07E020810B50446FFF7F2FF20464FF4A7
:1052F000D8711EF053FF204610BD000010B50446C3
:10530000FEF73AF9014B2360204610BDF07E0208FB
:10531000FEF782B8704704387047704710B5102107
:1053200004461EF03BFF204610BDA0F10400F5E747
:1053300000228260024A026018324260C1607047F7
:10534000247F02087047000010B5034B0360044639
:10535000FEF742FB204610BD4C7F020810B5044604
:10536000FFF7F2FF204640F628711EF017FF204697
:1053700010BD0000034B04491A68044801FB0200F9
:1053800018607047140000200D6619005FF36E3C32
:1053900010B50446FEF790FB244B23600023C4F8AD
:1053A000203FC4F8243F04F59473C4F8E03E04F5AC
:1053B000F073C4F8E43E04F52673C4F8E83E04F53F
:1053C0005473C4F8EC3E04F58163C4F8F03E04F570
:1053D0009863C4F8F43E04F5AF63C4F8F83E04F5EE
:1053E000C663C4F8FC3E04F5DD63C4F8003F04F571
:1053F000F463C4F8043F04F65803C4F8083F04F506
:105400001163C4F80C3F04F6C813C4F8103F04F548
:105410002863C4F8143F04F63833C4F8183F04F581
:105420003F63C4F81C3F204610BD00BF4C7F0208FC
:1054300010B50446D0F8201F00F6A84000F0C2FBCB
:10544000D4F8241F04F6BC50BDE81040FFF7ECBEB2
:105450002DE9F04F044689B000F56E6A002710224E
:1054600000210DEB020020F05AF8BB000293D14658
:105470004FF0010859F8040F01F014F8D0B14E466E
:10548000C34656F8040D01F00DF85D4601900BF18E
:10549000FF3BE0B9D6E9005001F004F80146284688
:1054A00000F098FF019A7068114600F093FFBBF17D
:1054B000000FE6D108F10108B8F1040FDAD1013785
:1054C000042F0AF1100ACAD109B0BDE8F08F029B7F
:1054D0006E1EF31804EB830BDBF8E00E00F0E2FF26
:1054E000029B01901D4404EB8505D5F8E00E00F009
:1054F000D9FF019B8342DDD108AB03EB860656F84A
:10550000102C002AD6D1DBF8E00E039200F0CAFF7F
:10551000400083B21946DBF8E00E019300F05AFF19
:10552000039AD5F8E00E114600F054FF0123019ACA
:1055300046F8103CD4F8203F1344D4F8242FC4F884
:10554000203F934288BFC4F8243F2046FFF770FFF6
:10555000B0E72DE9F04F044689B000F6EC6A002769
:10556000102200210DEB02001FF0D9FFBB000293B7
:10557000D1464FF0020859F8040D00F093FFE0B156
:105580004E46C3467068039600F08CFF5D4601905E
:105590000BF1010BE0B903997568086800F082FF10
:1055A0000146284600F016FF019A56F8040B1146F2
:1055B00000F010FFBBF1030FE4D1B8F10108DAD21B
:1055C0000137042F0AF1100ACAD109B0BDE8F08FE3
:1055D000029B6E1CF31804EB830BDBF8E00E00F06B
:1055E00061FF029B01901D4404EB8505D5F8E00E98
:1055F00000F058FF019B8342DFD108AB03EB860626
:1056000056F8102C002AD8D1DBF8E00E039200F0F7
:1056100049FF400083B21946DBF8E00E019300F029
:10562000D9FE039AD5F8E00E114600F0D3FE01230F
:10563000019A46F8103CD4F8203F1344D4F8242FA4
:10564000C4F8203F934288BFC4F8243F2046FFF7A8
:10565000EFFEB2E72DE9F04F044687B00027102295
:10566000002102A81FF05BFF04EB87084FF001093F
:10567000D8F8F00E00F016FF08F11008D8B1454632
:105680004E46D5F8D00E00F00DFFB2468346013EDF
:10569000E0B9D5F8E00ED5F8D0AE00F003FF014632
:1056A000504600F097FED5F8E00E594600F092FE05
:1056B000103D002EE5D109F10109B9F1040FD7D150
:1056C0000137042FCBD107B0BDE8F08F0AF1FF36C8
:1056D000B50007EB860604EB8606D6F8E00E00F070
:1056E000E1FE07EB8A0304EB830A8346DAF8E00E57
:1056F00000F0D8FE8345DED105F118030DEB030B56
:105700005BF8103C002BD6D1D6F8E00E019300F0E8
:10571000C9FE41008DB2D6F8E00E294600F05AFECF
:10572000019BDAF8E00E194600F054FE01234BF815
:10573000103CD4F8203FD4F8242F2B449342C4F8D3
:10574000203F88BFC4F8243F2046FFF771FEB2E730
:105750002DE9F04F044687B000271022002102A84F
:105760001FF0DDFE04EB87094FF00208D9F8000FA7
:1057700000F098FEE8B109F120054646D5F8F00E94
:1057800000F090FEB24683460136F8B9D5F8E00E37
:10579000D5F8F0AE00F086FE0146504600F01AFE45
:1057A000D5F8E00E594600F015FE032E05F1100560
:1057B000E4D108F1FF38B8F1FF3FA9F11009D5D1C4
:1057C0000137042FC9D107B0BDE8F08F0AF10106F7
:1057D000B50007EB860604EB8606D6F8E00E00F06F
:1057E00061FE07EB8A0304EB830A8346DAF8E00ED6
:1057F00000F058FE8345DCD105F118030DEB030BD7
:105800005BF8103C002BD4D1D6F8E00E019300F0E9
:1058100049FE41008DB2D6F8E00E294600F0DAFDCF
:10582000019BDAF8E00E194600F0D4FD01234BF895
:10583000103CD4F8203FD4F8242F2B449342C4F8D2
:10584000203F88BFC4F8243F2046FFF7F1FDB0E7B2
:1058500008B50BF031FEBDE80840FDF70DBA2DE9A3
:10586000F041044600F6EC6600F62C77A6F1100530
:1058700055F8040F00F016FE10B3B542F8D105F14B
:105880001006BE42F2D104F56E64002726460025BC
:1058900056F8040B00F006FE032D80460BD1032FB3
:1058A00011D10135042DF3D10137042F04F1100477
:1058B000ECD1012005E0306800F0F4FD8045EED128
:1058C0000020BDE8F081F06800F0ECFD8045E8D1F3
:1058D000F6E72DE9F0430026A1B0044600F6DC68A7
:1058E0003546C146002759F8040F00F0DBFD28B902
:1058F00020AB03EBC50343E9206701350137042FD3
:10590000F1D10136042E08F11008EAD1002D20DD76
:10591000FFF730FD20AAB0FBF5F303FB150302EB04
:10592000C30353E92065FFF725FD05EB86050A2330
:1059300005F56E75B0FBF3F202FB1300002854F876
:10594000250014BF0221042121B0BDE8F04300F07E
:1059500041BD2046FFF783FF28B1204621B0BDE8B6
:10596000F043FFF775BF21B0BDE8F0830B7910B5A8
:105970000446A3B9B1F90630002B0DDDFFF7E9FDB0
:105980002046FFF7A6FF2046FFF769FF98B12046A3
:10599000BDE81040FFF75CBFFFF75AFDF0E7012BB1
:1059A000F1D1B1F90630002B02DDFFF7D1FEE7E7B8
:1059B000FFF750FEE4E710BD323910B50446062962
:1059C0000AD8DFE801F01809040912091500FFF7E9
:1059D0003FFD2046FFF77DFF2046FFF740FF68B1FF
:1059E0002046BDE81040FFF733BFFFF7B2FDF0E7F8
:1059F000FFF730FEEDE7FFF7ABFEEAE710BD000072
:105A00002DE9F743044601F0BBF8012105463E4865
:105A10003E4E01F00FFB042180463B4801F00AFB9B
:105A200010210746384801F005FB402181463648E1
:105A300001F000FB3268AA1AC82A61D909F1FF3CBB
:105A400000F1FF3EDCF1000949EB0C09DEF1000337
:105A500043EB0E03DB0043EA8903B8F1010F08BFF3
:105A600043F0010307F1FF38D8F1000242EB0802CE
:105A7000D90803F0010943EA42080091C3F3800307
:105A8000234849461FF0F6FC3368EB1AC82B37D978
:105A9000204FB9F1000F15D03B78D80712D420461B
:105AA000FFF7D8FD2046FFF714FF3560204687F842
:105AB0000080FFF7D4FE18B3204603B0BDE8F043E2
:105AC000FFF7C6BE18F0020F06D03B78990703D443
:105AD0002046FFF73DFEE5E718F0040F06D03B78BF
