:020000040800F2
:10000000000003205D060008292200082B220008BA
:100010002D2200082F2200083122000800000000D5
:10002000000000000000000000000000A1EB00083C
:10003000332200080000000031EC0008C1E4000891
:10004000AD060008AD060008AD060008AD060008C4
:10005000AD060008AD060008AD060008AD060008B4
:10006000AD060008AD060008AD060008AD060008A4
:10007000AD060008AD060008AD060008AD06000894
:10008000AD060008AD060008AD060008AD06000884
:10009000AD060008AD060008AD060008AD06000874
:1000A000AD060008AD060008AD060008AD06000864
:1000B000AD060008AD060008AD060008AD06000854
:1000C000AD060008AD060008AD060008AD06000844
:1000D000AD060008AD060008AD060008AD06000834
:1000E000AD060008AD060008AD060008AD06000824
:1000F000AD060008AD060008AD060008AD06000814
:10010000AD060008AD060008AD060008AD06000803
:10011000AD060008AD06000835220008AD0600084F
:10012000AD060008AD060008AD060008AD060008E3
:10013000AD060008AD060008AD060008AD060008D3
:10014000AD060008AD060008AD060008AD060008C3
:10015000AD060008AD060008AD060008AD060008B3
:10016000AD060008AD060008AD060008AD060008A3
:10017000AD060008AD060008AD060008000000004E
:10018000AD060008AD060008AD060008AD06000883
:10019000AD060008AD060008AD060008AD06000873
:0C01A00041220008AD0600084D220008B6
:1001B00010B5054C237833B9044B13B10448AFF3A1
:1001C00000800123237010BD800300200000000088
:1001D00078B5020808B5034B1BB103490348AFF3D8
:1001E000008008BD000000008403002078B50208EC
:1001F00001F0FF01102A2BDB10F0070F08D010F8D8
:10020000013B013A8B422DD010F0070F42B3F6D1DB
:10021000F0B441EA012141EA014122F007047FF0F4
:1002200000070023F0E80256083C85EA010586EA4B
:10023000010685FA47F5A3FA87F586FA47F6A5FA87
:1002400087F68EB9EED1F0BC01F0FF0102F0070293
:1002500032B110F8013B013A83EA010313B1F8D13E
:100260000020704701387047002D06BF354603381F
:10027000073815F0010F07D1013015F4807F02BF58
:10028000013015F4C03F0130F0BC0138704700BFA9
:100290007BB972B90029BEBF00204FF0004106E0D3
:1002A00008BF00281CBF6FF000414FF0FF3000F086
:1002B000D3B9ADF1080C6DE904CE002909DB002BA0
:1002C0001ADB00F04DF8DDF804E0DDE9022304B0AC
:1002D0007047404261EB4101002B1BDB00F040F80E
:1002E000DDF804E0DDE9022304B0404261EB4101A6
:1002F000524263EB43037047524263EB430300F007
:100300002FF8DDF804E0DDE9022304B0404261EBA0
:1003100041017047524263EB430300F021F8DDF8DE
:1003200004E0DDE9022304B0524263EB430370476B
:1003300053B94AB9002908BF00281CBF4FF0FF314C
:100340004FF0FF3000F088B9ADF1080C6DE904CE34
:1003500000F006F8DDF804E0DDE9022304B07047A0
:100360002DE9F047089D8E4604468846002B4AD169
:100370008A42174662D9B2FA82F64EB1C6F120031C
:1003800001FA06F820FA03F3B74043EA0808B4403C
:100390004FEA174E1FFA87FCB8FBFEF1230C0EFB49
:1003A000118843EA084301FB0CF29A4209D9FB1871
:1003B00001F1FF3080F0EA809A4240F2E780023992
:1003C0003B449A1AA3B2B2FBFEF00EFB102243EAA2
:1003D000024300FB0CFC9C4509D9FB1800F1FF32DD
:1003E00080F0D6809C4540F2D3803B44023840EAFE
:1003F0000140A3EB0C0300211DB1F3400022C5E92D
:100400000032BDE8F0878B4205D90DB1C5E9000186
:1004100000210846F5E7B3FA83F1002946D1734578
:1004200002D3824200F20581841A6EEB030201209E
:100430009046002DE5D0C5E90048E2E7002A00F02B
:100440009080B2FA82F6002E40F0A4808A1A030C43
:100450004FEA174E80B2BCB20121B2FBFEFC0EFB8C
:100460001C2243EA024304FB0CF29A4207D9FB1810
:100470000CF1FF3802D29A4200F2E080C4469B1A87
:10048000B3FBFEF20EFB123340EA034302FB04F41B
:100490009C4207D9FB1802F1FF3002D29C4200F2C5
:1004A000CA8002461B1B42EA0C40A5E7C1F12006A8
:1004B0008B4022FA06F71F430EFA01F420FA06F3E6
:1004C0002EFA06FE4FEA1749234300FA01F81FFAF5
:1004D00087FCBEFBF9F01C0C09FB10EE44EA0E444D
:1004E00000FB0CFEA64502FA01F209D93C1900F105
:1004F000FF3A80F09C80A64540F2998002383C4447
:10050000A4EB0E041FFA83FEB4FBF9F309FB1344BA
:100510004EEA044403FB0CFCA44508D93C1903F142
:10052000FF3E80F08280A4457FD9023B3C4443EAF1
:100530000040A4EB0C04A0FB02EC64457346E146CA
:1005400062D35FD05DB1B8EB030264EB090404FA37
:1005500006F622FA01F31E43CC40C5E900640021EF
:100560004FE7B1FBF2FC010C41EA0E4180B240EAD8
:1005700001423B4638463C46B846BE462026B1FBC3
:10058000F7F1A2EB080241EA0C4166E7014618E7E1
:1005900010462CE7C6F120022EFA02F3B740B14014
:1005A00020FA02F24FEA174E0A43B3FBFEF8BCB240
:1005B0000EFB1833110C41EA034108FB04F9B0406B
:1005C00089454FEA104380B23ED9791808F1FF3CC3
:1005D00001D289451FD8A1EB0901B1FBFEF909FB46
:1005E00004F80EFB191192B242EA0142424529D2A7
:1005F000BA1809F1FF31C4D24245C2D2A9F10201B1
:100600003A44BEE7F0459DD2BEEB02036CEB070C0B
:100610000138E14696E7A7EB09094944A8F1020C25
:10062000B1FBFEF909FB04F8DBE773467FE75046B0
:1006300066E70846FDE63B44023A33E7ACF1020CBC
:100640003B441CE749469CE7A1EB0901C446B1FBCA
:10065000FEF909FB04F8C4E7704700BFDFF834D0A7
:10066000002103E00C4B5B58435004310B480C4B0A
:1006700042189A42F6D30B4A02E0002342F8043BA8
:10068000094B9A42F9D30BF09DFC2AF007FA01F0CE
:1006900065F870470000032024880408000000204B
:1006A0008001002080030020844C0120FEE7704779
:1006B00008B500F0BDFDBDE8084000F03FBD00F00A
:1006C000B9BD704710B50421044628F0FBFF204651
:1006D00010BD000038B50C4B0C4C18800C4B822020
:1006E00019806368984740F6110398420AD1094D72
:1006F00023682C60822098472B688220DB6898470B
:10070000002038BD0120FCE7A6030020680000207F
:10071000A4030020A80300204FF4A071F020FFF7ED
:10072000D9BF0000F7B5394D2B6804461B698220FC
:100730009847208000284ED02B680DF106025B6997
:1007400001A982209847324B1B78002B4BD0BDF873
:10075000062040F674639A423FD9ADF80630BDF8E2
:1007600006209B1A9BB20A2B42D90B22B3FBF2F351
:10077000284A1288934201D9013A93B2BDF8042065
:10078000254840F6B8318A4234D8C2F571620E323B
:10079000016892B20F25B2FBF5F2204D2D88AA42D6
:1007A00084BF05F1FF35AAB28A4215468EB22AD916
:1007B000921B91B21A4E3768BB42BAB28CBF9A1ADA
:1007C000D21A92B211440529C4BF05603360036890
:1007D00063803368A38003B0F0BDB32A9CBFB4220A
:1007E000ADF80620BBE7BDF80630A3F5B473B9E752
:1007F0000023C3E7C2F56D62083292B20E2A016887
:10080000C8D800252A46891A89B2D3E7A803002050
:10081000642E0020A4030020A0030020A6030020D3
:100820009C03002037B568460D461446FFF77AFF53
:10083000BDF8000030B1BDF802302B60BDF80430C7
:100840002360012003B030BD032821D8DFE800F089
:10085000020B12190F4B1A68B2FA82F252090421E4
:100860000D480BF043BE0B4B5A68B2FA82F25209A4
:100870000821F5E7074B9A68B2FA82F25209102173
:10088000EEE7044BDA68B2FA82F252092021E7E778
:10089000704700BFAC03002000100240032821D89D
:1008A000DFE800F0020B12190F4B1A68003A18BF6C
:1008B000012204210D480BF019BE0B4B5A68003A77
:1008C00018BF01220821F5E7074B9A68003A18BFC4
:1008D00001221021EEE7044BDA68003A18BF01222A
:1008E0002021E7E7704700BFAC0300200010024062
:1008F00003280DD8DFE800F00206080A04210548A5
:100900000BF0F9BD0821FAE71021F8E72021F6E7FE
:10091000704700BF0010024008B5032811D8DFE877
:1009200000F0020A0C0E042107480BF0D9FD431E0B
:100930005842584108BD0821F6E71021F4E720216C
:10094000F2E70020F3E700BF0010024070B5084D49
:1009500000240126E0B2FFF7DFFF18B12B68012B5E
:1009600018BF2E600134052C05F10405F2D170BDCD
:10097000AC030020012380F8781080F879307047AC
:100980007047002070470000034B4164003918BFD6
:1009900001211970704700BF433F012070470020BC
:1009A0007047836B0BB10846184770474FF6FF70CE
:1009B0007047406803689B691847704770477047E5
:1009C0007047704710B5044600F04AFD236803499C
:1009D000D3F890302046BDE810401847000000D002
:1009E00008B503680446D3F8843098472368204646
:1009F000DB6F984700F0ECF8236820465B6F984760
:100A0000292001F031F900F0E3F8236820465B6FFC
:100A10009847F8E710B5044610F0B8FE2368204662
:100A2000D3F8BC30BDE81040184700F0FDBC00F022
:100A300001BD00F033BD00F0D3BC00F043BD00F0B9
:100A40004BBD00F0D7BC10F0CFB810B584210446E0
:100A500028F038FE204610BD10B590F8341090F8FC
:100A600078400C4B8C421A7809D03AB90A4A0B49A3
:100A70001488088810800C8001221A7010BD002A8A
:100A8000FCD0054A05491488088810800C80002293
:100A9000F3E700BF3C3F0120383F01203A3F0120EF
:100AA00070B50D46194635B9094B0A4A0A4840F255
:100AB000FF2129F043FDC0E90F52084B003A18BF4F
:100AC00001221A700368BDE87040D3F890301847CF
:100AD000A8B60208E0B602082EB70208423F01207D
:100AE00008B5094B1B888B4203D8084B1B889342DF
:100AF00005D9074B074A0848A32129F01FFD074BDA
:100B00001980074B1A8008BD383F01203A3F012069
:100B100073B70208D6B702082EB702083E3F01207D
:100B2000403F0120034690F87A0018B158680368E6
:100B30001B68184770470000012108B500220846CD
:100B40000DF048FD0A4B186028B90A4B0A4A2821C3
:100B50000A4829F0F3FC0022042101200DF0D9FD00
:100B6000074B186018B9074B034A2C21F0E708BD62
:100B7000C003002019B8020862B8020891B8020840
:100B8000BC030020E3B80208024B4FF0FF311868A5
:100B90000DF06ABDC0030020014B18680DF090BD38
:100BA000C0030020024B002118680DF05DBD00BF9E
:100BB000C0030020FFF7F0BF03480449006800238A
:100BC0001A460DF0E1BD00BFBC0300200400002068
:100BD00013B5084C00231A4601A920680DF005FE44
:100BE00020684FF0FF33002201A90DF0FEFD02B096
:100BF00010BD00BFBC03002003685B6C18470120D8
:100C0000704703689B6A1847FEE740F2EF30704771
:100C1000054B0360054B4FF08062C3F88820BFF39B
:100C20004F8FBFF36F8F704798CD020800E100E04F
:100C300010B504464FF45A61FFF7EAFF204628F04A
:100C400041FD204610BD000082B0002301930E4BF1
:100C50001A6B42F400021A631A6B02F4000201924A
:100C6000019A1A6942F400021A611A6922F4000218
:100C70001A61064B064A1A61064A5A61064B4FF042
:100C800080629A6002B0704700380240F82F00205E
:100C9000E90E0008090C000800E100E008B50A2888
:100CA00009D8DFE800F006100E0808080810101038
:100CB0001000022008BD054B054A0648902129F086
:100CC0003DFC0020F6E70120F4E700BF25B902084B
:100CD00040B902088BB9020838B50C46887FFFF787
:100CE000DDFFA58AE28A164B2169586342EA054274
:100CF0005A64628BD963521B1A642568082D0ED181
:100D00009A611A615862207F0E4A42EA0062DA61F3
:100D1000E2681A620C4A5961D9601A6038BD002233
:100D2000D8611A61E1680A0A480902F4784200F4BD
:100D3000FC600243C1F3C4010A439A63034AECE72F
:100D400000B002400900010001230200012303005A
:100D500008B50B280BD8DFE800F00612100A0A0AC3
:100D60000A0808080808022008BD0520FCE7054B12
:100D7000054A06486F2129F0E1FB0020F4E7012035
:100D8000F2E700BF25B90208DBB902088BB90208F7
:100D90002DE9F04191F81D800C464046FFF7D8FF41
:100DA000A77F05463846FFF7D3FF06463846FFF7CC
:100DB00075FFA18A628B444B521A1A649A61228B86
:100DC000521A1A61E28A586342EA01425A6421695E
:100DD0006268D963DA602068802828D0227F0FD823
:100DE000202867D0402865D004281AD0364B45EA21
:100DF000026545F40035B845DD6161D0334A44E011
:100E0000B0F5807F04D0B0F5007FEFD1304800E02E
:100E1000304840EA0262DA61E2681A625E62596151
:100E200032E045EA026242F40032DA61F6E7A06895
:100E3000021DDA62227F45EA026545F40035DD6174
:100E40005E625961017841B1012921D0224B234AC8
:100E500023484FF48D7129F071FBDA69418822F43F
:100E60007F42013922F0100242EA0122DA610121B7
:100E7000154BDA6942F02002DA61DA699206FCD495
:100E800010229A600029B9D0164A1A60BDE8F08194
:100E9000B2F1FF01DA69408822F47F4200F1FF30AD
:100EA00022F0100242EA002242F0100218BF012193
:100EB000DA61DDE745EA0262034B42F40032B4E74F
:100EC00042F20132E1E700BF00B00240012301001D
:100ED000090002000A00020025BA02083FBA02080F
:100EE0008BB9020801230200024B1B685868036893
:100EF0005B691847443F012070B5044625460A4BFC
:100F00000C30002660602672667245F8203B602235
:100F1000294610F091FD04F55A63EE6024359D4298
:100F2000FBD1204670BD00BF98CD0208034B1A6864
:100F3000D207FCD423229A60704700BF00B0024061
:100F40007047000030B50F4C2568ED07FCD4232511
:100F50000904A56041F001010225FF2B656361646E
:100F6000E0630AD00849656241EA0363E361074B25
:100F700022626061E060236030BDE561039BA36392
:100F8000034BF8E700B00240090001000100020035
:100F90000100030030B50E4C2568ED07FCD4232575
:100FA0001204A56042F001020225FF2B6563626412
:100FB000E063E16008D01B0643F00213E361054BD8
:100FC00065626061236030BD034BE3610123F9E793
:100FD00000B0024001000200020002FF30B50B4CDD
:100FE0002568ED07FCD4232512041B06A56043F4F5
:100FF0000033022542F0010265636264E063E16050
:10100000E361034B65626061236030BD00B0024064
:1010100001000200012070474020704700EB811062
:101020000830704700EB811008307047012070478E
:1010300041F62410704741F6241303FB01000830E9
:10104000704741F6241303FB01000830704701206C
:1010500070471020704700EB01100830704700EB1C
:10106000011008307047084601F0F6BF10B5034B79
:10107000036004460FF00FFB204610BD50CE02085F
:1010800010B50446FFF7F2FF2046482128F01AFB6E
:10109000204610BD10B5034B036004460FF0FBFA69
:1010A000204610BD1CCE020810B50446FFF7F2FF23
:1010B000204641F62C1128F005FB204610BD00000B
:1010C00010B5034B036004460FF0E5FA204610BD4F
:1010D000E8CD020810B50446FFF7F2FF20461821BC
:1010E00028F0F0FA204610BD10B5094B0360044605
:1010F00000F5CA501830FFF7B9FF04F12C00FFF7D4
:10110000C9FF04F11400FFF7DBFF204610BD00BF4C
:1011100084CE020808B50248FFF7E6FF08BD00BF0D
:101120009C12002010B50446FFF7DEFF20464FF466
:10113000D85128F0C7FA204610BD00002DE9F34130
:1011400001F0AAFA054601F0ABFA00240146234655
:1011500028462246009419F003FA274B274A1A60C2
:10116000204606F05FF8264D264B274A27489A600E
:1011700019F05EF92B68BFF35B8FDB0736D4284686
:1011800028F0A2FA90B3224C224F234B236007F1A0
:101190004C0604F1140004F12C086060C4F80880C7
:1011A000E76026610FF078FA1C4B636140460FF050
:1011B00073FA1B4BE36238460FF06EFA04F5805366
:1011C000184AC3F8582904F5CD5007F07BFB224696
:1011D00004F5CD51304606F013FE304601F03CFFD9
:1011E000114829F0C9F9284628F07AFA0F4802B0C8
:1011F000BDE8F041FFF7E6BBA83F0120480400200E
:1012000098120020680400204C04002008000020F0
:101210009C120020F42B002084CE0208E8CD0208A6
:101220001CCE020850CE020815110008C40300208D
:10123000704700000148FFF7D3BB00BFC403002084
:1012400070B5264E264C274D274B23603046FFF7BE
:1012500053FE28461EF08AFA244816F051FE244B0D
:101260002448DC6000224FF48071C3E91212224945
:101270001A86C3E91A12214983F85820C3E91E01CE
:101280001F49C3F880101F491F480B60F021C3E9B4
:101290000422C3E90622C3E90822C3E90A22C3E9FA
:1012A0000E22C3E91022C3E91422C3E917225A66A9
:1012B00083F870205A67C3E90165018013480180F3
:1012C00013484FF4A07101801248018012490A703E
:1012D000012283F83420114A1A6070BDF404002002
:1012E000941200206804002098B602084C040020E4
:1012F000C4030020000001010100000100045000AF
:101300001A001400443F0120383F01203E3F0120D5
:101310003A3F0120403F01203C3F0120ACCC020875
:101320000148FFF775BC00BFF4040020002070479F
:1013300081807047C180704701817047418170474B
:101340007047704770477047704710B4C48803688F
:10135000121B84885B6D091B12B25DF8044B09B245
:1013600018474FF6FF7383814FF0FF330362136812
:10137000C36110607047002070478B888380012014
:101380007047704780F82610704790F82600704725
:1013900010B50022B1F90840B1F90A10028042806C
:1013A0008480C18010BD0022028042808280C28081
:1013B00070470177704780ED080A704780F8241065
:1013C000704780F8251070470120704798307047AB
:1013D0008C3070478430704770477047704700000A
:1013E000034B902283F85A2383F85823704700BF99
:1013F00000E100E0094A0A49D3680A48C3F30A0336
:10140000013B9BB20B801169C1F30A0101390180D4
:101410001364536B43F0010353637047006801404A
:101420009E2D00209C2D0020014BD3F8AC0070476E
:1014300000680140024B0122C3F8AC105A627047A9
:101440000068014010B52C21044628F03BF92046E5
:1014500010BD10B5BC21044628F034F9204610BD5B
:1014600070B504460FF015FC23689D6E15F06EFAFA
:1014700001462046A8472368054AD3F88C502046E9
:10148000AC460023BDE87040A2F51631604700BFAE
:1014900000B004D00FF0E4BB0FF0EEBB0FF0AABB1E
:1014A0000FF019BD90F8252012B103685B69184749
:1014B000704790F825201AB190F8242002B11860E6
:1014C00070470000034B4FF080629A604FF08072CB
:1014D0009A60704700E100E0084B4FF08062C3F86B
:1014E0008820BFF34F8FBFF36F8F4FF08072C3F828
:1014F0008820BFF34F8FBFF36F8F704700E100E08C
:1015000070B50023124E8380124B0360336893F84A
:10151000582005460AB1D86C00B998680368DB6AA0
:1015200098473368B0FA80F4D86C640930B1036826
:10153000DB6A9847002808BF44F001042CB9064B29
:10154000064A07482C2128F0F9FF284670BD00BF45
:10155000443F012098CE02087DBA0208DBBA020897
:1015600014BB020870B5254E3568BFF35B8F15F0CC
:10157000010540D1304628F0A7F800283BD0204C88
:10158000204B256104F13400C4E90035C4E902555B
:10159000E584A562A58516F098FF04F1580011F0C6
:1015A000FFFE194BA3652046184B40F8843BFFF71C
:1015B000A7FF174BC4F884302433C4F88C304FF4A1
:1015C000C803C4E928350023C4F8AC30C4F8B030EF
:1015D000C4F8B430C4F8B8300E480F4BC4F890507B
:1015E000C4F89C50C4F8A850C4F8983028F0C4FF40
:1015F000304628F075F8024870BD00BFA02D0020CD
:10160000A42D002038E20208B8CE020830CF02082C
:10161000ECE10208DD130008CCE1020838B5184CF3
:1016200023685BB3174B184A1B6C11888B4216D189
:10163000164B19880BF062FD236893F86A20002589
:10164000013283F86A2083F87C50FFF7B5FA2068EE
:1016500010F09CF82846BDE83840FFF7F5B80BF0CD
:101660004DFD2468236820461B6A9847012384F8AF
:101670007C300020BDE83840FFF710B938BD00BF0E
:10168000443F0120006801409E2D00209C2D002039
:1016900007B5064BADF806001B68054801220DF1A1
:1016A00006010CF0CBFA03B05DF804FB0C0000203F
:1016B000A42E002008B564200CF080FFFBE700009A
:1016C00030B595B0102200210AA829F03EF9142265
:1016D000002103A829F039F900241E4B01941A6C4B
:1016E00042F080521A641B6C03F080530193019BFB
:1016F000194B02941A6842F440421A601B6803F4C2
:10170000404302930122029B4FF48033CDE908232A
:1017100002254FF480030821CDE90E534FF4B47332
:10172000CDE9101308A80423139312950BF03EFD86
:101730000BF002FD0F23CDE903354FF4A0504FF419
:101740008053CDE90603052103A805940BF00AFF99
:1017500015B030BD003802400070004080B59AB02E
:101760000AF03EFCFFF7ACFF142200210DA829F07F
:10177000ECF80024C84B00941A6BC848C84DDFF839
:101780005C8342F010021A631A6B02F0100200929E
:10179000009A01941A6B42F020021A631A6B02F04D
:1017A00020020192019A02941A6B42F080021A639D
:1017B0001A6B02F080020292029A03941A6B42F0B2
:1017C00004021A631A6B02F004020392039A04944F
:1017D0001A6B42F001021A631A6B02F001020492C2
:1017E000049A05941A6B42F002021A631A6B02F013
:1017F00002020592059A06941A6B42F040021A639F
:101800001A6B02F040020692069A07941A6B42F095
:1018100008021A631B6B03F00803224607933C215E
:10182000079B0AF063FE9F48012202210AF05EFE38
:1018300022469C4804210AF059FE22469A484FF459
:1018400040510AF053FE01263C23CDE90D36934862
:101850000F9403230DA9022710930AF05DFD914810
:101860000DA9CDE90D76CDE90F440AF055FD04230D
:101870008C480DA9CDE90D36CDE90F470AF04CFD96
:1018800045238A480F940DA9CDE90D340AF044FD93
:101890004FF4A05386480F940DA9CDE90D340AF0FA
:1018A0003BFD0DA94FF440537F48CDE90D36CDE9FE
:1018B0000F470AF031FD7F487F4B03600AF022FC9E
:1018C000DFF81CE27D4B2C62C5E900E328464FF4AB
:1018D0008043C5E90434C5E90244C5E906440BF078
:1018E00013F8102128460BF057FA21462846744D6C
:1018F0000BF071FA4FF48273C5E900834FF400795D
:101900001823C5E9069328460A23C5E90244C5E918
:101910000444C5E90844AC62EB620CF033F98F2350
:10192000224639465F488DF824308DF834400AF05D
:10193000DDFD32464FF47A7309A928460CF07EF992
:101940004FF47A7332460DA928460CF023FB324639
:10195000394654485B4D0AF0C9FD9DF83430D32B0D
:1019600004BF594B1E70594B0126C5E900361022A1
:1019700040230024C5E904234FF4C073C5E90634AD
:101980004FF40063C5E908344FF4005302274FF0C9
:101990000409AB624FF0030A07230DA92846CDE9DD
:1019A0000D73CDE90F934FF00808C5E90249CDE961
:1019B00011A713970BF0CAFF4FF6FF7209A928462B
:1019C000CDE90A86089409960C940BF0DFFF3046A7
:1019D0000AF032FB4FF6FF7209A92846CDE90978D3
:1019E000CDE90B640BF0D2FF4FF6FF7209A9284630
:1019F000CDE909A8CDE90B940BF0C8FF4FF40C73A7
:101A00000893089B0C934FF6FF7209A92846CDE96D
:101A100009980B960BF0BAFF40F26A5128460BF07A
:101A2000D3FF34220DEB0200214628F08EFF284D13
:101A3000284B2C61C5E900340923C5E905361D236F
:101A4000C5E9073A40F20D1140F24313C5E9091305
:101A500040F2171040F24713C5E90B032846C5E9C9
:101A60000244AC8685F836400BF050FAFF214FF463
:101A7000806CF022CDE912140521CDE914C14FF498
:101A8000A0730DA9CDE90E24CDE9164228462246C1
:101A9000114D189326E000BF0038024000100240AC
:101AA000A42F002000080240000C02400000024069
:101AB000000402403830002000300240A0860100BF
:101AC000A42E0020702E0020642E0020400100A0D3
:101AD000FC2E002000680140602E002000500140D4
:101AE000005C0040CDE910370D94ADF864408DF8EE
:101AF00066400BF0D6FA174B2B601B6898472B6893
:101B0000154DDB689847154B2846C5E90034C5E9F3
:101B10000274C5E90A47C5E90C440AF003FB3146E3
:101B200028460AF0B5FBFEF7C3FDFEF7C0FD0CF03A
:101B3000D5FC0B4A0B4821460CF0FCFC0A4B0B4A27
:101B4000186021460A480CF0F5FC0A4B18600CF0AE
:101B5000D7FCFEE730000020F82F002000B0024044
:101B600098CF0208B51600086C2E002074CF02082A
:101B7000BF060008682E0020704770477FB5094BEC
:101B80008DF817201B6802930DF1170201230092B4
:101B900001930A46014604480AF05EFF07B05DF86B
:101BA00004FB00BF10000020A42F00207FB50023FD
:101BB0008DF81730084B1B6802930A4601230DF17C
:101BC000170100910193014604480AF0D5FF9DF8E2
:101BD000170007B05DF804FB10000020A42F0020C0
:101BE0001FB5084C24680092CDE901340A46012350
:101BF000014605480AF0C0FF003818BF012004B0B4
:101C000010BD00BF10000020A42F00200AF014BA5D
:101C100010B5064C0022204604210AF067FC20463D
:101C20000122BDE8104004210AF060BC0008024017
:101C300038B50B4D044601220A484FF400510AF012
:101C400055FC0022042128460AF050FC2046FFF7EC
:101C50001FFD28460122BDE8384004210AF046BC99
:101C600000080240000C024038B50B4D044600222B
:101C70000A484FF400510AF039FC0022042128469A
:101C80000AF034FC2046FFF703FD28460122BDE898
:101C9000384004210AF02ABC00080240000C02402F
:101CA000F7B5144E144F05460C4630460022042169
:101CB0000AF01CFC00224FF4005138460AF016FCD2
:101CC0002846FFF7E5FC0D4B0D481B68224601A98D
:101CD0000CF060F9384601224FF40051019C0AF0E3
:101CE00005FC3046012204210AF000FC204603B026
:101CF000F0BD00BF00080240000C02400C000020B4
:101D0000A42E00200AF098B90268034B9A4201D130
:101D10000AF080B9704700BF001000407047000013
:101D200082B00E4B00220092596C41F480415964FC
:101D3000596C01F48041009100990192196C41F0B5
:101D4000805119641B6C03F080530193019B0F2198
:101D50006FF0010002B00AF095B900BF00380240F0
:101D60000268094B9A4282B00BD100230193074BC2
:101D70001A6B42F480521A631B6B03F48053019375
:101D8000019B02B0704700BF0030024000380240A3
:101D900007B50F4B02689A4216D10022A3F5F04313
:101DA0000192196B41F4000119631B6B03F40003EA
:101DB000019305215A20019B0AF064F95A2003B0CF
:101DC0005DF804EB0AF090B903B05DF804FB00BFC6
:101DD00000B002402DE9F043044689B014220021EE
:101DE00003A828F0B2FD2268244B9A4243D1244C28
:101DF000244800250095236B43F004032363236BE1
:101E000003F004030093009B0195236B43F001034F
:101E10002363236B03F001030193019B4FF012092D
:101E20004FF400734FF001080327042603A9CDE9FE
:101E30000339CDE9058707960AF06EFA4FF48073EF
:101E40001148079603A9CDE90339CDE905870AF0C2
:101E500063FA0295236C43F400032364236C03F4B8
:101E600000030293029B236A43F400032362236A64
:101E700023F40003236209B0BDE8F083005C004056
:101E8000003802400008024000000240F0B599B05E
:101E900004461422002107A828F057FD30220DEB3C
:101EA0000200002128F051FD22685E4B9A4240F06A
:101EB000B78008230C93C0231093042312930CA81B
:101EC0004FF4003315930BF015FC08B1FFF726FF14
:101ED000554B5648002400945A6C42F080625A6474
:101EE0005A6C02F080620092009A01941A6B42F0E0
:101EF00020021A631A6B02F020020192019A0294E6
:101F00001A6B42F001021A631A6B02F0010202928C
:101F1000029A03941A6B42F002021A631A6B02F0DF
:101F200002020392039A04941A6B42F040021A636D
:101F30001A6B02F040020492049A05941A6B42F064
:101F400004021A631A6B02F004020592059A0694C1
:101F50001A6B42F008021A631B6B03F00803069326
:101F600002250E26069B0B964FF4806307A9CDE948
:101F70000735CDE909450AF0CFF941F658032C4859
:101F80000B9607A9CDE907350927CDE909450AF0E0
:101F9000C3F9032327480B9707A9CDE90735CDE9F6
:101FA00009450AF0B9F94FF4706322480B9607A966
:101FB000CDE90735CDE909450AF0AEF94FF40C63D8
:101FC0001D480B9607A9CDE90735CDE909450AF06B
:101FD000A3F9C02319480B9607A9CDE90735CDE928
:101FE00009450AF099F9082315480B9607A9CDE988
:101FF0000735CDE909450AF08FF94FF4A0530E4893
:102000000B9707A9CDE90735CDE909450AF084F911
:102010005820224605210AF035F858200AF064F8C5
:1020200019B0F0BD006801400038024000140240C1
:102030000000024000040240001802400008024074
:10204000000C024010B5044688B01422002103A8F9
:1020500028F07BFC2268144B9A4223D103F5684395
:10206000002101915A6C114842F480125A645A6C52
:1020700002F480120192019A02911A6B42F020023E
:102080001A631B6B03F020030293029B4FF46072F0
:1020900002230321CDE903230523CDE9061303A978
:1020A0000AF03AF908B010BD005001400014024097
:1020B0002DE9F04186B0002303932B4B1C68002CC4
:1020C0004FD14FF00108C3F80080284B00949A6B61
:1020D000274842EA08029A639B6B03EA08030093CD
:1020E000022703260C25009B01A94FF63F03CDE9EB
:1020F0000137CDE904650AF00FF91E48059501A9DD
:10210000CDE90187CDE903460AF006F948F2331319
:102110001948059501A9CDE90137CDE903460AF033
:10212000FBF84FF683731548059501A9CDE90137F2
:10213000CDE903460AF0F0F84CF203731048059518
:1021400001A9CDE90137CDE903460AF0E5F860239E
:102150000C48059501A9CDE90137CDE903460AF000
:10216000DBF806B0BDE8F0814030002000380240C6
:102170000014024000080240001802400010024013
:10218000000C02400004024070B588B000230293A6
:10219000204B1A6C42F010021A641B6C03F01003FF
:1021A0000293054601A903A8029B0BF085FA069B42
:1021B0004BBB0BF071FA184E184B336040F2E7330B
:1021C000F360174BB0FBF3F3013B73603046002321
:1021D0003361B360B3610CF0ADF8044680B93046AA
:1021E0000BF07EFF044658B9362009F07DFF0F2D15
:1021F0000DD822462946362009F044FF094B1D60C0
:10220000204608B070BD0BF047FA4000D3E7012428
:10221000F6E700BF003802404430002000100040C4
:1022200040420F00980000207047FEE7FEE7FEE7FF
:10223000FEE7704701480BF091BF00BF443000201B
:1022400001480AF0D1BE00BFFC2E0020014809F071
:1022500095BF00BFF82F00200120704708B528F077
:1022600017FC162303604FF0FF3008BD08B528F0B7
:102270000FFC16230360FEE770B50D4614460E46AC
:10228000731B9C4201DC204670BDAFF3008006F852
:10229000010BF5E770B50D4614460E46731B9C42C4
:1022A00001DC204670BD16F8010BAFF30080F5E7A6
:1022B0004FF0FF3070474FF400534B6000207047E1
:1022C00001207047002070470A4A116808B503468C
:1022D00009B9094911601068694603448B4206D95F
:1022E00028F0D6FB0C2303604FF0FF3008BD1360CD
:1022F000FCE700BF8C300020884C0120704708B5F7
:1023000008291AD8DFE801F01105090D1115151576
:10231000150005F0E1FB406808BD05F0DDFB8068B5
:10232000FAE705F0D9FBC068F6E705F0D5FB0068D1
:10233000F2E705F0D1FB0069EEE70020ECE710B50D
:102340000421044627F0BEF9204610BD806A70477C
:10235000704730B5036885B06D460181D3F884308D
:10236000014604462846984795E807003C3484E82F
:10237000070005B030BD30B5036885B06D464181BA
:10238000D3F88430014604462846984795E807006C
:102390003C3484E8070005B030BD00220280428052
:1023A0008280C280704780F83610704770B503682D
:1023B00004461B6B154698472368294620465B6EEA
:1023C000BDE87040184700207047806C7047704728
:1023D0007047704710B50821044627F073F920466E
:1023E00010BD10B54C21044627F06CF9204610BDF5
:1023F00010B54FF48071044627F064F9204610BDF3
:1024000008B5FFF74FF808BD036870B55E6B124B57
:102410001B6804468DB22BB9104B114A6C21114830
:1024200028F08CF81049828D0988914203D80F4B0F
:102430000B4A6D21F3E713F812200D4B1B6853F87C
:10244000220003681B6B9847291A3346204609B2BD
:10245000BDE87040184700BF9C3F01208BBB0208BD
:10246000CDBB020808BC0208A03F01204FBC0208F7
:10247000A43F012000224FF0FF31C0E9002182601B
:1024800070470000074A02600022C0E90122C0E94B
:102490000322C0E90522C0E907224FF4807282843A
:1024A000704700BFA4E5020870B5036804461B6BC3
:1024B000154698472368294620465B6BBDE8704067
:1024C0001847000010B526220446002128F03DFAE6
:1024D0002046FFF7D7FF0A4B23600A4BA3624FF653
:1024E000FF73A3854FF47F020023C4E90C322387D6
:1024F0004FF0FF32C4E91023E363204610BD00BF54
:102500006CE30208D8CF02082DE9F047044686B0F4
:1025100026460025FFF7B6FF524BA56246F82C3B36
:1025200029462622304628F010FA3046FFF7AAFF47
:102530004D4BE36204F15808FF2384F8523004F154
:10254000A00765654046FFF7BDFF3846FFF7BAFFB5
:10255000464BC4F8A030464BA3602A462946304675
:10256000C4F8E850FFF7A0FF30462D21FEF7E4FE47
:1025700030461E21FEF7E2FE4FF0FF336365314621
:1025800020460EF09BF86E462A46092140464FF041
:102590007F4AFFF789FFA4F88C5041463046C4F8C3
:1025A00088A011F0A5F896E8070004F1940383E8E9
:1025B0000700DFF8E090CDF810901E2304A94046F4
:1025C000ADF8143011F02EFB414620460EF076F89F
:1025D0000F2209213846FFF767FFD4F8A030A4F88E
:1025E000D450D3F88430C4F8D0A039463046984748
:1025F00096E8070004F1DC0383E807001D4B1B6825
:1026000004F1EC052BB91C4B1C4A60211C4827F037
:1026100095FF1C4B1B881C2B03D81B4B174A6121B1
:10262000F4E71A4B1C21186804F038FE184A0346D8
:102630000A21284617F0EFFE3846C4F8E85011F09A
:10264000D1FA1D2304A93846ADF81430CDF8109006
:1026500011F0E8FA204639460EF030F8204606B070
:10266000BDE8F08778D00208FCE30208E8CF020852
:102670002D001E009C3F01208BBB02088DBC020870
:1026800008BC0208A03F01204FBC0208A83F01205F
:10269000D8BC0208D8CF02080048704704D102080D
:1026A0000220704713B5002451B1036801948DF8DE
:1026B000034001AA9C680DF10303A04702B010BDBE
:1026C0000846FBE7C0897047008A7047C08870479A
:1026D00080887047807A00F07F007047807AC00958
:1026E00070470020704700009FED010A704700BF4F
:1026F0000000000070477047704770477047704790
:1027000070477047704790F82C304BB100F16C0265
:102710001268C2653BB100F174031B680366704721
:1027200000F16802F4E700F17003F6E730B4C26824
:1027300044685510034604EB6200D20748BF625953
:102740009B6830BC48BFD35818470346406830B137
:102750009A681AB9D86800F00100704701207047E4
:1027600090F82D3080F85A30704710B57821044623
:1027700026F0A8FF204610BD10B51021044626F013
:10278000A1FF204610BD10B54FF44C71044626F051
:1027900099FF204610BD10B50446006B50B1036888
:1027A000DB68984730B1206B036821469B68BDE821
:1027B0001040184710BD0B7970B590F82C60044696
:1027C0000D460BB916B170BD002EFCD0B3FA83F3E1
:1027D0005B0984F82C3023682046D3F88C30984766
:1027E000236820465B699847002EECD02B79012B9B
:1027F000E9D123682046D3F88830BDE870401847F7
:1028000038B500F1E003994204460D4603D114F0B7
:102810009DF800F0C1FC04F5AC739D4203D114F0A7
:1028200095F800F069FC04F5E874A54205D114F0B0
:102830008DF8BDE8384000F08FBC38BD70B5044657
:102840001D46BDF91060FFF72FFE2368294620467C
:102850009B6B9847236831462046DB6BBDE8704090
:102860001847000010B526220446002128F06DF814
:102870002046FFF707FE044B2360FF2384F8263031
:102880000023A362204610BDFCE3020870B5044695
:10289000FFF7F8FD4FF47F432646A385012300256B
:1028A00084F824300D4BA562256346F8343B30464E
:1028B000FFF7D8FF0A4B63632A4629463046C4E92E
:1028C0001A55C4E91C552566A4F86450FFF7ECFDC1
:1028D000204631460DF0F2FE204670BD34D102088C
:1028E00064E402082DE9F04F04468FB0A0460025AD
:1028F00016F0A2F8AC4BE56348F8403B04F16C0AD3
:102900004046FFF7AFFF04F198075046FFF7AAFFD4
:102910003846FFF7D7FD04F1E00318460493FFF7AC
:10292000B5FF04F5AC7318460593FFF7AFFF04F548
:10293000E87318460693FFF7A9FF04F512731846CB
:102940000293FFF7BFFD04F5247304F536791846AA
:102950000393FFF7B7FD4846FFF7B4FD934BC4E977
:10296000C834934B4FF4A07BC4E9CA352A46CDF84E
:1029700000B029464046F023261DFFF75FFF4FF0C9
:102980007F43A366414630460DF098FE2A46CDF8B7
:1029900000B029465046F023FFF750FF854BC4F89E
:1029A0009430514630460DF089FE1C2238463621BF
:1029B000FFF77AFD0DF120084FF07F43C4F8C830CF
:1029C00039464046A4F8CC5010F092FE98E8070033
:1029D00004F1D40383E80700DFF8ECB1CDF830B0A0
:1029E00029230CA93846ADF8343011F01BF93946CB
:1029F000304632270DF062FE2A46294604F58A70D9
:102A000000978423FFF71AFF6B4B6C4A6C496D48A3
:102A10004FF0050AC4E95232C4E95410A4F844A1A5
:102A20000498FFF770FE04F5487CC4F810C10498C0
:102A30000097842352223621CDF81CC0FFF7FEFEFA
:102A4000049930460DF03AFE2A46294604F5C67030
:102A500000978423FFF7F2FE574B584A58495948CC
:102A6000A4F8BCA1C4E97032C4E972100598FFF75C
:102A70004AFE079BC4F88831059800978423942266
:102A80003621FFF7DBFE059930460DF017FE2A468A
:102A9000294604F5017000978423FFF7CFFE464BCB
:102AA000464A47494748A4F834A2C4E98E32C4E9EB
:102AB00090100698FFF727FE079BC4F8003206988F
:102AC00000978423DA223621FFF7B8FE06993046B4
:102AD0000DF0F4FD029864225A21FFF7E5FC4FF057
:102AE0007F430299C4F878324046A4F87C5210F033
:102AF000FFFD98E8070004F5217383E80700282309
:102B00000298ADF834300CA9CDF830B011F08AF845
:102B1000029930460DF0D2FD0398A6223E21FFF720
:102B2000C3FC4FF07F430399C4F8C0324046A4F879
:102B3000C45210F0DDFD98E8070004F5337383E814
:102B4000070027230398ADF834300CA9CDF830B036
:102B500011F068F8039930460DF0B0FDEC224846BC
:102B60005E21FFF7A1FC4FF07F43C4F808334946CC
:102B70004046A4F80C5310F0BBFD98E8070004F59C
:102B8000457383E8070026230CA94846ADF8343086
:102B9000CDF830B011F046F8304649460DF08EFDC4
:102BA00020460FB0BDE8F08FE8D10208D0D102086E
:102BB00001280008585873FF996600FFCC9900FF60
:102BC000663300FF996633FFD8CF0208704770471D
:102BD00000F598730868496803C3704770477047E9
:102BE0004160704770477047064BC0F84C31002376
:102BF000C0F8503100F5A273C0F84801C0F8403168
:102C0000704700BFBD34000801230372704770474E
:102C1000704770477047704770477047704738B5C6
:102C2000054640680368DB699847044604B938BD27
:102C3000A188AB89C91A236820461B6B09B2984743
:102C4000A469F3E7704710B4C268416854100346A2
:102C500001EB6200D20748BF0A599B685DF8044B3C
:102C600048BFD35818470346406830B19A681AB92C
:102C7000D86800F0010070470120704710B514219A
:102C8000044626F01FFD204610BD10B50C21044659
:102C900026F018FD204610BD10B51021044626F080
:102CA00011FD204610BD10B51421044626F00AFD82
:102CB000204610BD10B51021044626F003FD204625
:102CC00010BD10B54FF4AE71044626F0FBFC204653
:102CD00010BD10B54021044626F0F4FC204610BD7E
:102CE00010B513F033FE0368BDE81040DB6B1847E6
:102CF00010B513F02BFE0368BDE810405B6B18475E
:102D000010B513F023FE0368BDE810405B6B184755
:102D100070B50446B2B01E49C02202A827F0E5FEF5
:102D2000237C2F2B03D90123237232B070BD33B91A
:102D3000184B1B781BB113F009FE13F00DFE022592
:102D4000237C302BF1D832AA02EB8303E68953F8B7
:102D5000C03C608993FBF6F206FB123313FB00F3D1
:102D6000ADF804006068A189ADF800300368ADF8E3
:102D7000061012FB01F21B69ADF802206946984764
:102D8000237C012D03F101032374CED00125D7E765
:102D900090B50208423F012013B50446807A637A59
:102DA0000130C0B29842A07205D9012323720023DA
:102DB000A37202B010BDB4F90C20002115F0EEFF93
:102DC000C30707D500284FF6FF73C8BF012313FAC6
:102DD00080F000B2144AE08112880023ADF802307E
:102DE00083B2D21AADF80020228A20829B1AADF855
:102DF00004300E4B1B88ADF8063013F0A7FD0368B6
:102E000002AA1B6C12E906009847A37A012BD0D1C5
:102E1000074B1B78002BCCD013F098FD02B0BDE817
:102E2000104013F099BD00BF383F01203A3F012008
:102E3000423F012037B50546807A6B7A0130C0B237
:102E40009842A87205D901232B720023AB7203B0FC
:102E500030BDB5F90C20B5F90E40002115F09EFFEC
:102E6000C30707D500284FF6FF73C8BF012313FA25
:102E700080F000B2AB7AE881041B012BA4B206D12A
:102E8000174B1B781BB113F061FD13F065FD154A5C
:102E900000231288ADF80230EB891A445B42ADF88A
:102EA0000430114BADF800201B88ADF8063013F04C
:102EB0004DFD036802AA12E906001B6C984768687A
:102EC0000368DB6998470546002DC0D0A9882B68A8
:102ED000214428461B6B09B29847AD69F4E700BF4F
:102EE000423F0120383F01203A3F0120054B1B782B
:102EF00001462BB1406818B103680C315B6E18476E
:102F0000704700BF433F0120037A70B50546BBB947
:102F100040680368DB69984704463CB96868036801
:102F200005F10C011B6EBDE870401847A1886B8F3E
:102F3000C91A236820461B6B09B29847A469ECE7BD
:102F400070BD10B50446D0F8400158B10368DB6885
:102F5000984738B1D4F8400103689B68984700232C
:102F6000C4F8403110BD70B5044690F8390094F8AB
:102F700038300130C0B2984284F8390005D90123B5
:102F80002372002384F8393070BDB4F93A2000214F
:102F900015F004FFC30706D500284FF6FF73C8BF1E
:102FA0000123184400B2238AC01AA087606803680E
:102FB000DB69984705462DB960680368BDE8704035
:102FC0005B691847A988A38F19442B6828461B6B97
:102FD00009B29847AD69EEE7044B1B6893F8582097
:102FE0000AB1D86C00B99868704700BF443F01200F
:102FF000F8B5174604460E4613F0DCFD124B1C6074
:10300000124B2360124B0025C4E95135114BC4E922
:1030100053551868036801219B68C4E94F55C4E9FA
:1030200055769847284604F0FDF8FFF7D5FF1EF0C7
:1030300046FAFFF7D1FF1EF0BDFAFFF7CDFF1EF0F5
:10304000C5FA2046F8BD00BF983F012034D20208DF
:103050001CD20208443F0120064BC0F84C3100232B
:10306000C0F8503100F5A273C0F84801C0F84031F3
:10307000704700BFBD340008064BC0F84C31002338
:10308000C0F8503100F5A273C0F84801C0F84031D3
:10309000704700BF1D3B0008064BC0F84C310023B1
:1030A000C0F8503100F5A273C0F84801C0F84031B3
:1030B000704700BF5D330008064BC0F84C31002359
:1030C000C0F8503100F5A273C0F84801C0F8403193
:1030D000704700BFE5310008064BC0F84C310023B3
:1030E000C0F8503100F5A273C0F84801C0F8403173
:1030F000704700BFE1390008064BC0F84C3100238F
:10310000C0F8503100F5A273C0F84801C0F8403152
:10311000704700BF79400008064BC0F84C310023CF
:10312000C0F8503100F5A273C0F84801C0F8403132
:10313000704700BFA5380008064BC0F84C3100238B
:10314000C0F8503100F5A273C0F84801C0F8403112
:10315000704700BF69370008064BC0F84C310023A8
:10316000C0F8503100F5A273C0F84801C0F84031F2
:10317000704700BF3D3F0008064BC0F84C310023AC
:10318000C0F8503100F5A273C0F84801C0F84031D2
:10319000704700BF053E0008064BC0F84C310023C5
:1031A000C0F8503100F5A273C0F84801C0F84031B2
:1031B000704700BFCD3C0008064BC0F84C310023DF
:1031C000C0F8503100F5A273C0F84801C0F8403192
:1031D000704700BF3136000803685B6A1847036810
:1031E0005B6A18472DE9F047D0E955690546B06894
:1031F00003681B6A9847B0F54D7F05D24D4B4E4A88
:10320000A3214E4827F09AF9706803681B6A984713
:103210000F2803D84A4B484AA421F2E7F068036814
:103220001B6A9847132803D8464B434AA521E8E771
:1032300013F08CFBDFF82081043013F0EDFBD8F89D
:10324000000010B10368DB689847D8F8000010B19F
:1032500003681B6898473C4F386810B103685B6986
:103260009847D5F83C0110B103685B689847386807
:1032700010B103681B689847D5F83C0110B103688A
:103280009B689847F068036800215B6A98470023B1
:103290004360037203742D4B2D4A02601A882D4B34
:1032A0001B889A4204463DD9073206210533D208CD
:1032B000B3FBF1F308219BB26281A381E181B06885
:1032C0000021FFF789FF824604F092FC706800211C
:1032D000FFF785FF5146064604F068FC331DC5F82C
:1032E0003C61C8F80040C7F800A0C9F80030DAF81F
:1032F0000030C6F808905046DB68CAF83C60984732
:10330000336830461B6898472146504615F040FD0B
:10331000236820461B699847236820465B69BDE8FF
:10332000F0471847073305320621DB08B2FBF1F2FC
:1033300092B2C1E7DBBC020869BD020848BE0208C0
:103340008FBE020832BF0208883F0120383F0120AB
:10335000ACD202083A3F01208C3F01202DE9F14F09
:10336000D0E9556A0746B06803681B6A9847B0F50C
:103370004D7F05D2484B494AA321494827F0DEF842
:10338000706803681B6A98470F2803D8454B434A67
:10339000A421F2E7F06803681B6A9847132803D852
:1033A000414B3E4AA521E8E713F0D0FADFF804913B
:1033B000043013F031FBD9F8000010B10368DB686A
:1033C0009847D9F8000010B103681B689847DFF8E8
:1033D000E880D8F8000010B103685B699847D7F817
:1033E0003C0110B103685B689847D8F8000010B141
:1033F00003681B689847D7F83C0110B103689B68C5
:103400009847F068036800215B6A9847274B036080
:103410004FF4A0530381264B4FF0000B1B8880F81C
:103420000AB0044683815946C0F804B0A0F80EB033
:10343000A0F810B0B068FFF7CFFE054604F0D8FB47
:1034400059467068FFF7CBFE2946064604F0AEFBEE
:10345000331DC7F83C61C9F80040C8F80050CAF8ED
:1034600000302B68C6F808A02846DB68EE63984752
:10347000336830461B6898472146284615F088FC7B
:10348000236820461B69984723685B69204601B082
:10349000BDE8F04F184700BFDBBC0208D5BF0208EB
:1034A00048BE02088FBE020832BF0208D0D202080E
:1034B000383F01208C3F0120883F01202DE9F14F4A
:1034C000D0E9556A0746B06803681B6A9847B0F5AB
:1034D0004D7F05D2434B444AA321444827F02EF8A0
:1034E000706803681B6A98470F2803D8404B3E4A10
:1034F000A421F2E7F06803681B6A98470B2803D8F9
:103500003C4B394AA521E8E713F020FADFF8EC90AC
:10351000043013F081FAD9F8000010B10368DB68B9
:103520009847D9F8000010B103681B689847DFF886
:10353000D080D8F8000010B103685B699847D7F8CD
:103540003C0110B103685B689847D8F8000010B1DF
:1035500003681B689847D7F83C0110B103689B6863
:103560009847F068036800215B6A98474FF0000BAA
:10357000214B036004465946C0F804B080F808B0F7
:10358000B068FFF729FE054604F032FB5946706823
:10359000FFF725FE2946064604F008FB331DC7F851
:1035A0003C61C9F80040C8F80050CAF800302B68E8
:1035B000C6F808A02846DB68EE63984733683046B3
:1035C0001B6898472146284615F0E2FB23682046F1
:1035D0001B69984723685B69204601B0BDE8F04F3E
:1035E000184700BFDBBC0208C3C0020848BE02087F
:1035F0008FBE020832BF020888D202088C3F012029
:10360000883F012003685B6A18470000002210B55C
:10361000426002728272C281034A044C12880460C2
:1036200052424172828110BD383F0120F4D202081B
:103630002DE9F047D0E9556A0746B06803681B6A70
:103640009847B0F57D7F05D2404B414AA3214148C0
:1036500026F074FF706803681B6A98470F2803D828
:103660003D4B3B4AA421F2E7F06803681B6A984788
:103670000F2803D8394B364AA521E8E713F066F93D
:10368000DFF8DC90043013F0C7F9D9F8000010B16E
:103690000368DB689847D9F8000010B103681B681D
:1036A0009847DFF8C080D8F8000010B103685B6964
:1036B0009847D7F83C0110B103685B689847D8F881
:1036C000000010B103681B689847D7F83C0110B19F
:1036D00003689B689847F0680021FFF793FF142167
:1036E0000446FFF793FFB068036800215B6A9847C0
:1036F000054607F023FC7068036800215B6A984761
:103700002946064607F0F8FB331DC7F83C61C9F8A7
:103710000040C8F80050CAF800302B68C6F808A06E
:103720002846DB68EE639847336830461B68984745
:103730002146284615F02CFB236820461B69984734
:10374000236820465B69BDE8F0471847DBBC0208E8
:103750009FC1020848BE02088FBE020832BF02089D
:103760008C3F0120883F01202DE9F047D0E9556AC0
:103770000746B06803681B6A984741F243239842A2
:1037800005D8414B414AA321414826F0D7FE706835
:1037900003681B6A98470F2803D83E4B3B4AA42175
:1037A000F2E7F06803681B6A98470F2803D83A4B82
:1037B000364AA521E8E713F0C9F8DFF8E0900430B5
:1037C00013F02AF9D9F8000010B10368DB689847B4
:1037D000D9F8000010B103681B689847DFF8C08073
:1037E000D8F8000010B103685B699847D7F83C012E
:1037F00010B103685B689847D8F8000010B10368FF
:103800001B689847D7F83C0110B103689B6898473C
:10381000F0680021FFF7F6FE14210446FFF7F6FEDC
:10382000B068036800215B6A9847054604F090FB86
:103830007068036800215B6A98472946064604F0D1
:1038400057FB331DC7F83C61C9F80040C8F8005069
:10385000CAF800302B68C6F808A02846DB68EE637B
:103860009847336830461B6898472146284615F02C
:103870008FFA236820461B699847236820465B69B6
:10388000BDE8F047184700BFDBBC02089AC2020837
:1038900048BE02088FBE020832BF02088C3F0120DA
:1038A000883F01202DE9F047D0E9556A0746B06806
:1038B00003681B6A984740F60343984205D8414B7A
:1038C000414AA321414826F039FE706803681B6A0B
:1038D00098470F2803D83E4B3B4AA421F2E7F068F3
:1038E00003681B6A98470F2803D83A4B364AA5212C
:1038F000E8E713F02BF8DFF8E090043013F08CF8D1
:10390000D9F8000010B10368DB689847D9F80000C7
:1039100010B103681B689847DFF8C080D8F8000032
:1039200010B103685B699847D7F83C0110B1036890
:103930005B689847D8F8000010B103681B68984787
:10394000D7F83C0110B103689B689847F0680021E4
:10395000FFF758FE14210446FFF758FEB0680368CD
:1039600000215B6A9847054605F02AF870680368ED
:1039700000215B6A98472946064604F0F1FF331D93
:10398000C7F83C61C9F80040C8F80050CAF80030D8
:103990002B68C6F808A02846DB68EE6398473368B2
:1039A00030461B6898472146284615F0F1F92368F0
:1039B00020461B699847236820465B69BDE8F047AD
:1039C000184700BFDBBC020885C3020848BE0208D6
:1039D0008FBE020832BF02088C3F0120883F0120C1
:1039E0002DE9F047D0E9556A0746B06803681B6ABD
:1039F000984741F62313984205D8414B414AA321E9
:103A0000414826F09BFD706803681B6A98470F28A1
:103A100003D83E4B3B4AA421F2E7F06803681B6AD7
:103A200098470F2803D83A4B364AA521E8E712F009
:103A30008DFFDFF8E090043012F0EEFFD9F80000BF
:103A400010B10368DB689847D9F8000010B103682B
:103A50001B689847DFF8C080D8F8000010B10368F1
:103A60005B699847D7F83C0110B103685B689847D9
:103A7000D8F8000010B103681B689847D7F83C01DC
:103A800010B103689B689847F0680021FFF7BAFD02
:103A900014210446FFF7BAFDB068036800215B6A91
:103AA0009847054605F044FC7068036800215B6A8E
:103AB00098472946064605F00BFC331DC7F83C61C4
:103AC000C9F80040C8F80050CAF800302B68C6F8A2
:103AD00008A02846DB68EE639847336830461B68C9
:103AE00098472146284615F053F9236820461B695C
:103AF0009847236820465B69BDE8F047184700BF38
:103B0000DBBC02086EC4020848BE02088FBE020871
:103B100032BF02088C3F0120883F01202DE9F04789
:103B2000D0E9556A0746B06803681B6A9847B0F544
:103B30004D7F05D23F4B404AA321404826F0FEFC72
:103B4000706803681B6A98470F2803D83C4B3A4AB1
:103B5000A421F2E7F06803681B6A98470F2803D88E
:103B6000384B354AA521E8E712F0F0FEDFF8D8908F
:103B7000043012F051FFD9F8000010B10368DB687F
:103B80009847D9F8000010B103681B689847DFF820
:103B9000BC80D8F8000010B103685B699847D7F87B
:103BA0003C0110B103685B689847D8F8000010B179
:103BB00003681B689847D7F83C0110B103689B68FD
:103BC0009847F0680021FFF71DFD14210446FFF718
:103BD0001DFD0021B068FFF7FFFA054604F008F864
:103BE00070680021FFF7FBFA2946064603F0DEFF66
:103BF000331DC7F83C61C9F80040C8F80050CAF846
:103C000000302B68C6F808A02846DB68EE639847AA
:103C1000336830461B6898472146284615F0B8F8A7
:103C2000236820461B699847236820465B69BDE8E6
:103C3000F0471847DBBC020857C5020848BE020817
:103C40008FBE020832BF02088C3F0120883F01204E
:103C500003685B6A184700002DE9F041054600261D
:103C6000164B4660067245F80C3B044628460F4644
:103C70000FF03EFC124B84F838701B7884F83960E2
:103C8000A68723B9012323722046BDE8F0810D4B9E
:103C90000D4FB3F90080E368B7F900109B6B266104
:103CA00028469847E3684146DB6B284698472846F4
:103CB0000FF099FB3B885B426387E5E718D3020866
:103CC000433F01203A3F0120383F01202DE9F047D2
:103CD000D0E9556A0746B06803681B6A9847B0F593
:103CE0007D7F05D2404B414AA321414826F026FC66
:103CF000706803681B6A98470F2803D83D4B3B4AFE
:103D0000A421F2E7F06803681B6A98473F2803D8AC
:103D1000394B364AA521E8E712F018FEDFF8DC90AF
:103D2000043012F079FED9F8000010B10368DB68A6
:103D30009847D9F8000010B103681B689847DFF86E
:103D4000C080D8F8000010B103685B699847D7F8C5
:103D50003C0110B103685B689847D8F8000010B1C7
:103D600003681B689847D7F83C0110B103689B684B
:103D70009847F0680021FFF76BFF14210446FFF716
:103D80006BFFB068036800215B6A9847054607F03F
:103D9000D5F87068036800215B6A98472946064693
:103DA00007F0AAF8331DC7F83C61C9F80040C8F80D
:103DB0000050CAF800302B68C6F808A02846DB6817
:103DC000EE639847336830461B689847214628467B
:103DD00014F0DEFF236820461B69984723682046BD
:103DE0005B69BDE8F0471847DBBC020846C602081D
:103DF00048BE02088FBE020832BF02088C3F012075
:103E0000883F01202DE9F047D0E9556A0746B068A0
:103E100003681B6A9847B0F54C7F05D2404B414A76
:103E2000A321414826F08AFB706803681B6A984703
:103E30000F2803D83D4B3B4AA421F2E7F068036802
:103E40001B6A98473F2803D8394B364AA521E8E733
:103E500012F07CFDDFF8DC90043012F0DDFDD9F8C3
:103E6000000010B10368DB689847D9F8000010B172
:103E700003681B689847DFF8C080D8F8000010B1CD
:103E800003685B699847D7F83C0110B103685B6829
:103E90009847D8F8000010B103681B689847D7F816
:103EA0003C0110B103689B689847F0680021FFF758
:103EB000CFFE14210446FFF7CFFEB068036800214F
:103EC0005B6A9847054603F0D5FF706803680021D8
:103ED0005B6A98472946064603F0AAFF331DC7F8D8
:103EE0003C61C9F80040C8F80050CAF800302B689F
:103EF000C6F808A02846DB68EE639847336830466A
:103F00001B6898472146284614F042FF2368204644
:103F10001B699847236820465B69BDE8F04718474E
:103F2000DBBC020841C7020848BE02088FBE020877
:103F300032BF02088C3F0120883F01202DE9F04765
:103F4000D0E9556A0746B06803681B6A984741F292
:103F50003313984205D8414B414AA321414826F0EA
:103F6000EDFA706803681B6A98470F2803D83E4B28
:103F70003B4AA421F2E7F06803681B6A98473F2890
:103F800003D83A4B364AA521E8E712F0DFFCDFF808
:103F9000E090043012F040FDD9F8000010B1036841
:103FA000DB689847D9F8000010B103681B68984790
:103FB000DFF8C080D8F8000010B103685B6998474B
:103FC000D7F83C0110B103685B689847D8F8000047
:103FD00010B103681B689847D7F83C0110B103681B
:103FE0009B689847F0680021FFF732FE14210446D1
:103FF000FFF732FEB068036800215B6A9847054608
:1040000005F0BAFE7068036800215B6A984729468C
:10401000064605F081FE331DC7F83C61C9F8004033
:10402000C8F80050CAF800302B68C6F808A0284627
:10403000DB68EE639847336830461B689847214633
:10404000284614F0A5FE236820461B69984723687C
:1040500020465B69BDE8F047184700BFDBBC02089B
:1040600034C8020848BE02088FBE020832BF0208E8
:104070008C3F0120883F01202DE9F047D0E9556AA7
:104080000746B06803681B6A984741F66303984285
:1040900005D8414B414AA321414826F04FFA7068A8
:1040A00003681B6A98470F2803D83E4B3B4AA4215C
:1040B000F2E7F06803681B6A98473F2803D83A4B39
:1040C000364AA521E8E712F041FCDFF8E090043021
:1040D00012F0A2FCD9F8000010B10368DB68984721
:1040E000D9F8000010B103681B689847DFF8C0805A
:1040F000D8F8000010B103685B699847D7F83C0115
:1041000010B103685B689847D8F8000010B10368E5
:104110001B689847D7F83C0110B103689B68984723
:10412000F0680021FFF794FD14210446FFF794FD89
:10413000B068036800215B6A9847054606F018FBE3
:104140007068036800215B6A98472946064606F0B6
:10415000DFFA331DC7F83C61C9F80040C8F80050C9
:10416000CAF800302B68C6F808A02846DB68EE6362
:104170009847336830461B6898472146284614F014
:1041800007FE236820461B699847236820465B6921
:10419000BDE8F047184700BFDBBC020839C9020878
:1041A00048BE02088FBE020832BF02088C3F0120C1
:1041B000883F012070477047704730B4C268446838
:1041C0005510034604EB6200D20748BF62599B6852
:1041D00030BC48BFD35818470346406830B19A688E
:1041E0001AB9D86800F0010070470120704710B577
:1041F0001021044625F066FA204610BD10B54FF494
:104200004C71044625F05EFA204610BD00F50E7094
:10421000884208B505D112F099FBBDE80840FEF7C9
:104220004BBF08BD2DE9F04F04468DB0A0460025D8
:1042300014F002FC834BE56348F8403B04F16C0A40
:10424000404604F19807FEF70DFB5046FEF70AFBC7
:1042500004F1E0093846FEF735F904F5AC76484636
:10426000FEF714FB3046FEF72DF904F5D07318461F
:10427000DFF8FCB10293FEF725F904F5F673C4F8F4
:10428000A0B11846C4F8E8510393FEF71BF904F5F2
:104290000E73C4F8ECB11846C4F834520593FEF717
:1042A000F5FA04F52C7318460493FEF70BF9664BE8
:1042B000C4E9C834654BC4E9CA354FF4A0732A4633
:1042C000404600932946F023FEF7B8FA04F1040BA8
:1042D0004FF07F434146A36658460CF0EFF94FF488
:1042E000A0732A46504600932946F023FEF7A6FA0B
:1042F000574BC4F89430514658460CF0DFF92E2243
:1043000038462621FEF7D0F80DF118084FF07F430C
:104310003946C4F8C8304046A4F8CC500FF0E8F94C
:1043200098E8070004F1D40383E80700494B0A9397
:104330004FF00A0238460AA9ADF82C200FF072FCA3
:104340003946584635270CF0B9F96E2329462A46D6
:1043500004F58A700097FEF771FA4FF00502A4F891
:1043600044213D4AC4F8482102F54C523332C4F886
:104370004C21A2F5CC42663AC4F8502102F1331226
:1043800002F54C524846C4F85421FEF7BCF96E239E
:104390006222484641210097FEF750FA49465846A6
:1043A0000CF08CF96F2254213046FEF77DF84FF067
:1043B0007F42C4F8882131464046A4F88C510FF062
:1043C00097F998E8070004F5CA7383E80700214BC2
:1043D0000A930AA909233046ADF82C300FF022FCCD
:1043E000314658460CF06AF981220298DFF8849031
:1043F0005421FEF759F84FF07F43C4F8D031D4F878
:10440000A0310299D3F88430A4F8D451404698479B
:1044100098E8070004F5EE7383E80700D9F8003048
:1044200004F53E7A2BB90D4B0D4A60210D4826F05C
:1044300085F80D4F3B881F2B1ED80C4B084A612175
:10444000F4E700BF54D302083CD302080D42000831
:104450003E54B0FFD8CF0208996600FF8BBB02081C
:104460008DBC020808BC0208A03F01204FBC020816
:10447000E8CF02089C3F0120584E1F21306802F00F
:104480000DFF574A03460A21504615F0C4FF029813
:10449000C4F8E8A10FF0A6FB524B02980A930AA9B0
:1044A0000823ADF82C300FF0BDFB029958460CF0F4
:1044B00005F9039881228321FDF7F6FFD4F8EC314A
:1044C0000399D3F88430A4F820524FF07F42C4F807
:1044D0001C224046984798E8070004F50A7383E8D1
:1044E0000700D9F8003004F5437A002B9BD03B88B5
:1044F0001C2BA2D930683B4F1C2102F0CFFE384A5A
:1045000003460A21504615F086FF0398C4F834A2EA
:104510000FF068FB07230398ADF82C300AA9392661
:104520000A970FF07FFB039958460CF0C7F82A460C
:10453000294604F51B7000966E23FEF77FF94FF0B5
:104540000503A4F89C32284BC4F8A03203F54C5361
:104550003333C4F8A432A3F5CC43663BC4F8A83285
:1045600003F1331303F54C530598C4F8AC32FEF74E
:10457000CAF804F54873C4F86832059800966E23AB
:10458000B2224121FEF75AF9059958460CF096F8E7
:104590000498C2225221FDF787FF4FF07F43049910
:1045A000C4F8E0324046A4F8E4520FF0A1F898E8CD
:1045B000070004F53B7383E8070006230498ADF871
:1045C0002C300AA90A970FF02DFB584604990CF0DD
:1045D00075F820460DB0BDE8F08F00BFA83F012060
:1045E000D8BC0208D8CF0208996600FF406A70471D
:1045F000806A704770478A880B8810B5D20A4C8849
:10460000C1699BB251F8220043EA0443184410BD2B
:1046100010B50446BAB1107B68B1537BD27A1B0245
:1046200003F4E0631A43236A03EB82031A888A4285
:1046300002D193F9020010BD05D8013880B20433CD
:104640000028F3D1F7E70020F5E710B52C21044648
:1046500025F038F8204610BD30B58BB00446BDF8C3
:1046600060500895BDF85C5007959DF85050069530
:104670009DF84C5005959DF8485004959DF8445080
:1046800003959DF8405002959DF83C500195BDF86A
:104690003850009513F0D6FF064B2360159BE3615D
:1046A000169B2362199B63621A9BA36220460BB080
:1046B00030BD00BF88D3020870477047704730B4E0
:1046C000C26844685510034604EB6200D20748BF35
:1046D00062599B6830BC48BFD358184703464068AE
:1046E00030B19A681AB9D86800F00100704701200B
:1046F000704730B4C26844685510034604EB62004A
:10470000D20748BF62599B6830BC48BFD35818478E
:104710000346406830B19A681AB9D86800F00100C1
:1047200070470120704710B51021044624F0CAFFDD
:10473000204610BD10B51021044624F0C3FF2046CA
:1047400010BD10B5044600F5FE7003F017FA04F52D
:10475000447004F0EDF804F2FC4006F0E8FD04F5C6
:10476000B96006F0E4FD04F2946006F0E0FD04F5A3
:10477000EC6006F0DCFD04F62C0006F0D8FD04F633
:10478000F80006F0D4FD04F6C41006F0D0FD04F5E0
:10479000296006F0CCFD04F65C3006F0C8FD04F696
:1047A000284006F0C4FD04F6F44006F0C0FD04F510
:1047B0005C6006F0BCFD04F68C6006F0B8FD04F603
:1047C000587006F0B4FD04F58150043006F0AFFDDA
:1047D00004F587501030BDE8104006F0A8BD00F188
:1047E0006C028A4208B508D10368DB6A984712F068
:1047F000ADF8BDE80840FEF7BFBC08BD38B500F510
:10480000AC73994204460D4603D112F09FF8FEF7AF
:10481000D3FCE034A54205D112F098F8BDE8384049
:10482000FEF73ABC38BD0000F8B5194B018F1B8864
:104830008B4206462AD9174B1B682BB9164B174AD1
:1048400017486C2125F07AFE13F81120154B1B68D0
:1048500053F82250144B186802F020FD2B680746CD
:104860009B6B284698472B6804469B6C3946284624
:1048700098472B6814FB00F45B6A39462846984732
:10488000A4B223181BB2A6F84630F8BD0023FAE7FD
:10489000A03F01209C3F01208BBB0208CDBB02083A
:1048A00008BC0208A43F0120A83F012010B5034B1B
:1048B0000360044602F06EFF204610BDACDD020826
:1048C0002A4B10B50446036000F587501030FFF7FF
:1048D000EDFF04F581500430FFF7E8FF04F658704F
:1048E000FFF7E4FF04F68C60FFF7E0FF04F55C607F
:1048F000FFF7DCFF04F6F440FFF7D8FF04F628408A
:10490000FFF7D4FF04F65C30FFF7D0FF04F5296011
:10491000FFF7CCFF04F6C410FFF7C8FF04F6F80059
:10492000FFF7C4FF04F62C00FFF7C0FF04F5EC60AE
:10493000FFF7BCFF04F29460FFF7B8FF04F5B9601D
:10494000FFF7B4FF04F2FC40FFF7B0FF084BC4F8D8
:10495000103304F5447000F067FA064BC4F8FC31DC
:1049600004F5FE70FDF734FD204610BD20D402088A
:104970004CDB02084CD9020810B50446FFF7A0FF33
:10498000204641F2DC1124F09DFE204610BD10B5FA
:104990000446FFF78BFF2046CC2124F093FE2046EF
:1049A00010BD00002DE9F04F04469FB0A046002640
:1049B00014F042F8DD4BE66348F8403B04F16C0725
:1049C0004046FDF74FFF38460FF014FC04F1B403E6
:1049D000184604F5AC790493FDF744FF04F1E000B8
:1049E000FDF754FF4846FDF751FF04F5E8731846FC
:1049F0000593FDF737FF04F5FE731846069303F0A1
:104A0000A1F804F544731846079303F075FF04F208
:104A1000244318460293FDF755FD04F26C40FDF760
:104A200051FD04F2B44318460393FDF74BFD04F225
:104A3000FC431846089306F0D1FB04F5B963184609
:104A4000099306F0CBFB04F2946318460A9306F030
:104A5000C5FB04F5EC6318460B9306F0BFFB04F6A8
:104A60002C0318460C9306F0B9FB04F6F80318461D
:104A70000D9306F0B3FB04F6C41318460E9306F02C
:104A8000ADFB04F5296318460F9306F0A7FB04F667
:104A90005C331846109306F0A1FB04F62843184631
:104AA000119306F09BFB04F6F4431846129306F0AC
:104AB00095FB04F55C631846139306F08FFB04F630
:104AC0008C631846149304F5815B06F087FB04F6AB
:104AD000587318460BF1040B04F5875A15930AF125
:104AE000100A06F07BFB584606F078FB504606F0AD
:104AF00075FB8F4A04F58053C3E96F248D4AC3E9DF
:104B000071268D4AC3E973248C4AC3E975264FF494
:104B1000A0733246009331464046F023251DFDF731
:104B20008DFE4FF07F43A366414628460BF0C6FD3D
:104B3000314638461E22FDF7B7FC1CAA1BA90123EB
:104B40003846ADF87030ADF86C600FF0C8F80E2341
:104B5000A4F8A4303846FFF767FE794A4FF0FF33D8
:104B6000C4E92A2304F58D531C33C4F89430394624
:104B7000284650270BF0A2FD324604980097314694
:104B8000F023FDF75BFE4FF07F430499C4F8DC305F
:104B900028464FF022080BF091FD32463146CDF801
:104BA000008004F5C6706423FDF748FE0523A4F8D1
:104BB000BC31644BC4F8C03103F54C533333C4F8F3
:104BC000C431A3F5CC43663BC4F8C83103F13313B9
:104BD00003F54C53C4F8CC314846FDF794FD04F579
:104BE0008E530C33C4F888312422CDF8008064231E
:104BF00048464621FDF722FE494628460BF05EFD59
:104C0000F0233A46059800933146FDF717FE4E4BC8
:104C1000C4F8F8310599DFF8389128460BF04EFDBD
:104C200006980622AD21FDF73FFC069928460BF0B9
:104C300045FD079806228021FDF736FC0799284696
:104C40000BF03CFD029809221021FDF72DFC0DF11F
:104C500058083E4B0299C4F854344046A4F85864AE
:104C60000EF046FD98E8070004F58C6383E8070022
:104C700011230298ADF874301CA9CDF870900EF095
:104C8000D1FF029928460BF019FD03982C226421CC
:104C9000FDF70AFC4FF07F430399C4F8E434404623
:104CA000A4F8E8640EF024FD98E8070004F59E637C
:104CB00083E807000F230398ADF874301CA9CDF8E2
:104CC00070900EF0AFFF039928460BF0F7FC3A46C0
:104CD00008983146FDF7E8FB089928460BF0EEFCF2
:104CE0003A4609983C21FDF7DFFB099928460BF06D
:104CF000E5FC3A460A987821FDF7D6FB0A99284642
:104D00000BF0DCFC3A460B98B421FDF7CDFB0B9978
:104D100028460BF0D3FC0C988C223146FDF7C4FBDF
:104D20000C9928460BF0CAFC0D9813E020D4020819
:104D3000F0D30208DF47000808D40208FD47000846
:104D40006767B5FF996600FF656E77FF1B6EE3FF2F
:104D5000D8CF02088C223C21FDF7A6FB0D992846EE
:104D60000BF0ACFC0E988C227821FDF79DFB0E9980
:104D700028460BF0A3FC0F988C22B421FDF794FB7E
:104D80000F9928460BF09AFC1098C8223146FDF77F
:104D90008BFB109928460BF091FC1198C8223C21FE
:104DA000FDF782FB119928460BF088FC1298C82267
:104DB0007821FDF779FB129928460BF07FFC1398B8
:104DC000C822B421FDF770FB139928460BF076FC3E
:104DD00014984FF482723146FDF766FB1499284609
:104DE0000BF06CFC15984FF482723C21FDF75CFBD4
:104DF000159928460BF062FC4FF4827258467821D0
:104E0000FDF752FB594628460BF058FC4FF48272CE
:104E10005046B421FDF748FB284651460BF04EFCA6
:104E200020461FB0BDE8F08F7047704710B54FF4B3
:104E30008071044624F046FC204610BD2DE9F04761
:104E4000044686B026460025FDF71CFB524BA562A2
:104E500046F82C3B29462622304625F076FD304682
:104E6000FDF710FB4D4BE36204F15808FF2384F873
:104E7000523004F1A00765654046FDF723FB384634
:104E8000FDF720FB464BC4F8A030464BA3602A46F2
:104E900029463046C4F8E850FDF706FB30462D2180
:104EA000FCF74AFA30461E21FCF748FA4FF0FF3370
:104EB0006365314620460BF001FC6E462A4606210A
:104EC00040464FF07F4AFDF7EFFAA4F88C50414678
:104ED0003046C4F888A00EF00BFC96E8070004F1F9
:104EE000940383E80700DFF8E090CDF810902123C9
:104EF00004A94046ADF814300EF094FE4146204619
:104F00000BF0DCFB0F2209213846FDF7CDFAD4F86F
:104F1000A030A4F8D450D3F88430C4F8D0A03946D7
:104F20003046984796E8070004F1DC0383E8070061
:104F30001D4B1B6804F1EC052BB91C4B1C4A60216E
:104F40001C4825F0FBFA1C4B1B881F2B03D81B4B5E
:104F5000174A6121F4E71A4B1F21186802F09EF9E5
:104F6000184A03460A21284615F055FA3846C4F86F
:104F7000E8500EF037FE202304A93846ADF814306F
:104F8000CDF810900EF04EFE204639460BF096FB01
:104F9000204606B0BDE8F08758D40208FCE30208BA
:104FA000E8CF02082D001E009C3F01208BBB0208A9
:104FB0008DBC020808BC0208A03F01204FBC0208BB
:104FC000A83F0120D8BC0208D8CF0208704730B4EF
:104FD000C26844685510034604EB6200D20748BF1C
:104FE00062599B6830BC48BFD35818470346406895
:104FF00030B19A681AB9D86800F0010070470120F2
:10500000704710B51021044624F05CFB204610BD0B
:1050100010B5044600F5E87003F08AFC04F5397019
:1050200002F0ACFD04F5916006F079FA04F25450F8
:1050300006F075FA04F5C46006F071FA04F2EC604B
:1050400006F06DFA04F5F76006F069FA04F68400DC
:1050500006F065FA04F5156006F061FA04F61C2006
:1050600006F05DFA04F6E820BDE8104006F057BAF5
:10507000E430884208B505D111F068FCBDE808406D
:10508000FEF79AB808BD000010B5034B0360044654
:1050900002F012F9204610BD40DE02081B4B10B58D
:1050A0000446036000F6E820FFF7EEFF04F61C203C
:1050B000FFF7EAFF04F51560FFF7E6FF04F684004A
:1050C000FFF7E2FF04F5F760FFF7DEFF04F2EC60A4
:1050D000FFF7DAFF04F5C460FFF7D6FF04F254507F
:1050E000FFF7D2FF04F59160FFF7CEFF084BC4F83D
:1050F000E43204F53970FDF76BF9064BC4F8D03192
:1051000004F5E870FFF790FE204610BD04D50208B4
:105110004CD902084CDB020810B50446FFF7BEFF6D
:10512000204640F6C43124F0CDFA204610BD10B51B
:105130000446FFF7A9FF2046CC2124F0C3FA2046FD
:1051400010BD00002DE9F04F044695B0A1460026A1
:1051500013F072FCB94BE66349F8403B4846FDF753
:1051600081FB04F1E40A04F16C00FDF78FFB04F508
:10517000AE7B5046FDF78AFB04F5C4785846FDF730
:1051800071FB4046FDF79EF904F5E873184603935A
:1051900003F0B2FB04F53973184604F588670493ED
:1051A00002F0D0FC04F57E70FDF78CF93846FDF76F
:1051B00089F904F591631846059306F007F904F29E
:1051C00054531846069306F001F904F5C4631846D3
:1051D000079306F0FBF804F2EC631846089306F018
:1051E000F5F804F5F7631846099306F0EFF804F6AE
:1051F000840318460A9306F0E9F804F51563184687
:105200000B9306F0E3F804F61C2318460C9306F003
:10521000DDF804F6E82318460D9306F0D7F8884B1E
:10522000C4F8B43B874BC4F8BC3B4FF4A073324680
:10523000C4F8B84BC4F8C06B314600934846F0231D
:10524000251DFDF7FBFA4FF07F43A366494628462C
:105250004FF022090BF032FA32463146CDF8009079
:1052600004F58C706423FDF7E9FA0523A4F84831AE
:10527000754BC4F84C3103F54C533333C4F85031FB
:10528000A3F5CC43663BC4F8543103F1331303F563
:105290004C53C4F858315046FDF735FA04F6B43390
:1052A000C4F814312422CDF80090642350464621DE
:1052B000FDF7C4FA4FF0F009514628460BF0FEF90D
:1052C0004B46502231465846CDF80090FDF7B6FACD
:1052D0005E4BC4F88431594628460BF0EFF906229C
:1052E00040460B21FDF7E0F80DF1380A584BC4F8A1
:1052F000B83141465046A4F8BC610EF0F9F99AE87D
:10530000070004F5E27383E80700DFF848B1CDF841
:1053100048B0142312A94046ADF84C300EF082FC80
:10532000414628460BF0CAF9039803227521FDF780
:10533000BBF8039928460BF0C1F904980322A22177
:10534000FDF7B2F8049928460BF0B8F92C2238463C
:105350006421FDF7A9F84FF07F43C4F87034394653
:105360005046A4F874640EF0C3F99AE8070004F2FA
:105370007C4383E80700122312A93846ADF84C306D
:10538000CDF848B00EF04EFC394628460BF096F9A1
:10539000059850223146FDF787F8059928460BF00D
:1053A0008DF9502211460698FDF77EF80699284699
:1053B0000BF084F907985022A021FDF775F80799A2
:1053C00028460BF07BF90898A0223146FDF76CF8CF
:1053D000089928460BF072F94A4609983146FDF7BC
:1053E00063F8099928460BF069F9A02211460A983A
:1053F000FDF75AF80A9928460BF060F94A460B98CF
:105400005021FDF751F80B9928460BF057F90C98ED
:10541000A0225021FDF748F80C9928460BF04EF9D0
:105420000D984A46A021FDF73FF828460D990BF04C
:1054300045F9204615B0BDE8F08F00BF04D502083D
:10544000ECD4020871500008996600FF656E77FF82
:105450001B6EE3FFD8CF0208704730B4C2684468BF
:105460005510034604EB6200D20748BF62599B689F
:1054700030BC48BFD35818470346406830B19A68DB
:105480001AB9D86800F0010070470120704710B5C4
:105490001021044624F016F9204610BD10B504462C
:1054A000983006F034F904F5B27006F030F904F5DE
:1054B0000C7006F02CF904F53F7006F028F904F59D
:1054C000727006F024F904F2944006F020F904F515
:1054D000AC6006F01CF904F22C6006F018F904F533
:1054E000DF6006F014F904F2C47006F010F904F558
:1054F000096006F00CF904F65C1006F008F904F6F1
:10550000282006F004F904F6F42006F000F904F56A
:105510003C6006F0FCF804F68C4006F0F8F804F65F
:10552000585006F0F4F804F6246006F0F0F804F59C
:105530006F6006F0ECF804F6BC7006F0E8F804F5CD
:105540008450083006F0E3F804F58A50143006F071
:10555000DEF804F5915006F0DAF804F597500C30B7
:1055600006F0D5F804F59D50183006F0D0F804F593
:10557000B2500C3003F0DCF904F5BB50BDE810402C
:1055800002F0FCBA38B500F5A4530433994204463E
:105590000D4603D111F0DAF9FDF76EFD04F5A750C1
:1055A0001C30854205D111F0D1F9BDE83840FDF736
:1055B00003BE38BD10B5034B0360044601F04CFF39
:1055C000204610BDD4DE020838B500F580553E4BAC
:1055D00003603E4BC5F86037044600F5BB50FCF74E
:1055E000F7FE3B4BC5F84C3604F5B2500C30FFF7D4
:1055F0001BFC04F59D501830FFF7DCFF04F59750B5
:105600000C30FFF7D7FF04F59150FFF7D3FF04F5F7
:105610008A501430FFF7CEFF04F584500830FFF7AE
:10562000C9FF04F6BC70FFF7C5FF04F56F60FFF714
:10563000C1FF04F62460FFF7BDFF04F65850FFF7E2
:10564000B9FF04F68C40FFF7B5FF04F53C60FFF7A7
:10565000B1FF04F6F420FFF7ADFF04F62820FFF7B2
:10566000A9FF04F65C10FFF7A5FF04F50960FFF73A
:10567000A1FF04F2C470FFF79DFF04F5DF60FFF7A0
:1056800099FF04F22C60FFF795FF04F5AC60FFF77B
:1056900091FF04F29440FFF78DFF04F57270FFF75D
:1056A00089FF04F53F70FFF785FF04F50C70FFF7E5
:1056B00081FF04F5B270FFF77DFF04F19800FFF75A
:1056C00079FF204638BD00BF50D502084CD90208EA
:1056D0004CDB020810B50446FFF776FF204641F682
:1056E000840123F0EFFF204610BD10B50446FFF7FC
:1056F00061FF2046CC2123F0E5FF204610BD0000CD
:105700002DE9F04F0446A5B0A046002713F094F908
:10571000D74BE76348F8403B4046FDF7A3F804F158
:105720006C0318460793FDF79DF804F1980318469B
:10573000089305F043FF04F5B2731846099305F08A
:105740003DFF04F50C7318460A9305F037FF04F586
:105750003F7318460B9305F031FF04F5727318463A
:105760000C9305F02BFF04F2944318460D9305F0BB
:1057700025FF04F5AC6318460E9305F01FFF04F2F5
:105780002C6318460F9305F019FF04F5DF631846E4
:10579000109305F013FF04F2C4731846119305F03B
:1057A0000DFF04F509631846129305F007FF04F690
:1057B0005C131846139305F001FF04F628231846DE
:1057C000149305F0FBFE04F6F4231846159305F038
:1057D000F5FE04F53C631846169305F0EFFE04F65B
:1057E0008C431846179305F0E9FE04F65853184603
:1057F000189305F0E3FE04F624631846199305F0A8
:10580000DDFE04F56F6318461A9305F0D7FE04F623
:10581000BC7318461B9305F0D1FE04F5845308337E
:105820001846029305F0CAFE04F58A53143318464D
:10583000039305F0C3FE04F5915318461C9305F03D
:10584000BDFE04F597530C331846049305F0B6FEDD
:1058500004F59D5318331846059304F5A75905F030
:10586000ADFE04F5A45009F11C090430FDF70EF853
:105870004846FDF70BF804F5AD5A04F5AB500AF1B4
:105880001C0A04F5B05B14300BF1040BFCF71AFE94
:105890005046FCF717FE5846FCF714FE04F5B253C9
:1058A0000C331846069303F027F804F5BB5304F5B0
:1058B000805618461D9302F045F96E4BC6F87438B1
:1058C0006D4BC6F87C384FF4A0733A46C6F878485A
:1058D000C6F88078394600934046F023251DFCF732
:1058E000ADFF4FF07F43A366414628460AF0E6FE2F
:1058F000F0230798009350223946FCF79FFF5F4B37
:10590000C4F89430079928460AF0D8FE0898502227
:105910003946FCF7C9FD089928460AF0CFFE0998D8
:1059200050223021FCF7C0FD099928460AF0C6FE36
:105930000A9850226021FCF7B7FD0A9928460AF020
:10594000BDFE0B9850229021FCF7AEFD0B99284626
:105950000AF0B4FE0C985022C021FCF7A5FD0C996A
:1059600028460AF0ABFE0D9880223946FCF79CFDD4
:105970000D9928460AF0A2FE0E9880223021FCF7ED
:1059800093FD0E9928460AF099FE0F988022602117
:10599000FCF78AFD0F9928460AF090FE10988022A5
:1059A0009021FCF781FD109928460AF087FE119896
:1059B0008022C021FCF778FD119928460AF07EFE6E
:1059C0001298B0223946FCF76FFD129928460AF06A
:1059D00075FE1398B0223021FCF766FD1399284616
:1059E0000AF06CFE1498B0226021FCF75DFD14995A
:1059F00028460AF063FE1598B0229021FCF754FD6A
:105A0000159928460AF05AFE1698B022C021FCF7D4
:105A10004BFD169928460AF051FE1798E0223946A8
:105A2000FCF742FD179928460AF048FE1898E02234
:105A30003021FCF739FD189928460AF03FFE1998E5
:105A4000E0226021FCF730FD199928460AF036FE65
:105A50001A98E0229021FCF727FD1A9928460AF0AF
:105A60002DFE1B98E022C021FCF71EFD08E000BFC0
:105A700050D5020838D5020885550008656E77FFB5
:105A80001B9928460AF01AFE02984FF4887239468C
:105A9000FCF70AFD029928460AF010FE03984FF41D
:105AA00088723021FCF700FD039928460AF006FEB3
:105AB0001C984FF488726021FCF7F6FC1C9928466C
:105AC0000AF0FCFD04984FF488729021FCF7ECFC7E
:105AD000049928460AF0F2FD05984FF48872C02117
